{
  "address": "0xD4a0F294dD991ab2a1621d9c57d77941E9108592",
  "abi": [
    {
      "inputs": [
        {
          "internalType": "contract QuantToken",
          "name": "_egg",
          "type": "address"
        },
        {
          "internalType": "address",
          "name": "_devaddr",
          "type": "address"
        },
        {
          "internalType": "address",
          "name": "_feeAddress",
          "type": "address"
        },
        {
          "internalType": "uint256",
          "name": "_eggPerBlock",
          "type": "uint256"
        },
        {
          "internalType": "uint256",
          "name": "_startBlock",
          "type": "uint256"
        }
      ],
      "stateMutability": "nonpayable",
      "type": "constructor"
    },
    {
      "anonymous": false,
      "inputs": [
        {
          "indexed": true,
          "internalType": "address",
          "name": "user",
          "type": "address"
        },
        {
          "indexed": true,
          "internalType": "uint256",
          "name": "pid",
          "type": "uint256"
        },
        {
          "indexed": false,
          "internalType": "uint256",
          "name": "amount",
          "type": "uint256"
        }
      ],
      "name": "Deposit",
      "type": "event"
    },
    {
      "anonymous": false,
      "inputs": [
        {
          "indexed": true,
          "internalType": "address",
          "name": "user",
          "type": "address"
        },
        {
          "indexed": true,
          "internalType": "uint256",
          "name": "pid",
          "type": "uint256"
        },
        {
          "indexed": false,
          "internalType": "uint256",
          "name": "amount",
          "type": "uint256"
        }
      ],
      "name": "EmergencyWithdraw",
      "type": "event"
    },
    {
      "anonymous": false,
      "inputs": [
        {
          "indexed": true,
          "internalType": "address",
          "name": "previousOwner",
          "type": "address"
        },
        {
          "indexed": true,
          "internalType": "address",
          "name": "newOwner",
          "type": "address"
        }
      ],
      "name": "OwnershipTransferred",
      "type": "event"
    },
    {
      "anonymous": false,
      "inputs": [
        {
          "indexed": true,
          "internalType": "address",
          "name": "user",
          "type": "address"
        },
        {
          "indexed": true,
          "internalType": "uint256",
          "name": "pid",
          "type": "uint256"
        },
        {
          "indexed": false,
          "internalType": "uint256",
          "name": "amount",
          "type": "uint256"
        }
      ],
      "name": "Withdraw",
      "type": "event"
    },
    {
      "inputs": [],
      "name": "BONUS_MULTIPLIER",
      "outputs": [
        {
          "internalType": "uint256",
          "name": "",
          "type": "uint256"
        }
      ],
      "stateMutability": "view",
      "type": "function"
    },
    {
      "inputs": [
        {
          "internalType": "uint256",
          "name": "_allocPoint",
          "type": "uint256"
        },
        {
          "internalType": "contract IBEP20",
          "name": "_lpToken",
          "type": "address"
        },
        {
          "internalType": "uint16",
          "name": "_depositFeeBP",
          "type": "uint16"
        },
        {
          "internalType": "bool",
          "name": "_withUpdate",
          "type": "bool"
        }
      ],
      "name": "add",
      "outputs": [],
      "stateMutability": "nonpayable",
      "type": "function"
    },
    {
      "inputs": [
        {
          "internalType": "uint256",
          "name": "_pid",
          "type": "uint256"
        },
        {
          "internalType": "uint256",
          "name": "_amount",
          "type": "uint256"
        }
      ],
      "name": "deposit",
      "outputs": [],
      "stateMutability": "nonpayable",
      "type": "function"
    },
    {
      "inputs": [
        {
          "internalType": "address",
          "name": "_devaddr",
          "type": "address"
        }
      ],
      "name": "dev",
      "outputs": [],
      "stateMutability": "nonpayable",
      "type": "function"
    },
    {
      "inputs": [],
      "name": "devaddr",
      "outputs": [
        {
          "internalType": "address",
          "name": "",
          "type": "address"
        }
      ],
      "stateMutability": "view",
      "type": "function"
    },
    {
      "inputs": [],
      "name": "egg",
      "outputs": [
        {
          "internalType": "contract QuantToken",
          "name": "",
          "type": "address"
        }
      ],
      "stateMutability": "view",
      "type": "function"
    },
    {
      "inputs": [],
      "name": "eggPerBlock",
      "outputs": [
        {
          "internalType": "uint256",
          "name": "",
          "type": "uint256"
        }
      ],
      "stateMutability": "view",
      "type": "function"
    },
    {
      "inputs": [
        {
          "internalType": "uint256",
          "name": "_pid",
          "type": "uint256"
        }
      ],
      "name": "emergencyWithdraw",
      "outputs": [],
      "stateMutability": "nonpayable",
      "type": "function"
    },
    {
      "inputs": [],
      "name": "feeAddress",
      "outputs": [
        {
          "internalType": "address",
          "name": "",
          "type": "address"
        }
      ],
      "stateMutability": "view",
      "type": "function"
    },
    {
      "inputs": [
        {
          "internalType": "uint256",
          "name": "_from",
          "type": "uint256"
        },
        {
          "internalType": "uint256",
          "name": "_to",
          "type": "uint256"
        }
      ],
      "name": "getMultiplier",
      "outputs": [
        {
          "internalType": "uint256",
          "name": "",
          "type": "uint256"
        }
      ],
      "stateMutability": "view",
      "type": "function"
    },
    {
      "inputs": [],
      "name": "massUpdatePools",
      "outputs": [],
      "stateMutability": "nonpayable",
      "type": "function"
    },
    {
      "inputs": [],
      "name": "owner",
      "outputs": [
        {
          "internalType": "address",
          "name": "",
          "type": "address"
        }
      ],
      "stateMutability": "view",
      "type": "function"
    },
    {
      "inputs": [
        {
          "internalType": "uint256",
          "name": "_pid",
          "type": "uint256"
        },
        {
          "internalType": "address",
          "name": "_user",
          "type": "address"
        }
      ],
      "name": "pendingEgg",
      "outputs": [
        {
          "internalType": "uint256",
          "name": "",
          "type": "uint256"
        }
      ],
      "stateMutability": "view",
      "type": "function"
    },
    {
      "inputs": [
        {
          "internalType": "uint256",
          "name": "",
          "type": "uint256"
        }
      ],
      "name": "poolInfo",
      "outputs": [
        {
          "internalType": "contract IBEP20",
          "name": "lpToken",
          "type": "address"
        },
        {
          "internalType": "uint256",
          "name": "allocPoint",
          "type": "uint256"
        },
        {
          "internalType": "uint256",
          "name": "lastRewardBlock",
          "type": "uint256"
        },
        {
          "internalType": "uint256",
          "name": "accEggPerShare",
          "type": "uint256"
        },
        {
          "internalType": "uint16",
          "name": "depositFeeBP",
          "type": "uint16"
        }
      ],
      "stateMutability": "view",
      "type": "function"
    },
    {
      "inputs": [],
      "name": "poolLength",
      "outputs": [
        {
          "internalType": "uint256",
          "name": "",
          "type": "uint256"
        }
      ],
      "stateMutability": "view",
      "type": "function"
    },
    {
      "inputs": [],
      "name": "renounceOwnership",
      "outputs": [],
      "stateMutability": "nonpayable",
      "type": "function"
    },
    {
      "inputs": [
        {
          "internalType": "uint256",
          "name": "_pid",
          "type": "uint256"
        },
        {
          "internalType": "uint256",
          "name": "_allocPoint",
          "type": "uint256"
        },
        {
          "internalType": "uint16",
          "name": "_depositFeeBP",
          "type": "uint16"
        },
        {
          "internalType": "bool",
          "name": "_withUpdate",
          "type": "bool"
        }
      ],
      "name": "set",
      "outputs": [],
      "stateMutability": "nonpayable",
      "type": "function"
    },
    {
      "inputs": [
        {
          "internalType": "address",
          "name": "_feeAddress",
          "type": "address"
        }
      ],
      "name": "setFeeAddress",
      "outputs": [],
      "stateMutability": "nonpayable",
      "type": "function"
    },
    {
      "inputs": [],
      "name": "startBlock",
      "outputs": [
        {
          "internalType": "uint256",
          "name": "",
          "type": "uint256"
        }
      ],
      "stateMutability": "view",
      "type": "function"
    },
    {
      "inputs": [],
      "name": "totalAllocPoint",
      "outputs": [
        {
          "internalType": "uint256",
          "name": "",
          "type": "uint256"
        }
      ],
      "stateMutability": "view",
      "type": "function"
    },
    {
      "inputs": [
        {
          "internalType": "address",
          "name": "newOwner",
          "type": "address"
        }
      ],
      "name": "transferOwnership",
      "outputs": [],
      "stateMutability": "nonpayable",
      "type": "function"
    },
    {
      "inputs": [
        {
          "internalType": "uint256",
          "name": "_eggPerBlock",
          "type": "uint256"
        }
      ],
      "name": "updateEmissionRate",
      "outputs": [],
      "stateMutability": "nonpayable",
      "type": "function"
    },
    {
      "inputs": [
        {
          "internalType": "uint256",
          "name": "_pid",
          "type": "uint256"
        }
      ],
      "name": "updatePool",
      "outputs": [],
      "stateMutability": "nonpayable",
      "type": "function"
    },
    {
      "inputs": [
        {
          "internalType": "uint256",
          "name": "",
          "type": "uint256"
        },
        {
          "internalType": "address",
          "name": "",
          "type": "address"
        }
      ],
      "name": "userInfo",
      "outputs": [
        {
          "internalType": "uint256",
          "name": "amount",
          "type": "uint256"
        },
        {
          "internalType": "uint256",
          "name": "rewardDebt",
          "type": "uint256"
        }
      ],
      "stateMutability": "view",
      "type": "function"
    },
    {
      "inputs": [
        {
          "internalType": "uint256",
          "name": "_pid",
          "type": "uint256"
        },
        {
          "internalType": "uint256",
          "name": "_amount",
          "type": "uint256"
        }
      ],
      "name": "withdraw",
      "outputs": [],
      "stateMutability": "nonpayable",
      "type": "function"
    }
  ],
  "transactionHash": "0x36a18ae477b926b08442d19c711566c269c741ad87ee3a31a78b6e9d310cf036",
  "args": [
    "0x79c11e21a94dBd4114BbF3aD78b8a1E36F59124B",
    "0x10e38dfffcfdbaaf590d5a9958b01c9cfcf6a63b",
    "0x10e38dfffcfdbaaf590d5a9958b01c9cfcf6a63b",
    11,
    134
  ],
  "solcInputHash": "53ce3ce081337881e4d16505a376ad25",
  "bytecode": "0x608060405260006007553480156200001657600080fd5b506040516200314a3803806200314a83398181016040528101906200003c919062000249565b6200005c620000506200013860201b60201c565b6200014060201b60201c565b84600160006101000a81548173ffffffffffffffffffffffffffffffffffffffff021916908373ffffffffffffffffffffffffffffffffffffffff16021790555083600260006101000a81548173ffffffffffffffffffffffffffffffffffffffff021916908373ffffffffffffffffffffffffffffffffffffffff16021790555082600460006101000a81548173ffffffffffffffffffffffffffffffffffffffff021916908373ffffffffffffffffffffffffffffffffffffffff160217905550816003819055508060088190555050505050506200036b565b600033905090565b60008060009054906101000a900473ffffffffffffffffffffffffffffffffffffffff169050816000806101000a81548173ffffffffffffffffffffffffffffffffffffffff021916908373ffffffffffffffffffffffffffffffffffffffff1602179055508173ffffffffffffffffffffffffffffffffffffffff168173ffffffffffffffffffffffffffffffffffffffff167f8be0079c531659141344cd1fd0a4f28419497f9722a3daafe3b4186f6b6457e060405160405180910390a35050565b60008151905062000215816200031d565b92915050565b6000815190506200022c8162000337565b92915050565b600081519050620002438162000351565b92915050565b600080600080600060a086880312156200026257600080fd5b600062000272888289016200021b565b9550506020620002858882890162000204565b9450506040620002988882890162000204565b9350506060620002ab8882890162000232565b9250506080620002be8882890162000232565b9150509295509295909350565b6000620002d882620002f3565b9050919050565b6000620002ec82620002cb565b9050919050565b600073ffffffffffffffffffffffffffffffffffffffff82169050919050565b6000819050919050565b6200032881620002cb565b81146200033457600080fd5b50565b6200034281620002df565b81146200034e57600080fd5b50565b6200035c8162000313565b81146200036857600080fd5b50565b612dcf806200037b6000396000f3fe608060405234801561001057600080fd5b50600436106101735760003560e01c80638705fcd4116100de578063a1a4d4a411610097578063d963842211610071578063d9638422146103f3578063e2bbb1581461040f578063f2fde38b1461042b578063f456426f1461044757610173565b8063a1a4d4a414610399578063c06abfc7146103b7578063d49e77cd146103d557610173565b80638705fcd4146102c45780638aa28550146102e05780638d88a90e146102fe5780638da5cb5b1461031a5780638dbb1e3a1461033857806393f1a40b1461036857610173565b806348cd4cb11161013057806348cd4cb11461023e57806351eb05a61461025c5780635312ea8e14610278578063630b5ba114610294578063715018a61461029e57806384e82a33146102a857610173565b8063081e3eda146101785780630ba84cd2146101965780631526fe27146101b257806317caf6f1146101e65780634127535814610204578063441a3e7014610222575b600080fd5b610180610477565b60405161018d9190612a00565b60405180910390f35b6101b060048036038101906101ab919061221b565b610484565b005b6101cc60048036038101906101c7919061221b565b610512565b6040516101dd959493929190612830565b60405180910390f35b6101ee610586565b6040516101fb9190612a00565b60405180910390f35b61020c61058c565b60405161021991906127b5565b60405180910390f35b61023c6004803603810190610237919061230c565b6105b2565b005b61024661080a565b6040516102539190612a00565b60405180910390f35b6102766004803603810190610271919061221b565b610810565b005b610292600480360381019061028d919061221b565b610b47565b005b61029c610ca8565b005b6102a6610cdb565b005b6102c260048036038101906102bd91906122a9565b610d63565b005b6102de60048036038101906102d991906121c9565b610f67565b005b6102e861103b565b6040516102f59190612a00565b60405180910390f35b610318600480360381019061031391906121c9565b611040565b005b610322611114565b60405161032f91906127b5565b60405180910390f35b610352600480360381019061034d919061230c565b61113d565b60405161035f9190612a00565b60405180910390f35b610382600480360381019061037d919061226d565b61116d565b604051610390929190612a1b565b60405180910390f35b6103a161119e565b6040516103ae9190612a00565b60405180910390f35b6103bf6111a4565b6040516103cc9190612883565b60405180910390f35b6103dd6111ca565b6040516103ea91906127b5565b60405180910390f35b61040d60048036038101906104089190612348565b6111f0565b005b6104296004803603810190610424919061230c565b6113f8565b005b610445600480360381019061044091906121c9565b611722565b005b610461600480360381019061045c919061226d565b61181a565b60405161046e9190612a00565b60405180910390f35b6000600580549050905090565b61048c611a74565b73ffffffffffffffffffffffffffffffffffffffff166104aa611114565b73ffffffffffffffffffffffffffffffffffffffff1614610500576040517f08c379a00000000000000000000000000000000000000000000000000000000081526004016104f790612980565b60405180910390fd5b610508610ca8565b8060038190555050565b6005818154811061052257600080fd5b90600052602060002090600502016000915090508060000160009054906101000a900473ffffffffffffffffffffffffffffffffffffffff16908060010154908060020154908060030154908060040160009054906101000a900461ffff16905085565b60075481565b600460009054906101000a900473ffffffffffffffffffffffffffffffffffffffff1681565b6000600583815481106105ee577f4e487b7100000000000000000000000000000000000000000000000000000000600052603260045260246000fd5b9060005260206000209060050201905060006006600085815260200190815260200160002060003373ffffffffffffffffffffffffffffffffffffffff1673ffffffffffffffffffffffffffffffffffffffff16815260200190815260200160002090508281600001541015610699576040517f08c379a0000000000000000000000000000000000000000000000000000000008152600401610690906129c0565b60405180910390fd5b6106a284610810565b60006106ec82600101546106de64e8d4a510006106d087600301548760000154611a7c90919063ffffffff16565b611a9290919063ffffffff16565b611aa890919063ffffffff16565b90506000811115610702576107013382611abe565b5b600084111561077a57610722848360000154611aa890919063ffffffff16565b826000018190555061077933858560000160009054906101000a900473ffffffffffffffffffffffffffffffffffffffff1673ffffffffffffffffffffffffffffffffffffffff16611ce09092919063ffffffff16565b5b6107ac64e8d4a5100061079e85600301548560000154611a7c90919063ffffffff16565b611a9290919063ffffffff16565b8260010181905550843373ffffffffffffffffffffffffffffffffffffffff167ff279e6a1f5e320cca91135676d9cb6e44ca8a08c0b88342bcdb1144f6511b568866040516107fb9190612a00565b60405180910390a35050505050565b60085481565b60006005828154811061084c577f4e487b7100000000000000000000000000000000000000000000000000000000600052603260045260246000fd5b906000526020600020906005020190508060020154431161086d5750610b44565b60008160000160009054906101000a900473ffffffffffffffffffffffffffffffffffffffff1673ffffffffffffffffffffffffffffffffffffffff166370a08231306040518263ffffffff1660e01b81526004016108cc91906127b5565b60206040518083038186803b1580156108e457600080fd5b505afa1580156108f8573d6000803e3d6000fd5b505050506040513d601f19601f8201168201806040525081019061091c9190612244565b90506000811480610931575060008260010154145b15610946574382600201819055505050610b44565b600061095683600201544361113d565b9050600061099960075461098b866001015461097d60035487611a7c90919063ffffffff16565b611a7c90919063ffffffff16565b611a9290919063ffffffff16565b9050600160009054906101000a900473ffffffffffffffffffffffffffffffffffffffff1673ffffffffffffffffffffffffffffffffffffffff166340c10f19600260009054906101000a900473ffffffffffffffffffffffffffffffffffffffff16610a10600a85611a9290919063ffffffff16565b6040518363ffffffff1660e01b8152600401610a2d929190612807565b600060405180830381600087803b158015610a4757600080fd5b505af1158015610a5b573d6000803e3d6000fd5b50505050600160009054906101000a900473ffffffffffffffffffffffffffffffffffffffff1673ffffffffffffffffffffffffffffffffffffffff166340c10f1930836040518363ffffffff1660e01b8152600401610abc929190612807565b600060405180830381600087803b158015610ad657600080fd5b505af1158015610aea573d6000803e3d6000fd5b50505050610b2e610b1b84610b0d64e8d4a5100085611a7c90919063ffffffff16565b611a9290919063ffffffff16565b8560030154611d6690919063ffffffff16565b8460030181905550438460020181905550505050505b50565b600060058281548110610b83577f4e487b7100000000000000000000000000000000000000000000000000000000600052603260045260246000fd5b9060005260206000209060050201905060006006600084815260200190815260200160002060003373ffffffffffffffffffffffffffffffffffffffff1673ffffffffffffffffffffffffffffffffffffffff16815260200190815260200160002090506000816000015490506000826000018190555060008260010181905550610c5333828560000160009054906101000a900473ffffffffffffffffffffffffffffffffffffffff1673ffffffffffffffffffffffffffffffffffffffff16611ce09092919063ffffffff16565b833373ffffffffffffffffffffffffffffffffffffffff167fbb757047c2b5f3974fe26b7c10f732e7bce710b0952a71082702781e62ae059583604051610c9a9190612a00565b60405180910390a350505050565b6000600580549050905060005b81811015610cd757610cc681610810565b80610cd090612c6e565b9050610cb5565b5050565b610ce3611a74565b73ffffffffffffffffffffffffffffffffffffffff16610d01611114565b73ffffffffffffffffffffffffffffffffffffffff1614610d57576040517f08c379a0000000000000000000000000000000000000000000000000000000008152600401610d4e90612980565b60405180910390fd5b610d616000611d7c565b565b610d6b611a74565b73ffffffffffffffffffffffffffffffffffffffff16610d89611114565b73ffffffffffffffffffffffffffffffffffffffff1614610ddf576040517f08c379a0000000000000000000000000000000000000000000000000000000008152600401610dd690612980565b60405180910390fd5b6127108261ffff161115610e28576040517f08c379a0000000000000000000000000000000000000000000000000000000008152600401610e1f906128c0565b60405180910390fd5b8015610e3757610e36610ca8565b5b60006008544311610e4a57600854610e4c565b435b9050610e6385600754611d6690919063ffffffff16565b60078190555060056040518060a001604052808673ffffffffffffffffffffffffffffffffffffffff168152602001878152602001838152602001600081526020018561ffff16815250908060018154018082558091505060019003906000526020600020906005020160009091909190915060008201518160000160006101000a81548173ffffffffffffffffffffffffffffffffffffffff021916908373ffffffffffffffffffffffffffffffffffffffff16021790555060208201518160010155604082015181600201556060820151816003015560808201518160040160006101000a81548161ffff021916908361ffff16021790555050505050505050565b600460009054906101000a900473ffffffffffffffffffffffffffffffffffffffff1673ffffffffffffffffffffffffffffffffffffffff163373ffffffffffffffffffffffffffffffffffffffff1614610ff7576040517f08c379a0000000000000000000000000000000000000000000000000000000008152600401610fee906129e0565b60405180910390fd5b80600460006101000a81548173ffffffffffffffffffffffffffffffffffffffff021916908373ffffffffffffffffffffffffffffffffffffffff16021790555050565b600181565b600260009054906101000a900473ffffffffffffffffffffffffffffffffffffffff1673ffffffffffffffffffffffffffffffffffffffff163373ffffffffffffffffffffffffffffffffffffffff16146110d0576040517f08c379a00000000000000000000000000000000000000000000000000000000081526004016110c790612940565b60405180910390fd5b80600260006101000a81548173ffffffffffffffffffffffffffffffffffffffff021916908373ffffffffffffffffffffffffffffffffffffffff16021790555050565b60008060009054906101000a900473ffffffffffffffffffffffffffffffffffffffff16905090565b600061116560016111578585611aa890919063ffffffff16565b611a7c90919063ffffffff16565b905092915050565b6006602052816000526040600020602052806000526040600020600091509150508060000154908060010154905082565b60035481565b600160009054906101000a900473ffffffffffffffffffffffffffffffffffffffff1681565b600260009054906101000a900473ffffffffffffffffffffffffffffffffffffffff1681565b6111f8611a74565b73ffffffffffffffffffffffffffffffffffffffff16611216611114565b73ffffffffffffffffffffffffffffffffffffffff161461126c576040517f08c379a000000000000000000000000000000000000000000000000000000000815260040161126390612980565b60405180910390fd5b6127108261ffff1611156112b5576040517f08c379a00000000000000000000000000000000000000000000000000000000081526004016112ac90612960565b60405180910390fd5b80156112c4576112c3610ca8565b5b6113368361132860058781548110611305577f4e487b7100000000000000000000000000000000000000000000000000000000600052603260045260246000fd5b906000526020600020906005020160010154600754611aa890919063ffffffff16565b611d6690919063ffffffff16565b6007819055508260058581548110611377577f4e487b7100000000000000000000000000000000000000000000000000000000600052603260045260246000fd5b90600052602060002090600502016001018190555081600585815481106113c7577f4e487b7100000000000000000000000000000000000000000000000000000000600052603260045260246000fd5b906000526020600020906005020160040160006101000a81548161ffff021916908361ffff16021790555050505050565b600060058381548110611434577f4e487b7100000000000000000000000000000000000000000000000000000000600052603260045260246000fd5b9060005260206000209060050201905060006006600085815260200190815260200160002060003373ffffffffffffffffffffffffffffffffffffffff1673ffffffffffffffffffffffffffffffffffffffff16815260200190815260200160002090506114a184610810565b6000816000015411156115105760006114f882600101546114ea64e8d4a510006114dc87600301548760000154611a7c90919063ffffffff16565b611a9290919063ffffffff16565b611aa890919063ffffffff16565b9050600081111561150e5761150d3382611abe565b5b505b60008311156116935761156a3330858560000160009054906101000a900473ffffffffffffffffffffffffffffffffffffffff1673ffffffffffffffffffffffffffffffffffffffff16611e40909392919063ffffffff16565b60008260040160009054906101000a900461ffff1661ffff1611156116725760006115c86127106115ba8560040160009054906101000a900461ffff1661ffff1687611a7c90919063ffffffff16565b611a9290919063ffffffff16565b905061163b600460009054906101000a900473ffffffffffffffffffffffffffffffffffffffff16828560000160009054906101000a900473ffffffffffffffffffffffffffffffffffffffff1673ffffffffffffffffffffffffffffffffffffffff16611ce09092919063ffffffff16565b61166481611656868560000154611d6690919063ffffffff16565b611aa890919063ffffffff16565b826000018190555050611692565b611689838260000154611d6690919063ffffffff16565b81600001819055505b5b6116c564e8d4a510006116b784600301548460000154611a7c90919063ffffffff16565b611a9290919063ffffffff16565b8160010181905550833373ffffffffffffffffffffffffffffffffffffffff167f90890809c654f11d6e72a28fa60149770a0d11ec6c92319d6ceb2bb0a4ea1a15856040516117149190612a00565b60405180910390a350505050565b61172a611a74565b73ffffffffffffffffffffffffffffffffffffffff16611748611114565b73ffffffffffffffffffffffffffffffffffffffff161461179e576040517f08c379a000000000000000000000000000000000000000000000000000000000815260040161179590612980565b60405180910390fd5b600073ffffffffffffffffffffffffffffffffffffffff168173ffffffffffffffffffffffffffffffffffffffff16141561180e576040517f08c379a000000000000000000000000000000000000000000000000000000000815260040161180590612900565b60405180910390fd5b61181781611d7c565b50565b60008060058481548110611857577f4e487b7100000000000000000000000000000000000000000000000000000000600052603260045260246000fd5b9060005260206000209060050201905060006006600086815260200190815260200160002060008573ffffffffffffffffffffffffffffffffffffffff1673ffffffffffffffffffffffffffffffffffffffff168152602001908152602001600020905060008260030154905060008360000160009054906101000a900473ffffffffffffffffffffffffffffffffffffffff1673ffffffffffffffffffffffffffffffffffffffff166370a08231306040518263ffffffff1660e01b815260040161192391906127b5565b60206040518083038186803b15801561193b57600080fd5b505afa15801561194f573d6000803e3d6000fd5b505050506040513d601f19601f820116820180604052508101906119739190612244565b9050836002015443118015611989575060008114155b15611a2457600061199e85600201544361113d565b905060006119e16007546119d388600101546119c560035487611a7c90919063ffffffff16565b611a7c90919063ffffffff16565b611a9290919063ffffffff16565b9050611a1f611a1084611a0264e8d4a5100085611a7c90919063ffffffff16565b611a9290919063ffffffff16565b85611d6690919063ffffffff16565b935050505b611a688360010154611a5a64e8d4a51000611a4c868860000154611a7c90919063ffffffff16565b611a9290919063ffffffff16565b611aa890919063ffffffff16565b94505050505092915050565b600033905090565b60008183611a8a9190612afd565b905092915050565b60008183611aa09190612acc565b905092915050565b60008183611ab69190612b57565b905092915050565b6000600160009054906101000a900473ffffffffffffffffffffffffffffffffffffffff1673ffffffffffffffffffffffffffffffffffffffff166370a08231306040518263ffffffff1660e01b8152600401611b1b91906127b5565b60206040518083038186803b158015611b3357600080fd5b505afa158015611b47573d6000803e3d6000fd5b505050506040513d601f19601f82011682018060405250810190611b6b9190612244565b905080821115611c2a57600160009054906101000a900473ffffffffffffffffffffffffffffffffffffffff1673ffffffffffffffffffffffffffffffffffffffff1663a9059cbb84836040518363ffffffff1660e01b8152600401611bd2929190612807565b602060405180830381600087803b158015611bec57600080fd5b505af1158015611c00573d6000803e3d6000fd5b505050506040513d601f19601f82011682018060405250810190611c2491906121f2565b50611cdb565b600160009054906101000a900473ffffffffffffffffffffffffffffffffffffffff1673ffffffffffffffffffffffffffffffffffffffff1663a9059cbb84846040518363ffffffff1660e01b8152600401611c87929190612807565b602060405180830381600087803b158015611ca157600080fd5b505af1158015611cb5573d6000803e3d6000fd5b505050506040513d601f19601f82011682018060405250810190611cd991906121f2565b505b505050565b611d618363a9059cbb60e01b8484604051602401611cff929190612807565b604051602081830303815290604052907bffffffffffffffffffffffffffffffffffffffffffffffffffffffff19166020820180517bffffffffffffffffffffffffffffffffffffffffffffffffffffffff8381831617835250505050611ec9565b505050565b60008183611d749190612a76565b905092915050565b60008060009054906101000a900473ffffffffffffffffffffffffffffffffffffffff169050816000806101000a81548173ffffffffffffffffffffffffffffffffffffffff021916908373ffffffffffffffffffffffffffffffffffffffff1602179055508173ffffffffffffffffffffffffffffffffffffffff168173ffffffffffffffffffffffffffffffffffffffff167f8be0079c531659141344cd1fd0a4f28419497f9722a3daafe3b4186f6b6457e060405160405180910390a35050565b611ec3846323b872dd60e01b858585604051602401611e61939291906127d0565b604051602081830303815290604052907bffffffffffffffffffffffffffffffffffffffffffffffffffffffff19166020820180517bffffffffffffffffffffffffffffffffffffffffffffffffffffffff8381831617835250505050611ec9565b50505050565b6000611f2b826040518060400160405280602081526020017f5361666542455032303a206c6f772d6c6576656c2063616c6c206661696c65648152508573ffffffffffffffffffffffffffffffffffffffff16611f909092919063ffffffff16565b9050600081511115611f8b5780806020019051810190611f4b91906121f2565b611f8a576040517f08c379a0000000000000000000000000000000000000000000000000000000008152600401611f81906128e0565b60405180910390fd5b5b505050565b6060611f9f8484600085611fa8565b90509392505050565b606082471015611fed576040517f08c379a0000000000000000000000000000000000000000000000000000000008152600401611fe490612920565b60405180910390fd5b611ff6856120bc565b612035576040517f08c379a000000000000000000000000000000000000000000000000000000000815260040161202c906129a0565b60405180910390fd5b6000808673ffffffffffffffffffffffffffffffffffffffff16858760405161205e919061279e565b60006040518083038185875af1925050503d806000811461209b576040519150601f19603f3d011682016040523d82523d6000602084013e6120a0565b606091505b50915091506120b08282866120cf565b92505050949350505050565b600080823b905060008111915050919050565b606083156120df5782905061212f565b6000835111156120f25782518084602001fd5b816040517f08c379a0000000000000000000000000000000000000000000000000000000008152600401612126919061289e565b60405180910390fd5b9392505050565b60008135905061214581612d26565b92915050565b60008135905061215a81612d3d565b92915050565b60008151905061216f81612d3d565b92915050565b60008135905061218481612d54565b92915050565b60008135905061219981612d6b565b92915050565b6000813590506121ae81612d82565b92915050565b6000815190506121c381612d82565b92915050565b6000602082840312156121db57600080fd5b60006121e984828501612136565b91505092915050565b60006020828403121561220457600080fd5b600061221284828501612160565b91505092915050565b60006020828403121561222d57600080fd5b600061223b8482850161219f565b91505092915050565b60006020828403121561225657600080fd5b6000612264848285016121b4565b91505092915050565b6000806040838503121561228057600080fd5b600061228e8582860161219f565b925050602061229f85828601612136565b9150509250929050565b600080600080608085870312156122bf57600080fd5b60006122cd8782880161219f565b94505060206122de87828801612175565b93505060406122ef8782880161218a565b92505060606123008782880161214b565b91505092959194509250565b6000806040838503121561231f57600080fd5b600061232d8582860161219f565b925050602061233e8582860161219f565b9150509250929050565b6000806000806080858703121561235e57600080fd5b600061236c8782880161219f565b945050602061237d8782880161219f565b935050604061238e8782880161218a565b925050606061239f8782880161214b565b91505092959194509250565b6123b481612b8b565b82525050565b60006123c582612a44565b6123cf8185612a5a565b93506123df818560208601612c3b565b80840191505092915050565b6123f481612bf3565b82525050565b61240381612c17565b82525050565b600061241482612a4f565b61241e8185612a65565b935061242e818560208601612c3b565b61243781612d15565b840191505092915050565b600061244f602583612a65565b91507f6164643a20696e76616c6964206465706f73697420666565206261736973207060008301527f6f696e74730000000000000000000000000000000000000000000000000000006020830152604082019050919050565b60006124b5602a83612a65565b91507f5361666542455032303a204245503230206f7065726174696f6e20646964206e60008301527f6f742073756363656564000000000000000000000000000000000000000000006020830152604082019050919050565b600061251b602683612a65565b91507f4f776e61626c653a206e6577206f776e657220697320746865207a65726f206160008301527f64647265737300000000000000000000000000000000000000000000000000006020830152604082019050919050565b6000612581602683612a65565b91507f416464726573733a20696e73756666696369656e742062616c616e636520666f60008301527f722063616c6c00000000000000000000000000000000000000000000000000006020830152604082019050919050565b60006125e7600983612a65565b91507f6465763a207775743f00000000000000000000000000000000000000000000006000830152602082019050919050565b6000612627602583612a65565b91507f7365743a20696e76616c6964206465706f73697420666565206261736973207060008301527f6f696e74730000000000000000000000000000000000000000000000000000006020830152604082019050919050565b600061268d602083612a65565b91507f4f776e61626c653a2063616c6c6572206973206e6f7420746865206f776e65726000830152602082019050919050565b60006126cd601d83612a65565b91507f416464726573733a2063616c6c20746f206e6f6e2d636f6e74726163740000006000830152602082019050919050565b600061270d601283612a65565b91507f77697468647261773a206e6f7420676f6f6400000000000000000000000000006000830152602082019050919050565b600061274d601883612a65565b91507f736574466565416464726573733a20464f5242494444454e00000000000000006000830152602082019050919050565b61278981612bbb565b82525050565b61279881612be9565b82525050565b60006127aa82846123ba565b915081905092915050565b60006020820190506127ca60008301846123ab565b92915050565b60006060820190506127e560008301866123ab565b6127f260208301856123ab565b6127ff604083018461278f565b949350505050565b600060408201905061281c60008301856123ab565b612829602083018461278f565b9392505050565b600060a08201905061284560008301886123eb565b612852602083018761278f565b61285f604083018661278f565b61286c606083018561278f565b6128796080830184612780565b9695505050505050565b600060208201905061289860008301846123fa565b92915050565b600060208201905081810360008301526128b88184612409565b905092915050565b600060208201905081810360008301526128d981612442565b9050919050565b600060208201905081810360008301526128f9816124a8565b9050919050565b600060208201905081810360008301526129198161250e565b9050919050565b6000602082019050818103600083015261293981612574565b9050919050565b60006020820190508181036000830152612959816125da565b9050919050565b600060208201905081810360008301526129798161261a565b9050919050565b6000602082019050818103600083015261299981612680565b9050919050565b600060208201905081810360008301526129b9816126c0565b9050919050565b600060208201905081810360008301526129d981612700565b9050919050565b600060208201905081810360008301526129f981612740565b9050919050565b6000602082019050612a15600083018461278f565b92915050565b6000604082019050612a30600083018561278f565b612a3d602083018461278f565b9392505050565b600081519050919050565b600081519050919050565b600081905092915050565b600082825260208201905092915050565b6000612a8182612be9565b9150612a8c83612be9565b9250827fffffffffffffffffffffffffffffffffffffffffffffffffffffffffffffffff03821115612ac157612ac0612cb7565b5b828201905092915050565b6000612ad782612be9565b9150612ae283612be9565b925082612af257612af1612ce6565b5b828204905092915050565b6000612b0882612be9565b9150612b1383612be9565b9250817fffffffffffffffffffffffffffffffffffffffffffffffffffffffffffffffff0483118215151615612b4c57612b4b612cb7565b5b828202905092915050565b6000612b6282612be9565b9150612b6d83612be9565b925082821015612b8057612b7f612cb7565b5b828203905092915050565b6000612b9682612bc9565b9050919050565b60008115159050919050565b6000612bb482612b8b565b9050919050565b600061ffff82169050919050565b600073ffffffffffffffffffffffffffffffffffffffff82169050919050565b6000819050919050565b6000612bfe82612c05565b9050919050565b6000612c1082612bc9565b9050919050565b6000612c2282612c29565b9050919050565b6000612c3482612bc9565b9050919050565b60005b83811015612c59578082015181840152602081019050612c3e565b83811115612c68576000848401525b50505050565b6000612c7982612be9565b91507fffffffffffffffffffffffffffffffffffffffffffffffffffffffffffffffff821415612cac57612cab612cb7565b5b600182019050919050565b7f4e487b7100000000000000000000000000000000000000000000000000000000600052601160045260246000fd5b7f4e487b7100000000000000000000000000000000000000000000000000000000600052601260045260246000fd5b6000601f19601f8301169050919050565b612d2f81612b8b565b8114612d3a57600080fd5b50565b612d4681612b9d565b8114612d5157600080fd5b50565b612d5d81612ba9565b8114612d6857600080fd5b50565b612d7481612bbb565b8114612d7f57600080fd5b50565b612d8b81612be9565b8114612d9657600080fd5b5056fea264697066735822122077ebd8fcfbea6c989a63d0566646caaf1d95195890fdb561b28eb90e444e3e9564736f6c63430008000033",
  "devdoc": {
    "kind": "dev",
    "methods": {
      "owner()": {
        "details": "Returns the address of the current owner."
      },
      "renounceOwnership()": {
        "details": "Leaves the contract without owner. It will not be possible to call `onlyOwner` functions anymore. Can only be called by the current owner. NOTE: Renouncing ownership will leave the contract without an owner, thereby removing any functionality that is only available to the owner."
      },
      "transferOwnership(address)": {
        "details": "Transfers ownership of the contract to a new account (`newOwner`). Can only be called by the current owner."
      }
    },
    "version": 1
  },
  "userdoc": {
    "kind": "user",
    "methods": {},
    "version": 1
  },
  "storageLayout": {
    "storage": [
      {
        "astId": 7,
        "contract": "src/MasterChef.sol:MasterChef",
        "label": "_owner",
        "offset": 0,
        "slot": "0",
        "type": "t_address"
      },
      {
        "astId": 768,
        "contract": "src/MasterChef.sol:MasterChef",
        "label": "egg",
        "offset": 0,
        "slot": "1",
        "type": "t_contract(QuantToken)2280"
      },
      {
        "astId": 770,
        "contract": "src/MasterChef.sol:MasterChef",
        "label": "devaddr",
        "offset": 0,
        "slot": "2",
        "type": "t_address"
      },
      {
        "astId": 772,
        "contract": "src/MasterChef.sol:MasterChef",
        "label": "eggPerBlock",
        "offset": 0,
        "slot": "3",
        "type": "t_uint256"
      },
      {
        "astId": 777,
        "contract": "src/MasterChef.sol:MasterChef",
        "label": "feeAddress",
        "offset": 0,
        "slot": "4",
        "type": "t_address"
      },
      {
        "astId": 781,
        "contract": "src/MasterChef.sol:MasterChef",
        "label": "poolInfo",
        "offset": 0,
        "slot": "5",
        "type": "t_array(t_struct(PoolInfo)765_storage)dyn_storage"
      },
      {
        "astId": 788,
        "contract": "src/MasterChef.sol:MasterChef",
        "label": "userInfo",
        "offset": 0,
        "slot": "6",
        "type": "t_mapping(t_uint256,t_mapping(t_address,t_struct(UserInfo)753_storage))"
      },
      {
        "astId": 791,
        "contract": "src/MasterChef.sol:MasterChef",
        "label": "totalAllocPoint",
        "offset": 0,
        "slot": "7",
        "type": "t_uint256"
      },
      {
        "astId": 793,
        "contract": "src/MasterChef.sol:MasterChef",
        "label": "startBlock",
        "offset": 0,
        "slot": "8",
        "type": "t_uint256"
      }
    ],
    "types": {
      "t_address": {
        "encoding": "inplace",
        "label": "address",
        "numberOfBytes": "20"
      },
      "t_array(t_struct(PoolInfo)765_storage)dyn_storage": {
        "base": "t_struct(PoolInfo)765_storage",
        "encoding": "dynamic_array",
        "label": "struct MasterChef.PoolInfo[]",
        "numberOfBytes": "32"
      },
      "t_contract(IBEP20)2904": {
        "encoding": "inplace",
        "label": "contract IBEP20",
        "numberOfBytes": "20"
      },
      "t_contract(QuantToken)2280": {
        "encoding": "inplace",
        "label": "contract QuantToken",
        "numberOfBytes": "20"
      },
      "t_mapping(t_address,t_struct(UserInfo)753_storage)": {
        "encoding": "mapping",
        "key": "t_address",
        "label": "mapping(address => struct MasterChef.UserInfo)",
        "numberOfBytes": "32",
        "value": "t_struct(UserInfo)753_storage"
      },
      "t_mapping(t_uint256,t_mapping(t_address,t_struct(UserInfo)753_storage))": {
        "encoding": "mapping",
        "key": "t_uint256",
        "label": "mapping(uint256 => mapping(address => struct MasterChef.UserInfo))",
        "numberOfBytes": "32",
        "value": "t_mapping(t_address,t_struct(UserInfo)753_storage)"
      },
      "t_struct(PoolInfo)765_storage": {
        "encoding": "inplace",
        "label": "struct MasterChef.PoolInfo",
        "members": [
          {
            "astId": 756,
            "contract": "src/MasterChef.sol:MasterChef",
            "label": "lpToken",
            "offset": 0,
            "slot": "0",
            "type": "t_contract(IBEP20)2904"
          },
          {
            "astId": 758,
            "contract": "src/MasterChef.sol:MasterChef",
            "label": "allocPoint",
            "offset": 0,
            "slot": "1",
            "type": "t_uint256"
          },
          {
            "astId": 760,
            "contract": "src/MasterChef.sol:MasterChef",
            "label": "lastRewardBlock",
            "offset": 0,
            "slot": "2",
            "type": "t_uint256"
          },
          {
            "astId": 762,
            "contract": "src/MasterChef.sol:MasterChef",
            "label": "accEggPerShare",
            "offset": 0,
            "slot": "3",
            "type": "t_uint256"
          },
          {
            "astId": 764,
            "contract": "src/MasterChef.sol:MasterChef",
            "label": "depositFeeBP",
            "offset": 0,
            "slot": "4",
            "type": "t_uint16"
          }
        ],
        "numberOfBytes": "160"
      },
      "t_struct(UserInfo)753_storage": {
        "encoding": "inplace",
        "label": "struct MasterChef.UserInfo",
        "members": [
          {
            "astId": 750,
            "contract": "src/MasterChef.sol:MasterChef",
            "label": "amount",
            "offset": 0,
            "slot": "0",
            "type": "t_uint256"
          },
          {
            "astId": 752,
            "contract": "src/MasterChef.sol:MasterChef",
            "label": "rewardDebt",
            "offset": 0,
            "slot": "1",
            "type": "t_uint256"
          }
        ],
        "numberOfBytes": "64"
      },
      "t_uint16": {
        "encoding": "inplace",
        "label": "uint16",
        "numberOfBytes": "2"
      },
      "t_uint256": {
        "encoding": "inplace",
        "label": "uint256",
        "numberOfBytes": "32"
      }
    }
  }
}