{
  "_format": "hh-sol-artifact-1",
  "contractName": "MasterChefV2",
  "sourceName": "contracts/MasterChefV2.sol",
  "abi": [
    {
      "inputs": [
        {
          "internalType": "contract EggToken",
          "name": "_egg",
          "type": "address"
        },
        {
          "internalType": "address",
          "name": "_devaddr",
          "type": "address"
        },
        {
          "internalType": "address",
          "name": "_feeAddress",
          "type": "address"
        },
        {
          "internalType": "uint256",
          "name": "_eggPerBlock",
          "type": "uint256"
        },
        {
          "internalType": "uint256",
          "name": "_startBlock",
          "type": "uint256"
        }
      ],
      "stateMutability": "nonpayable",
      "type": "constructor"
    },
    {
      "anonymous": false,
      "inputs": [
        {
          "indexed": true,
          "internalType": "address",
          "name": "user",
          "type": "address"
        },
        {
          "indexed": true,
          "internalType": "uint256",
          "name": "pid",
          "type": "uint256"
        },
        {
          "indexed": false,
          "internalType": "uint256",
          "name": "amount",
          "type": "uint256"
        }
      ],
      "name": "Deposit",
      "type": "event"
    },
    {
      "anonymous": false,
      "inputs": [
        {
          "indexed": true,
          "internalType": "address",
          "name": "user",
          "type": "address"
        },
        {
          "indexed": true,
          "internalType": "uint256",
          "name": "pid",
          "type": "uint256"
        },
        {
          "indexed": false,
          "internalType": "uint256",
          "name": "amount",
          "type": "uint256"
        }
      ],
      "name": "EmergencyWithdraw",
      "type": "event"
    },
    {
      "anonymous": false,
      "inputs": [
        {
          "indexed": true,
          "internalType": "address",
          "name": "previousOwner",
          "type": "address"
        },
        {
          "indexed": true,
          "internalType": "address",
          "name": "newOwner",
          "type": "address"
        }
      ],
      "name": "OwnershipTransferred",
      "type": "event"
    },
    {
      "anonymous": false,
      "inputs": [
        {
          "indexed": true,
          "internalType": "address",
          "name": "user",
          "type": "address"
        },
        {
          "indexed": true,
          "internalType": "address",
          "name": "newAddress",
          "type": "address"
        }
      ],
      "name": "SetDevAddress",
      "type": "event"
    },
    {
      "anonymous": false,
      "inputs": [
        {
          "indexed": true,
          "internalType": "address",
          "name": "user",
          "type": "address"
        },
        {
          "indexed": true,
          "internalType": "address",
          "name": "newAddress",
          "type": "address"
        }
      ],
      "name": "SetFeeAddress",
      "type": "event"
    },
    {
      "anonymous": false,
      "inputs": [
        {
          "indexed": true,
          "internalType": "address",
          "name": "user",
          "type": "address"
        },
        {
          "indexed": false,
          "internalType": "uint256",
          "name": "goosePerBlock",
          "type": "uint256"
        }
      ],
      "name": "UpdateEmissionRate",
      "type": "event"
    },
    {
      "anonymous": false,
      "inputs": [
        {
          "indexed": true,
          "internalType": "address",
          "name": "user",
          "type": "address"
        },
        {
          "indexed": true,
          "internalType": "uint256",
          "name": "pid",
          "type": "uint256"
        },
        {
          "indexed": false,
          "internalType": "uint256",
          "name": "amount",
          "type": "uint256"
        }
      ],
      "name": "Withdraw",
      "type": "event"
    },
    {
      "inputs": [],
      "name": "BONUS_MULTIPLIER",
      "outputs": [
        {
          "internalType": "uint256",
          "name": "",
          "type": "uint256"
        }
      ],
      "stateMutability": "view",
      "type": "function"
    },
    {
      "inputs": [
        {
          "internalType": "uint256",
          "name": "_allocPoint",
          "type": "uint256"
        },
        {
          "internalType": "contract IBEP20",
          "name": "_lpToken",
          "type": "address"
        },
        {
          "internalType": "uint16",
          "name": "_depositFeeBP",
          "type": "uint16"
        },
        {
          "internalType": "bool",
          "name": "_withUpdate",
          "type": "bool"
        }
      ],
      "name": "add",
      "outputs": [],
      "stateMutability": "nonpayable",
      "type": "function"
    },
    {
      "inputs": [
        {
          "internalType": "uint256",
          "name": "_pid",
          "type": "uint256"
        },
        {
          "internalType": "uint256",
          "name": "_amount",
          "type": "uint256"
        }
      ],
      "name": "deposit",
      "outputs": [],
      "stateMutability": "nonpayable",
      "type": "function"
    },
    {
      "inputs": [
        {
          "internalType": "address",
          "name": "_devaddr",
          "type": "address"
        }
      ],
      "name": "dev",
      "outputs": [],
      "stateMutability": "nonpayable",
      "type": "function"
    },
    {
      "inputs": [],
      "name": "devaddr",
      "outputs": [
        {
          "internalType": "address",
          "name": "",
          "type": "address"
        }
      ],
      "stateMutability": "view",
      "type": "function"
    },
    {
      "inputs": [],
      "name": "egg",
      "outputs": [
        {
          "internalType": "contract EggToken",
          "name": "",
          "type": "address"
        }
      ],
      "stateMutability": "view",
      "type": "function"
    },
    {
      "inputs": [],
      "name": "eggPerBlock",
      "outputs": [
        {
          "internalType": "uint256",
          "name": "",
          "type": "uint256"
        }
      ],
      "stateMutability": "view",
      "type": "function"
    },
    {
      "inputs": [
        {
          "internalType": "uint256",
          "name": "_pid",
          "type": "uint256"
        }
      ],
      "name": "emergencyWithdraw",
      "outputs": [],
      "stateMutability": "nonpayable",
      "type": "function"
    },
    {
      "inputs": [],
      "name": "feeAddress",
      "outputs": [
        {
          "internalType": "address",
          "name": "",
          "type": "address"
        }
      ],
      "stateMutability": "view",
      "type": "function"
    },
    {
      "inputs": [
        {
          "internalType": "uint256",
          "name": "_from",
          "type": "uint256"
        },
        {
          "internalType": "uint256",
          "name": "_to",
          "type": "uint256"
        }
      ],
      "name": "getMultiplier",
      "outputs": [
        {
          "internalType": "uint256",
          "name": "",
          "type": "uint256"
        }
      ],
      "stateMutability": "view",
      "type": "function"
    },
    {
      "inputs": [],
      "name": "massUpdatePools",
      "outputs": [],
      "stateMutability": "nonpayable",
      "type": "function"
    },
    {
      "inputs": [],
      "name": "owner",
      "outputs": [
        {
          "internalType": "address",
          "name": "",
          "type": "address"
        }
      ],
      "stateMutability": "view",
      "type": "function"
    },
    {
      "inputs": [
        {
          "internalType": "uint256",
          "name": "_pid",
          "type": "uint256"
        },
        {
          "internalType": "address",
          "name": "_user",
          "type": "address"
        }
      ],
      "name": "pendingEgg",
      "outputs": [
        {
          "internalType": "uint256",
          "name": "",
          "type": "uint256"
        }
      ],
      "stateMutability": "view",
      "type": "function"
    },
    {
      "inputs": [
        {
          "internalType": "contract IBEP20",
          "name": "",
          "type": "address"
        }
      ],
      "name": "poolExistence",
      "outputs": [
        {
          "internalType": "bool",
          "name": "",
          "type": "bool"
        }
      ],
      "stateMutability": "view",
      "type": "function"
    },
    {
      "inputs": [
        {
          "internalType": "uint256",
          "name": "",
          "type": "uint256"
        }
      ],
      "name": "poolInfo",
      "outputs": [
        {
          "internalType": "contract IBEP20",
          "name": "lpToken",
          "type": "address"
        },
        {
          "internalType": "uint256",
          "name": "allocPoint",
          "type": "uint256"
        },
        {
          "internalType": "uint256",
          "name": "lastRewardBlock",
          "type": "uint256"
        },
        {
          "internalType": "uint256",
          "name": "accEggPerShare",
          "type": "uint256"
        },
        {
          "internalType": "uint16",
          "name": "depositFeeBP",
          "type": "uint16"
        }
      ],
      "stateMutability": "view",
      "type": "function"
    },
    {
      "inputs": [],
      "name": "poolLength",
      "outputs": [
        {
          "internalType": "uint256",
          "name": "",
          "type": "uint256"
        }
      ],
      "stateMutability": "view",
      "type": "function"
    },
    {
      "inputs": [],
      "name": "renounceOwnership",
      "outputs": [],
      "stateMutability": "nonpayable",
      "type": "function"
    },
    {
      "inputs": [
        {
          "internalType": "uint256",
          "name": "_pid",
          "type": "uint256"
        },
        {
          "internalType": "uint256",
          "name": "_allocPoint",
          "type": "uint256"
        },
        {
          "internalType": "uint16",
          "name": "_depositFeeBP",
          "type": "uint16"
        },
        {
          "internalType": "bool",
          "name": "_withUpdate",
          "type": "bool"
        }
      ],
      "name": "set",
      "outputs": [],
      "stateMutability": "nonpayable",
      "type": "function"
    },
    {
      "inputs": [
        {
          "internalType": "address",
          "name": "_feeAddress",
          "type": "address"
        }
      ],
      "name": "setFeeAddress",
      "outputs": [],
      "stateMutability": "nonpayable",
      "type": "function"
    },
    {
      "inputs": [],
      "name": "startBlock",
      "outputs": [
        {
          "internalType": "uint256",
          "name": "",
          "type": "uint256"
        }
      ],
      "stateMutability": "view",
      "type": "function"
    },
    {
      "inputs": [],
      "name": "totalAllocPoint",
      "outputs": [
        {
          "internalType": "uint256",
          "name": "",
          "type": "uint256"
        }
      ],
      "stateMutability": "view",
      "type": "function"
    },
    {
      "inputs": [
        {
          "internalType": "address",
          "name": "newOwner",
          "type": "address"
        }
      ],
      "name": "transferOwnership",
      "outputs": [],
      "stateMutability": "nonpayable",
      "type": "function"
    },
    {
      "inputs": [
        {
          "internalType": "uint256",
          "name": "_eggPerBlock",
          "type": "uint256"
        }
      ],
      "name": "updateEmissionRate",
      "outputs": [],
      "stateMutability": "nonpayable",
      "type": "function"
    },
    {
      "inputs": [
        {
          "internalType": "uint256",
          "name": "_pid",
          "type": "uint256"
        }
      ],
      "name": "updatePool",
      "outputs": [],
      "stateMutability": "nonpayable",
      "type": "function"
    },
    {
      "inputs": [
        {
          "internalType": "uint256",
          "name": "",
          "type": "uint256"
        },
        {
          "internalType": "address",
          "name": "",
          "type": "address"
        }
      ],
      "name": "userInfo",
      "outputs": [
        {
          "internalType": "uint256",
          "name": "amount",
          "type": "uint256"
        },
        {
          "internalType": "uint256",
          "name": "rewardDebt",
          "type": "uint256"
        }
      ],
      "stateMutability": "view",
      "type": "function"
    },
    {
      "inputs": [
        {
          "internalType": "uint256",
          "name": "_pid",
          "type": "uint256"
        },
        {
          "internalType": "uint256",
          "name": "_amount",
          "type": "uint256"
        }
      ],
      "name": "withdraw",
      "outputs": [],
      "stateMutability": "nonpayable",
      "type": "function"
    }
  ],
  "bytecode": "0x608060405260006008553480156200001657600080fd5b50604051620036313803806200363183398181016040528101906200003c919062000250565b6200005c620000506200013f60201b60201c565b6200014760201b60201c565b6001808190555084600260006101000a81548173ffffffffffffffffffffffffffffffffffffffff021916908373ffffffffffffffffffffffffffffffffffffffff16021790555083600360006101000a81548173ffffffffffffffffffffffffffffffffffffffff021916908373ffffffffffffffffffffffffffffffffffffffff16021790555082600560006101000a81548173ffffffffffffffffffffffffffffffffffffffff021916908373ffffffffffffffffffffffffffffffffffffffff160217905550816004819055508060098190555050505050506200037d565b600033905090565b60008060009054906101000a900473ffffffffffffffffffffffffffffffffffffffff169050816000806101000a81548173ffffffffffffffffffffffffffffffffffffffff021916908373ffffffffffffffffffffffffffffffffffffffff1602179055508173ffffffffffffffffffffffffffffffffffffffff168173ffffffffffffffffffffffffffffffffffffffff167f8be0079c531659141344cd1fd0a4f28419497f9722a3daafe3b4186f6b6457e060405160405180910390a35050565b6000815190506200021c816200032f565b92915050565b600081519050620002338162000349565b92915050565b6000815190506200024a8162000363565b92915050565b600080600080600060a086880312156200026f576200026e6200032a565b5b60006200027f8882890162000222565b955050602062000292888289016200020b565b9450506040620002a5888289016200020b565b9350506060620002b88882890162000239565b9250506080620002cb8882890162000239565b9150509295509295909350565b6000620002e58262000300565b9050919050565b6000620002f982620002d8565b9050919050565b600073ffffffffffffffffffffffffffffffffffffffff82169050919050565b6000819050919050565b600080fd5b6200033a81620002d8565b81146200034657600080fd5b50565b6200035481620002ec565b81146200036057600080fd5b50565b6200036e8162000320565b81146200037a57600080fd5b50565b6132a4806200038d6000396000f3fe608060405234801561001057600080fd5b506004361061018e5760003560e01c80638aa28550116100de578063c06abfc711610097578063d963842211610071578063d96384221461043e578063e2bbb1581461045a578063f2fde38b14610476578063f456426f146104925761018e565b8063c06abfc7146103d2578063cbd258b5146103f0578063d49e77cd146104205761018e565b80638aa28550146102fb5780638d88a90e146103195780638da5cb5b146103355780638dbb1e3a1461035357806393f1a40b14610383578063a1a4d4a4146103b45761018e565b806348cd4cb11161014b578063630b5ba111610125578063630b5ba1146102af578063715018a6146102b957806384e82a33146102c35780638705fcd4146102df5761018e565b806348cd4cb11461025957806351eb05a6146102775780635312ea8e146102935761018e565b8063081e3eda146101935780630ba84cd2146101b15780631526fe27146101cd57806317caf6f114610201578063412753581461021f578063441a3e701461023d575b600080fd5b61019b6104c2565b6040516101a89190612bce565b60405180910390f35b6101cb60048036038101906101c691906124be565b6104cf565b005b6101e760048036038101906101e291906124be565b6105ab565b6040516101f89594939291906129b9565b60405180910390f35b61020961061f565b6040516102169190612bce565b60405180910390f35b610227610625565b6040516102349190612908565b60405180910390f35b610257600480360381019061025291906125bf565b61064b565b005b6102616108d2565b60405161026e9190612bce565b60405180910390f35b610291600480360381019061028c91906124be565b6108d8565b005b6102ad60048036038101906102a891906124be565b610be9565b005b6102b7610d79565b005b6102c1610dac565b005b6102dd60048036038101906102d89190612558565b610e34565b005b6102f960048036038101906102f49190612437565b611125565b005b610303611253565b6040516103109190612bce565b60405180910390f35b610333600480360381019061032e9190612437565b611258565b005b61033d611386565b60405161034a9190612908565b60405180910390f35b61036d600480360381019061036891906125bf565b6113af565b60405161037a9190612bce565b60405180910390f35b61039d60048036038101906103989190612518565b6113df565b6040516103ab929190612be9565b60405180910390f35b6103bc611410565b6040516103c99190612bce565b60405180910390f35b6103da611416565b6040516103e7919061299e565b60405180910390f35b61040a60048036038101906104059190612491565b61143c565b6040516104179190612983565b60405180910390f35b61042861145c565b6040516104359190612908565b60405180910390f35b610458600480360381019061045391906125ff565b611482565b005b610474600480360381019061046f91906125bf565b611618565b005b610490600480360381019061048b9190612437565b611971565b005b6104ac60048036038101906104a79190612518565b611a69565b6040516104b99190612bce565b60405180910390f35b6000600680549050905090565b6104d7611c9d565b73ffffffffffffffffffffffffffffffffffffffff166104f5611386565b73ffffffffffffffffffffffffffffffffffffffff161461054b576040517f08c379a000000000000000000000000000000000000000000000000000000000815260040161054290612b0e565b60405180910390fd5b610553610d79565b806004819055503373ffffffffffffffffffffffffffffffffffffffff167fe2492e003bbe8afa53088b406f0c1cb5d9e280370fc72a74cf116ffd343c4053826040516105a09190612bce565b60405180910390a250565b600681815481106105bb57600080fd5b90600052602060002090600502016000915090508060000160009054906101000a900473ffffffffffffffffffffffffffffffffffffffff16908060010154908060020154908060030154908060040160009054906101000a900461ffff16905085565b60085481565b600560009054906101000a900473ffffffffffffffffffffffffffffffffffffffff1681565b60026001541415610691576040517f08c379a000000000000000000000000000000000000000000000000000000000815260040161068890612bae565b60405180910390fd5b60026001819055506000600683815481106106af576106ae612ee3565b5b9060005260206000209060050201905060006007600085815260200190815260200160002060003373ffffffffffffffffffffffffffffffffffffffff1673ffffffffffffffffffffffffffffffffffffffff1681526020019081526020016000209050828160000154101561075a576040517f08c379a000000000000000000000000000000000000000000000000000000000815260040161075190612b4e565b60405180910390fd5b610763846108d8565b60006107ad826001015461079f64e8d4a5100061079187600301548760000154611ca590919063ffffffff16565b611cbb90919063ffffffff16565b611cd190919063ffffffff16565b905060008111156107c3576107c23382611ce7565b5b600084111561083b576107e3848360000154611cd190919063ffffffff16565b826000018190555061083a33858560000160009054906101000a900473ffffffffffffffffffffffffffffffffffffffff1673ffffffffffffffffffffffffffffffffffffffff16611f4e9092919063ffffffff16565b5b61086d64e8d4a5100061085f85600301548560000154611ca590919063ffffffff16565b611cbb90919063ffffffff16565b8260010181905550843373ffffffffffffffffffffffffffffffffffffffff167ff279e6a1f5e320cca91135676d9cb6e44ca8a08c0b88342bcdb1144f6511b568866040516108bc9190612bce565b60405180910390a3505050600180819055505050565b60095481565b6000600682815481106108ee576108ed612ee3565b5b906000526020600020906005020190508060020154431161090f5750610be6565b60008160000160009054906101000a900473ffffffffffffffffffffffffffffffffffffffff1673ffffffffffffffffffffffffffffffffffffffff166370a08231306040518263ffffffff1660e01b815260040161096e9190612908565b60206040518083038186803b15801561098657600080fd5b505afa15801561099a573d6000803e3d6000fd5b505050506040513d601f19601f820116820180604052508101906109be91906124eb565b905060008114806109d3575060008260010154145b156109e8574382600201819055505050610be6565b60006109f88360020154436113af565b90506000610a3b600854610a2d8660010154610a1f60045487611ca590919063ffffffff16565b611ca590919063ffffffff16565b611cbb90919063ffffffff16565b9050600260009054906101000a900473ffffffffffffffffffffffffffffffffffffffff1673ffffffffffffffffffffffffffffffffffffffff166340c10f19600360009054906101000a900473ffffffffffffffffffffffffffffffffffffffff16610ab2600a85611cbb90919063ffffffff16565b6040518363ffffffff1660e01b8152600401610acf92919061295a565b600060405180830381600087803b158015610ae957600080fd5b505af1158015610afd573d6000803e3d6000fd5b50505050600260009054906101000a900473ffffffffffffffffffffffffffffffffffffffff1673ffffffffffffffffffffffffffffffffffffffff166340c10f1930836040518363ffffffff1660e01b8152600401610b5e92919061295a565b600060405180830381600087803b158015610b7857600080fd5b505af1158015610b8c573d6000803e3d6000fd5b50505050610bd0610bbd84610baf64e8d4a5100085611ca590919063ffffffff16565b611cbb90919063ffffffff16565b8560030154611fd490919063ffffffff16565b8460030181905550438460020181905550505050505b50565b60026001541415610c2f576040517f08c379a0000000000000000000000000000000000000000000000000000000008152600401610c2690612bae565b60405180910390fd5b6002600181905550600060068281548110610c4d57610c4c612ee3565b5b9060005260206000209060050201905060006007600084815260200190815260200160002060003373ffffffffffffffffffffffffffffffffffffffff1673ffffffffffffffffffffffffffffffffffffffff16815260200190815260200160002090506000816000015490506000826000018190555060008260010181905550610d1d33828560000160009054906101000a900473ffffffffffffffffffffffffffffffffffffffff1673ffffffffffffffffffffffffffffffffffffffff16611f4e9092919063ffffffff16565b833373ffffffffffffffffffffffffffffffffffffffff167fbb757047c2b5f3974fe26b7c10f732e7bce710b0952a71082702781e62ae059583604051610d649190612bce565b60405180910390a35050506001808190555050565b6000600680549050905060005b81811015610da857610d97816108d8565b80610da190612e3c565b9050610d86565b5050565b610db4611c9d565b73ffffffffffffffffffffffffffffffffffffffff16610dd2611386565b73ffffffffffffffffffffffffffffffffffffffff1614610e28576040517f08c379a0000000000000000000000000000000000000000000000000000000008152600401610e1f90612b0e565b60405180910390fd5b610e326000611fea565b565b610e3c611c9d565b73ffffffffffffffffffffffffffffffffffffffff16610e5a611386565b73ffffffffffffffffffffffffffffffffffffffff1614610eb0576040517f08c379a0000000000000000000000000000000000000000000000000000000008152600401610ea790612b0e565b60405180910390fd5b8260001515600a60008373ffffffffffffffffffffffffffffffffffffffff1673ffffffffffffffffffffffffffffffffffffffff16815260200190815260200160002060009054906101000a900460ff16151514610f44576040517f08c379a0000000000000000000000000000000000000000000000000000000008152600401610f3b90612b6e565b60405180910390fd5b6127108361ffff161115610f8d576040517f08c379a0000000000000000000000000000000000000000000000000000000008152600401610f8490612a2e565b60405180910390fd5b8115610f9c57610f9b610d79565b5b60006009544311610faf57600954610fb1565b435b9050610fc886600854611fd490919063ffffffff16565b6008819055506001600a60008773ffffffffffffffffffffffffffffffffffffffff1673ffffffffffffffffffffffffffffffffffffffff16815260200190815260200160002060006101000a81548160ff02191690831515021790555060066040518060a001604052808773ffffffffffffffffffffffffffffffffffffffff168152602001888152602001838152602001600081526020018661ffff16815250908060018154018082558091505060019003906000526020600020906005020160009091909190915060008201518160000160006101000a81548173ffffffffffffffffffffffffffffffffffffffff021916908373ffffffffffffffffffffffffffffffffffffffff16021790555060208201518160010155604082015181600201556060820151816003015560808201518160040160006101000a81548161ffff021916908361ffff1602179055505050505050505050565b600560009054906101000a900473ffffffffffffffffffffffffffffffffffffffff1673ffffffffffffffffffffffffffffffffffffffff163373ffffffffffffffffffffffffffffffffffffffff16146111b5576040517f08c379a00000000000000000000000000000000000000000000000000000000081526004016111ac90612b8e565b60405180910390fd5b80600560006101000a81548173ffffffffffffffffffffffffffffffffffffffff021916908373ffffffffffffffffffffffffffffffffffffffff1602179055508073ffffffffffffffffffffffffffffffffffffffff163373ffffffffffffffffffffffffffffffffffffffff167fd44190acf9d04bdb5d3a1aafff7e6dee8b40b93dfb8c5d3f0eea4b9f4539c3f760405160405180910390a350565b600181565b600360009054906101000a900473ffffffffffffffffffffffffffffffffffffffff1673ffffffffffffffffffffffffffffffffffffffff163373ffffffffffffffffffffffffffffffffffffffff16146112e8576040517f08c379a00000000000000000000000000000000000000000000000000000000081526004016112df90612ace565b60405180910390fd5b80600360006101000a81548173ffffffffffffffffffffffffffffffffffffffff021916908373ffffffffffffffffffffffffffffffffffffffff1602179055508073ffffffffffffffffffffffffffffffffffffffff163373ffffffffffffffffffffffffffffffffffffffff167f618c54559e94f1499a808aad71ee8729f8e74e8c48e979616328ce493a1a52e760405160405180910390a350565b60008060009054906101000a900473ffffffffffffffffffffffffffffffffffffffff16905090565b60006113d760016113c98585611cd190919063ffffffff16565b611ca590919063ffffffff16565b905092915050565b6007602052816000526040600020602052806000526040600020600091509150508060000154908060010154905082565b60045481565b600260009054906101000a900473ffffffffffffffffffffffffffffffffffffffff1681565b600a6020528060005260406000206000915054906101000a900460ff1681565b600360009054906101000a900473ffffffffffffffffffffffffffffffffffffffff1681565b61148a611c9d565b73ffffffffffffffffffffffffffffffffffffffff166114a8611386565b73ffffffffffffffffffffffffffffffffffffffff16146114fe576040517f08c379a00000000000000000000000000000000000000000000000000000000081526004016114f590612b0e565b60405180910390fd5b6127108261ffff161115611547576040517f08c379a000000000000000000000000000000000000000000000000000000000815260040161153e90612aee565b60405180910390fd5b801561155657611555610d79565b5b6115a2836115946006878154811061157157611570612ee3565b5b906000526020600020906005020160010154600854611cd190919063ffffffff16565b611fd490919063ffffffff16565b60088190555082600685815481106115bd576115bc612ee3565b5b90600052602060002090600502016001018190555081600685815481106115e7576115e6612ee3565b5b906000526020600020906005020160040160006101000a81548161ffff021916908361ffff16021790555050505050565b6002600154141561165e576040517f08c379a000000000000000000000000000000000000000000000000000000000815260040161165590612bae565b60405180910390fd5b600260018190555060006006838154811061167c5761167b612ee3565b5b9060005260206000209060050201905060006007600085815260200190815260200160002060003373ffffffffffffffffffffffffffffffffffffffff1673ffffffffffffffffffffffffffffffffffffffff16815260200190815260200160002090506116e9846108d8565b600081600001541115611758576000611740826001015461173264e8d4a5100061172487600301548760000154611ca590919063ffffffff16565b611cbb90919063ffffffff16565b611cd190919063ffffffff16565b90506000811115611756576117553382611ce7565b5b505b60008311156118db576117b23330858560000160009054906101000a900473ffffffffffffffffffffffffffffffffffffffff1673ffffffffffffffffffffffffffffffffffffffff166120ae909392919063ffffffff16565b60008260040160009054906101000a900461ffff1661ffff1611156118ba5760006118106127106118028560040160009054906101000a900461ffff1661ffff1687611ca590919063ffffffff16565b611cbb90919063ffffffff16565b9050611883600560009054906101000a900473ffffffffffffffffffffffffffffffffffffffff16828560000160009054906101000a900473ffffffffffffffffffffffffffffffffffffffff1673ffffffffffffffffffffffffffffffffffffffff16611f4e9092919063ffffffff16565b6118ac8161189e868560000154611fd490919063ffffffff16565b611cd190919063ffffffff16565b8260000181905550506118da565b6118d1838260000154611fd490919063ffffffff16565b81600001819055505b5b61190d64e8d4a510006118ff84600301548460000154611ca590919063ffffffff16565b611cbb90919063ffffffff16565b8160010181905550833373ffffffffffffffffffffffffffffffffffffffff167f90890809c654f11d6e72a28fa60149770a0d11ec6c92319d6ceb2bb0a4ea1a158560405161195c9190612bce565b60405180910390a35050600180819055505050565b611979611c9d565b73ffffffffffffffffffffffffffffffffffffffff16611997611386565b73ffffffffffffffffffffffffffffffffffffffff16146119ed576040517f08c379a00000000000000000000000000000000000000000000000000000000081526004016119e490612b0e565b60405180910390fd5b600073ffffffffffffffffffffffffffffffffffffffff168173ffffffffffffffffffffffffffffffffffffffff161415611a5d576040517f08c379a0000000000000000000000000000000000000000000000000000000008152600401611a5490612a6e565b60405180910390fd5b611a6681611fea565b50565b60008060068481548110611a8057611a7f612ee3565b5b9060005260206000209060050201905060006007600086815260200190815260200160002060008573ffffffffffffffffffffffffffffffffffffffff1673ffffffffffffffffffffffffffffffffffffffff168152602001908152602001600020905060008260030154905060008360000160009054906101000a900473ffffffffffffffffffffffffffffffffffffffff1673ffffffffffffffffffffffffffffffffffffffff166370a08231306040518263ffffffff1660e01b8152600401611b4c9190612908565b60206040518083038186803b158015611b6457600080fd5b505afa158015611b78573d6000803e3d6000fd5b505050506040513d601f19601f82011682018060405250810190611b9c91906124eb565b9050836002015443118015611bb2575060008114155b15611c4d576000611bc78560020154436113af565b90506000611c0a600854611bfc8860010154611bee60045487611ca590919063ffffffff16565b611ca590919063ffffffff16565b611cbb90919063ffffffff16565b9050611c48611c3984611c2b64e8d4a5100085611ca590919063ffffffff16565b611cbb90919063ffffffff16565b85611fd490919063ffffffff16565b935050505b611c918360010154611c8364e8d4a51000611c75868860000154611ca590919063ffffffff16565b611cbb90919063ffffffff16565b611cd190919063ffffffff16565b94505050505092915050565b600033905090565b60008183611cb39190612ccb565b905092915050565b60008183611cc99190612c9a565b905092915050565b60008183611cdf9190612d25565b905092915050565b6000600260009054906101000a900473ffffffffffffffffffffffffffffffffffffffff1673ffffffffffffffffffffffffffffffffffffffff166370a08231306040518263ffffffff1660e01b8152600401611d449190612908565b60206040518083038186803b158015611d5c57600080fd5b505afa158015611d70573d6000803e3d6000fd5b505050506040513d601f19601f82011682018060405250810190611d9491906124eb565b9050600081831115611e5657600260009054906101000a900473ffffffffffffffffffffffffffffffffffffffff1673ffffffffffffffffffffffffffffffffffffffff1663a9059cbb85846040518363ffffffff1660e01b8152600401611dfd92919061295a565b602060405180830381600087803b158015611e1757600080fd5b505af1158015611e2b573d6000803e3d6000fd5b505050506040513d601f19601f82011682018060405250810190611e4f9190612464565b9050611f08565b600260009054906101000a900473ffffffffffffffffffffffffffffffffffffffff1673ffffffffffffffffffffffffffffffffffffffff1663a9059cbb85856040518363ffffffff1660e01b8152600401611eb392919061295a565b602060405180830381600087803b158015611ecd57600080fd5b505af1158015611ee1573d6000803e3d6000fd5b505050506040513d601f19601f82011682018060405250810190611f059190612464565b90505b80611f48576040517f08c379a0000000000000000000000000000000000000000000000000000000008152600401611f3f90612aae565b60405180910390fd5b50505050565b611fcf8363a9059cbb60e01b8484604051602401611f6d92919061295a565b604051602081830303815290604052907bffffffffffffffffffffffffffffffffffffffffffffffffffffffff19166020820180517bffffffffffffffffffffffffffffffffffffffffffffffffffffffff8381831617835250505050612137565b505050565b60008183611fe29190612c44565b905092915050565b60008060009054906101000a900473ffffffffffffffffffffffffffffffffffffffff169050816000806101000a81548173ffffffffffffffffffffffffffffffffffffffff021916908373ffffffffffffffffffffffffffffffffffffffff1602179055508173ffffffffffffffffffffffffffffffffffffffff168173ffffffffffffffffffffffffffffffffffffffff167f8be0079c531659141344cd1fd0a4f28419497f9722a3daafe3b4186f6b6457e060405160405180910390a35050565b612131846323b872dd60e01b8585856040516024016120cf93929190612923565b604051602081830303815290604052907bffffffffffffffffffffffffffffffffffffffffffffffffffffffff19166020820180517bffffffffffffffffffffffffffffffffffffffffffffffffffffffff8381831617835250505050612137565b50505050565b6000612199826040518060400160405280602081526020017f5361666542455032303a206c6f772d6c6576656c2063616c6c206661696c65648152508573ffffffffffffffffffffffffffffffffffffffff166121fe9092919063ffffffff16565b90506000815111156121f957808060200190518101906121b99190612464565b6121f8576040517f08c379a00000000000000000000000000000000000000000000000000000000081526004016121ef90612a4e565b60405180910390fd5b5b505050565b606061220d8484600085612216565b90509392505050565b60608247101561225b576040517f08c379a000000000000000000000000000000000000000000000000000000000815260040161225290612a8e565b60405180910390fd5b6122648561232a565b6122a3576040517f08c379a000000000000000000000000000000000000000000000000000000000815260040161229a90612b2e565b60405180910390fd5b6000808673ffffffffffffffffffffffffffffffffffffffff1685876040516122cc91906128f1565b60006040518083038185875af1925050503d8060008114612309576040519150601f19603f3d011682016040523d82523d6000602084013e61230e565b606091505b509150915061231e82828661233d565b92505050949350505050565b600080823b905060008111915050919050565b6060831561234d5782905061239d565b6000835111156123605782518084602001fd5b816040517f08c379a00000000000000000000000000000000000000000000000000000000081526004016123949190612a0c565b60405180910390fd5b9392505050565b6000813590506123b3816131fb565b92915050565b6000813590506123c881613212565b92915050565b6000815190506123dd81613212565b92915050565b6000813590506123f281613229565b92915050565b60008135905061240781613240565b92915050565b60008135905061241c81613257565b92915050565b60008151905061243181613257565b92915050565b60006020828403121561244d5761244c612f12565b5b600061245b848285016123a4565b91505092915050565b60006020828403121561247a57612479612f12565b5b6000612488848285016123ce565b91505092915050565b6000602082840312156124a7576124a6612f12565b5b60006124b5848285016123e3565b91505092915050565b6000602082840312156124d4576124d3612f12565b5b60006124e28482850161240d565b91505092915050565b60006020828403121561250157612500612f12565b5b600061250f84828501612422565b91505092915050565b6000806040838503121561252f5761252e612f12565b5b600061253d8582860161240d565b925050602061254e858286016123a4565b9150509250929050565b6000806000806080858703121561257257612571612f12565b5b60006125808782880161240d565b9450506020612591878288016123e3565b93505060406125a2878288016123f8565b92505060606125b3878288016123b9565b91505092959194509250565b600080604083850312156125d6576125d5612f12565b5b60006125e48582860161240d565b92505060206125f58582860161240d565b9150509250929050565b6000806000806080858703121561261957612618612f12565b5b60006126278782880161240d565b94505060206126388782880161240d565b9350506040612649878288016123f8565b925050606061265a878288016123b9565b91505092959194509250565b61266f81612d59565b82525050565b61267e81612d6b565b82525050565b600061268f82612c12565b6126998185612c28565b93506126a9818560208601612e09565b80840191505092915050565b6126be81612dc1565b82525050565b6126cd81612de5565b82525050565b60006126de82612c1d565b6126e88185612c33565b93506126f8818560208601612e09565b61270181612f17565b840191505092915050565b6000612719602583612c33565b915061272482612f28565b604082019050919050565b600061273c602a83612c33565b915061274782612f77565b604082019050919050565b600061275f602683612c33565b915061276a82612fc6565b604082019050919050565b6000612782602683612c33565b915061278d82613015565b604082019050919050565b60006127a5602083612c33565b91506127b082613064565b602082019050919050565b60006127c8600983612c33565b91506127d38261308d565b602082019050919050565b60006127eb602583612c33565b91506127f6826130b6565b604082019050919050565b600061280e602083612c33565b915061281982613105565b602082019050919050565b6000612831601d83612c33565b915061283c8261312e565b602082019050919050565b6000612854601283612c33565b915061285f82613157565b602082019050919050565b6000612877601983612c33565b915061288282613180565b602082019050919050565b600061289a601883612c33565b91506128a5826131a9565b602082019050919050565b60006128bd601f83612c33565b91506128c8826131d2565b602082019050919050565b6128dc81612d89565b82525050565b6128eb81612db7565b82525050565b60006128fd8284612684565b915081905092915050565b600060208201905061291d6000830184612666565b92915050565b60006060820190506129386000830186612666565b6129456020830185612666565b61295260408301846128e2565b949350505050565b600060408201905061296f6000830185612666565b61297c60208301846128e2565b9392505050565b60006020820190506129986000830184612675565b92915050565b60006020820190506129b360008301846126b5565b92915050565b600060a0820190506129ce60008301886126c4565b6129db60208301876128e2565b6129e860408301866128e2565b6129f560608301856128e2565b612a0260808301846128d3565b9695505050505050565b60006020820190508181036000830152612a2681846126d3565b905092915050565b60006020820190508181036000830152612a478161270c565b9050919050565b60006020820190508181036000830152612a678161272f565b9050919050565b60006020820190508181036000830152612a8781612752565b9050919050565b60006020820190508181036000830152612aa781612775565b9050919050565b60006020820190508181036000830152612ac781612798565b9050919050565b60006020820190508181036000830152612ae7816127bb565b9050919050565b60006020820190508181036000830152612b07816127de565b9050919050565b60006020820190508181036000830152612b2781612801565b9050919050565b60006020820190508181036000830152612b4781612824565b9050919050565b60006020820190508181036000830152612b6781612847565b9050919050565b60006020820190508181036000830152612b878161286a565b9050919050565b60006020820190508181036000830152612ba78161288d565b9050919050565b60006020820190508181036000830152612bc7816128b0565b9050919050565b6000602082019050612be360008301846128e2565b92915050565b6000604082019050612bfe60008301856128e2565b612c0b60208301846128e2565b9392505050565b600081519050919050565b600081519050919050565b600081905092915050565b600082825260208201905092915050565b6000612c4f82612db7565b9150612c5a83612db7565b9250827fffffffffffffffffffffffffffffffffffffffffffffffffffffffffffffffff03821115612c8f57612c8e612e85565b5b828201905092915050565b6000612ca582612db7565b9150612cb083612db7565b925082612cc057612cbf612eb4565b5b828204905092915050565b6000612cd682612db7565b9150612ce183612db7565b9250817fffffffffffffffffffffffffffffffffffffffffffffffffffffffffffffffff0483118215151615612d1a57612d19612e85565b5b828202905092915050565b6000612d3082612db7565b9150612d3b83612db7565b925082821015612d4e57612d4d612e85565b5b828203905092915050565b6000612d6482612d97565b9050919050565b60008115159050919050565b6000612d8282612d59565b9050919050565b600061ffff82169050919050565b600073ffffffffffffffffffffffffffffffffffffffff82169050919050565b6000819050919050565b6000612dcc82612dd3565b9050919050565b6000612dde82612d97565b9050919050565b6000612df082612df7565b9050919050565b6000612e0282612d97565b9050919050565b60005b83811015612e27578082015181840152602081019050612e0c565b83811115612e36576000848401525b50505050565b6000612e4782612db7565b91507fffffffffffffffffffffffffffffffffffffffffffffffffffffffffffffffff821415612e7a57612e79612e85565b5b600182019050919050565b7f4e487b7100000000000000000000000000000000000000000000000000000000600052601160045260246000fd5b7f4e487b7100000000000000000000000000000000000000000000000000000000600052601260045260246000fd5b7f4e487b7100000000000000000000000000000000000000000000000000000000600052603260045260246000fd5b600080fd5b6000601f19601f8301169050919050565b7f6164643a20696e76616c6964206465706f73697420666565206261736973207060008201527f6f696e7473000000000000000000000000000000000000000000000000000000602082015250565b7f5361666542455032303a204245503230206f7065726174696f6e20646964206e60008201527f6f74207375636365656400000000000000000000000000000000000000000000602082015250565b7f4f776e61626c653a206e6577206f776e657220697320746865207a65726f206160008201527f6464726573730000000000000000000000000000000000000000000000000000602082015250565b7f416464726573733a20696e73756666696369656e742062616c616e636520666f60008201527f722063616c6c0000000000000000000000000000000000000000000000000000602082015250565b7f736166654567675472616e736665723a207472616e73666572206661696c6564600082015250565b7f6465763a207775743f0000000000000000000000000000000000000000000000600082015250565b7f7365743a20696e76616c6964206465706f73697420666565206261736973207060008201527f6f696e7473000000000000000000000000000000000000000000000000000000602082015250565b7f4f776e61626c653a2063616c6c6572206973206e6f7420746865206f776e6572600082015250565b7f416464726573733a2063616c6c20746f206e6f6e2d636f6e7472616374000000600082015250565b7f77697468647261773a206e6f7420676f6f640000000000000000000000000000600082015250565b7f6e6f6e4475706c6963617465643a206475706c69636174656400000000000000600082015250565b7f736574466565416464726573733a20464f5242494444454e0000000000000000600082015250565b7f5265656e7472616e637947756172643a207265656e7472616e742063616c6c00600082015250565b61320481612d59565b811461320f57600080fd5b50565b61321b81612d6b565b811461322657600080fd5b50565b61323281612d77565b811461323d57600080fd5b50565b61324981612d89565b811461325457600080fd5b50565b61326081612db7565b811461326b57600080fd5b5056fea26469706673582212204bf8fcaf5c302af870b24c230524c5bdab77848ea2b02799c251035a02072a4d64736f6c63430008060033",
  "linkReferences": {},
  "deployedLinkReferences": {}
}