{
  "_format": "hh-sol-artifact-1",
  "contractName": "MasterChef",
  "sourceName": "contracts/MasterChef.sol",
  "abi": [
    {
      "inputs": [
        {
          "internalType": "contract EggToken",
          "name": "_egg",
          "type": "address"
        },
        {
          "internalType": "address",
          "name": "_devaddr",
          "type": "address"
        },
        {
          "internalType": "address",
          "name": "_feeAddress",
          "type": "address"
        },
        {
          "internalType": "uint256",
          "name": "_eggPerBlock",
          "type": "uint256"
        },
        {
          "internalType": "uint256",
          "name": "_startBlock",
          "type": "uint256"
        }
      ],
      "stateMutability": "nonpayable",
      "type": "constructor"
    },
    {
      "anonymous": false,
      "inputs": [
        {
          "indexed": true,
          "internalType": "address",
          "name": "user",
          "type": "address"
        },
        {
          "indexed": true,
          "internalType": "uint256",
          "name": "pid",
          "type": "uint256"
        },
        {
          "indexed": false,
          "internalType": "uint256",
          "name": "amount",
          "type": "uint256"
        }
      ],
      "name": "Deposit",
      "type": "event"
    },
    {
      "anonymous": false,
      "inputs": [
        {
          "indexed": true,
          "internalType": "address",
          "name": "user",
          "type": "address"
        },
        {
          "indexed": true,
          "internalType": "uint256",
          "name": "pid",
          "type": "uint256"
        },
        {
          "indexed": false,
          "internalType": "uint256",
          "name": "amount",
          "type": "uint256"
        }
      ],
      "name": "EmergencyWithdraw",
      "type": "event"
    },
    {
      "anonymous": false,
      "inputs": [
        {
          "indexed": true,
          "internalType": "address",
          "name": "previousOwner",
          "type": "address"
        },
        {
          "indexed": true,
          "internalType": "address",
          "name": "newOwner",
          "type": "address"
        }
      ],
      "name": "OwnershipTransferred",
      "type": "event"
    },
    {
      "anonymous": false,
      "inputs": [
        {
          "indexed": true,
          "internalType": "address",
          "name": "user",
          "type": "address"
        },
        {
          "indexed": true,
          "internalType": "uint256",
          "name": "pid",
          "type": "uint256"
        },
        {
          "indexed": false,
          "internalType": "uint256",
          "name": "amount",
          "type": "uint256"
        }
      ],
      "name": "Withdraw",
      "type": "event"
    },
    {
      "inputs": [],
      "name": "BONUS_MULTIPLIER",
      "outputs": [
        {
          "internalType": "uint256",
          "name": "",
          "type": "uint256"
        }
      ],
      "stateMutability": "view",
      "type": "function"
    },
    {
      "inputs": [
        {
          "internalType": "uint256",
          "name": "_allocPoint",
          "type": "uint256"
        },
        {
          "internalType": "contract IBEP20",
          "name": "_lpToken",
          "type": "address"
        },
        {
          "internalType": "uint16",
          "name": "_depositFeeBP",
          "type": "uint16"
        },
        {
          "internalType": "bool",
          "name": "_withUpdate",
          "type": "bool"
        }
      ],
      "name": "add",
      "outputs": [],
      "stateMutability": "nonpayable",
      "type": "function"
    },
    {
      "inputs": [
        {
          "internalType": "uint256",
          "name": "_pid",
          "type": "uint256"
        },
        {
          "internalType": "uint256",
          "name": "_amount",
          "type": "uint256"
        }
      ],
      "name": "deposit",
      "outputs": [],
      "stateMutability": "nonpayable",
      "type": "function"
    },
    {
      "inputs": [
        {
          "internalType": "address",
          "name": "_devaddr",
          "type": "address"
        }
      ],
      "name": "dev",
      "outputs": [],
      "stateMutability": "nonpayable",
      "type": "function"
    },
    {
      "inputs": [],
      "name": "devaddr",
      "outputs": [
        {
          "internalType": "address",
          "name": "",
          "type": "address"
        }
      ],
      "stateMutability": "view",
      "type": "function"
    },
    {
      "inputs": [],
      "name": "egg",
      "outputs": [
        {
          "internalType": "contract EggToken",
          "name": "",
          "type": "address"
        }
      ],
      "stateMutability": "view",
      "type": "function"
    },
    {
      "inputs": [],
      "name": "eggPerBlock",
      "outputs": [
        {
          "internalType": "uint256",
          "name": "",
          "type": "uint256"
        }
      ],
      "stateMutability": "view",
      "type": "function"
    },
    {
      "inputs": [
        {
          "internalType": "uint256",
          "name": "_pid",
          "type": "uint256"
        }
      ],
      "name": "emergencyWithdraw",
      "outputs": [],
      "stateMutability": "nonpayable",
      "type": "function"
    },
    {
      "inputs": [],
      "name": "feeAddress",
      "outputs": [
        {
          "internalType": "address",
          "name": "",
          "type": "address"
        }
      ],
      "stateMutability": "view",
      "type": "function"
    },
    {
      "inputs": [
        {
          "internalType": "uint256",
          "name": "_from",
          "type": "uint256"
        },
        {
          "internalType": "uint256",
          "name": "_to",
          "type": "uint256"
        }
      ],
      "name": "getMultiplier",
      "outputs": [
        {
          "internalType": "uint256",
          "name": "",
          "type": "uint256"
        }
      ],
      "stateMutability": "view",
      "type": "function"
    },
    {
      "inputs": [],
      "name": "massUpdatePools",
      "outputs": [],
      "stateMutability": "nonpayable",
      "type": "function"
    },
    {
      "inputs": [],
      "name": "owner",
      "outputs": [
        {
          "internalType": "address",
          "name": "",
          "type": "address"
        }
      ],
      "stateMutability": "view",
      "type": "function"
    },
    {
      "inputs": [
        {
          "internalType": "uint256",
          "name": "_pid",
          "type": "uint256"
        },
        {
          "internalType": "address",
          "name": "_user",
          "type": "address"
        }
      ],
      "name": "pendingEgg",
      "outputs": [
        {
          "internalType": "uint256",
          "name": "",
          "type": "uint256"
        }
      ],
      "stateMutability": "view",
      "type": "function"
    },
    {
      "inputs": [
        {
          "internalType": "uint256",
          "name": "",
          "type": "uint256"
        }
      ],
      "name": "poolInfo",
      "outputs": [
        {
          "internalType": "contract IBEP20",
          "name": "lpToken",
          "type": "address"
        },
        {
          "internalType": "uint256",
          "name": "allocPoint",
          "type": "uint256"
        },
        {
          "internalType": "uint256",
          "name": "lastRewardBlock",
          "type": "uint256"
        },
        {
          "internalType": "uint256",
          "name": "accEggPerShare",
          "type": "uint256"
        },
        {
          "internalType": "uint16",
          "name": "depositFeeBP",
          "type": "uint16"
        }
      ],
      "stateMutability": "view",
      "type": "function"
    },
    {
      "inputs": [],
      "name": "poolLength",
      "outputs": [
        {
          "internalType": "uint256",
          "name": "",
          "type": "uint256"
        }
      ],
      "stateMutability": "view",
      "type": "function"
    },
    {
      "inputs": [],
      "name": "renounceOwnership",
      "outputs": [],
      "stateMutability": "nonpayable",
      "type": "function"
    },
    {
      "inputs": [
        {
          "internalType": "uint256",
          "name": "_pid",
          "type": "uint256"
        },
        {
          "internalType": "uint256",
          "name": "_allocPoint",
          "type": "uint256"
        },
        {
          "internalType": "uint16",
          "name": "_depositFeeBP",
          "type": "uint16"
        },
        {
          "internalType": "bool",
          "name": "_withUpdate",
          "type": "bool"
        }
      ],
      "name": "set",
      "outputs": [],
      "stateMutability": "nonpayable",
      "type": "function"
    },
    {
      "inputs": [
        {
          "internalType": "address",
          "name": "_feeAddress",
          "type": "address"
        }
      ],
      "name": "setFeeAddress",
      "outputs": [],
      "stateMutability": "nonpayable",
      "type": "function"
    },
    {
      "inputs": [],
      "name": "startBlock",
      "outputs": [
        {
          "internalType": "uint256",
          "name": "",
          "type": "uint256"
        }
      ],
      "stateMutability": "view",
      "type": "function"
    },
    {
      "inputs": [],
      "name": "totalAllocPoint",
      "outputs": [
        {
          "internalType": "uint256",
          "name": "",
          "type": "uint256"
        }
      ],
      "stateMutability": "view",
      "type": "function"
    },
    {
      "inputs": [
        {
          "internalType": "address",
          "name": "newOwner",
          "type": "address"
        }
      ],
      "name": "transferOwnership",
      "outputs": [],
      "stateMutability": "nonpayable",
      "type": "function"
    },
    {
      "inputs": [
        {
          "internalType": "uint256",
          "name": "_eggPerBlock",
          "type": "uint256"
        }
      ],
      "name": "updateEmissionRate",
      "outputs": [],
      "stateMutability": "nonpayable",
      "type": "function"
    },
    {
      "inputs": [
        {
          "internalType": "uint256",
          "name": "_pid",
          "type": "uint256"
        }
      ],
      "name": "updatePool",
      "outputs": [],
      "stateMutability": "nonpayable",
      "type": "function"
    },
    {
      "inputs": [
        {
          "internalType": "uint256",
          "name": "",
          "type": "uint256"
        },
        {
          "internalType": "address",
          "name": "",
          "type": "address"
        }
      ],
      "name": "userInfo",
      "outputs": [
        {
          "internalType": "uint256",
          "name": "amount",
          "type": "uint256"
        },
        {
          "internalType": "uint256",
          "name": "rewardDebt",
          "type": "uint256"
        }
      ],
      "stateMutability": "view",
      "type": "function"
    },
    {
      "inputs": [
        {
          "internalType": "uint256",
          "name": "_pid",
          "type": "uint256"
        },
        {
          "internalType": "uint256",
          "name": "_amount",
          "type": "uint256"
        }
      ],
      "name": "withdraw",
      "outputs": [],
      "stateMutability": "nonpayable",
      "type": "function"
    }
  ],
  "bytecode": "0x608060405260006007553480156200001657600080fd5b50604051620030f1380380620030f183398181016040528101906200003c919062000249565b6200005c620000506200013860201b60201c565b6200014060201b60201c565b84600160006101000a81548173ffffffffffffffffffffffffffffffffffffffff021916908373ffffffffffffffffffffffffffffffffffffffff16021790555083600260006101000a81548173ffffffffffffffffffffffffffffffffffffffff021916908373ffffffffffffffffffffffffffffffffffffffff16021790555082600460006101000a81548173ffffffffffffffffffffffffffffffffffffffff021916908373ffffffffffffffffffffffffffffffffffffffff1602179055508160038190555080600881905550505050505062000376565b600033905090565b60008060009054906101000a900473ffffffffffffffffffffffffffffffffffffffff169050816000806101000a81548173ffffffffffffffffffffffffffffffffffffffff021916908373ffffffffffffffffffffffffffffffffffffffff1602179055508173ffffffffffffffffffffffffffffffffffffffff168173ffffffffffffffffffffffffffffffffffffffff167f8be0079c531659141344cd1fd0a4f28419497f9722a3daafe3b4186f6b6457e060405160405180910390a35050565b600081519050620002158162000328565b92915050565b6000815190506200022c8162000342565b92915050565b60008151905062000243816200035c565b92915050565b600080600080600060a0868803121562000268576200026762000323565b5b600062000278888289016200021b565b95505060206200028b8882890162000204565b94505060406200029e8882890162000204565b9350506060620002b18882890162000232565b9250506080620002c48882890162000232565b9150509295509295909350565b6000620002de82620002f9565b9050919050565b6000620002f282620002d1565b9050919050565b600073ffffffffffffffffffffffffffffffffffffffff82169050919050565b6000819050919050565b600080fd5b6200033381620002d1565b81146200033f57600080fd5b50565b6200034d81620002e5565b81146200035957600080fd5b50565b620003678162000319565b81146200037357600080fd5b50565b612d6b80620003866000396000f3fe608060405234801561001057600080fd5b50600436106101735760003560e01c80638705fcd4116100de578063a1a4d4a411610097578063d963842211610071578063d9638422146103f3578063e2bbb1581461040f578063f2fde38b1461042b578063f456426f1461044757610173565b8063a1a4d4a414610399578063c06abfc7146103b7578063d49e77cd146103d557610173565b80638705fcd4146102c45780638aa28550146102e05780638d88a90e146102fe5780638da5cb5b1461031a5780638dbb1e3a1461033857806393f1a40b1461036857610173565b806348cd4cb11161013057806348cd4cb11461023e57806351eb05a61461025c5780635312ea8e14610278578063630b5ba114610294578063715018a61461029e57806384e82a33146102a857610173565b8063081e3eda146101785780630ba84cd2146101965780631526fe27146101b257806317caf6f1146101e65780634127535814610204578063441a3e7014610222575b600080fd5b610180610477565b60405161018d9190612710565b60405180910390f35b6101b060048036038101906101ab91906120f3565b610484565b005b6101cc60048036038101906101c791906120f3565b610512565b6040516101dd95949392919061255b565b60405180910390f35b6101ee610586565b6040516101fb9190612710565b60405180910390f35b61020c61058c565b60405161021991906124c5565b60405180910390f35b61023c600480360381019061023791906121f4565b6105b2565b005b6102466107e4565b6040516102539190612710565b60405180910390f35b610276600480360381019061027191906120f3565b6107ea565b005b610292600480360381019061028d91906120f3565b610afb565b005b61029c610c36565b005b6102a6610c69565b005b6102c260048036038101906102bd919061218d565b610cf1565b005b6102de60048036038101906102d99190612099565b610ef5565b005b6102e8610fc9565b6040516102f59190612710565b60405180910390f35b61031860048036038101906103139190612099565b610fce565b005b6103226110a2565b60405161032f91906124c5565b60405180910390f35b610352600480360381019061034d91906121f4565b6110cb565b60405161035f9190612710565b60405180910390f35b610382600480360381019061037d919061214d565b6110fb565b60405161039092919061272b565b60405180910390f35b6103a161112c565b6040516103ae9190612710565b60405180910390f35b6103bf611132565b6040516103cc9190612540565b60405180910390f35b6103dd611158565b6040516103ea91906124c5565b60405180910390f35b61040d60048036038101906104089190612234565b61117e565b005b610429600480360381019061042491906121f4565b611314565b005b61044560048036038101906104409190612099565b611618565b005b610461600480360381019061045c919061214d565b611710565b60405161046e9190612710565b60405180910390f35b6000600580549050905090565b61048c611944565b73ffffffffffffffffffffffffffffffffffffffff166104aa6110a2565b73ffffffffffffffffffffffffffffffffffffffff1614610500576040517f08c379a00000000000000000000000000000000000000000000000000000000081526004016104f790612690565b60405180910390fd5b610508610c36565b8060038190555050565b6005818154811061052257600080fd5b90600052602060002090600502016000915090508060000160009054906101000a900473ffffffffffffffffffffffffffffffffffffffff16908060010154908060020154908060030154908060040160009054906101000a900461ffff16905085565b60075481565b600460009054906101000a900473ffffffffffffffffffffffffffffffffffffffff1681565b6000600583815481106105c8576105c7612a25565b5b9060005260206000209060050201905060006006600085815260200190815260200160002060003373ffffffffffffffffffffffffffffffffffffffff1673ffffffffffffffffffffffffffffffffffffffff16815260200190815260200160002090508281600001541015610673576040517f08c379a000000000000000000000000000000000000000000000000000000000815260040161066a906126d0565b60405180910390fd5b61067c846107ea565b60006106c682600101546106b864e8d4a510006106aa8760030154876000015461194c90919063ffffffff16565b61196290919063ffffffff16565b61197890919063ffffffff16565b905060008111156106dc576106db338261198e565b5b6000841115610754576106fc84836000015461197890919063ffffffff16565b826000018190555061075333858560000160009054906101000a900473ffffffffffffffffffffffffffffffffffffffff1673ffffffffffffffffffffffffffffffffffffffff16611bb09092919063ffffffff16565b5b61078664e8d4a510006107788560030154856000015461194c90919063ffffffff16565b61196290919063ffffffff16565b8260010181905550843373ffffffffffffffffffffffffffffffffffffffff167ff279e6a1f5e320cca91135676d9cb6e44ca8a08c0b88342bcdb1144f6511b568866040516107d59190612710565b60405180910390a35050505050565b60085481565b600060058281548110610800576107ff612a25565b5b90600052602060002090600502019050806002015443116108215750610af8565b60008160000160009054906101000a900473ffffffffffffffffffffffffffffffffffffffff1673ffffffffffffffffffffffffffffffffffffffff166370a08231306040518263ffffffff1660e01b815260040161088091906124c5565b60206040518083038186803b15801561089857600080fd5b505afa1580156108ac573d6000803e3d6000fd5b505050506040513d601f19601f820116820180604052508101906108d09190612120565b905060008114806108e5575060008260010154145b156108fa574382600201819055505050610af8565b600061090a8360020154436110cb565b9050600061094d60075461093f86600101546109316003548761194c90919063ffffffff16565b61194c90919063ffffffff16565b61196290919063ffffffff16565b9050600160009054906101000a900473ffffffffffffffffffffffffffffffffffffffff1673ffffffffffffffffffffffffffffffffffffffff166340c10f19600260009054906101000a900473ffffffffffffffffffffffffffffffffffffffff166109c4600a8561196290919063ffffffff16565b6040518363ffffffff1660e01b81526004016109e1929190612517565b600060405180830381600087803b1580156109fb57600080fd5b505af1158015610a0f573d6000803e3d6000fd5b50505050600160009054906101000a900473ffffffffffffffffffffffffffffffffffffffff1673ffffffffffffffffffffffffffffffffffffffff166340c10f1930836040518363ffffffff1660e01b8152600401610a70929190612517565b600060405180830381600087803b158015610a8a57600080fd5b505af1158015610a9e573d6000803e3d6000fd5b50505050610ae2610acf84610ac164e8d4a510008561194c90919063ffffffff16565b61196290919063ffffffff16565b8560030154611c3690919063ffffffff16565b8460030181905550438460020181905550505050505b50565b600060058281548110610b1157610b10612a25565b5b9060005260206000209060050201905060006006600084815260200190815260200160002060003373ffffffffffffffffffffffffffffffffffffffff1673ffffffffffffffffffffffffffffffffffffffff16815260200190815260200160002090506000816000015490506000826000018190555060008260010181905550610be133828560000160009054906101000a900473ffffffffffffffffffffffffffffffffffffffff1673ffffffffffffffffffffffffffffffffffffffff16611bb09092919063ffffffff16565b833373ffffffffffffffffffffffffffffffffffffffff167fbb757047c2b5f3974fe26b7c10f732e7bce710b0952a71082702781e62ae059583604051610c289190612710565b60405180910390a350505050565b6000600580549050905060005b81811015610c6557610c54816107ea565b80610c5e9061297e565b9050610c43565b5050565b610c71611944565b73ffffffffffffffffffffffffffffffffffffffff16610c8f6110a2565b73ffffffffffffffffffffffffffffffffffffffff1614610ce5576040517f08c379a0000000000000000000000000000000000000000000000000000000008152600401610cdc90612690565b60405180910390fd5b610cef6000611c4c565b565b610cf9611944565b73ffffffffffffffffffffffffffffffffffffffff16610d176110a2565b73ffffffffffffffffffffffffffffffffffffffff1614610d6d576040517f08c379a0000000000000000000000000000000000000000000000000000000008152600401610d6490612690565b60405180910390fd5b6127108261ffff161115610db6576040517f08c379a0000000000000000000000000000000000000000000000000000000008152600401610dad906125d0565b60405180910390fd5b8015610dc557610dc4610c36565b5b60006008544311610dd857600854610dda565b435b9050610df185600754611c3690919063ffffffff16565b60078190555060056040518060a001604052808673ffffffffffffffffffffffffffffffffffffffff168152602001878152602001838152602001600081526020018561ffff16815250908060018154018082558091505060019003906000526020600020906005020160009091909190915060008201518160000160006101000a81548173ffffffffffffffffffffffffffffffffffffffff021916908373ffffffffffffffffffffffffffffffffffffffff16021790555060208201518160010155604082015181600201556060820151816003015560808201518160040160006101000a81548161ffff021916908361ffff16021790555050505050505050565b600460009054906101000a900473ffffffffffffffffffffffffffffffffffffffff1673ffffffffffffffffffffffffffffffffffffffff163373ffffffffffffffffffffffffffffffffffffffff1614610f85576040517f08c379a0000000000000000000000000000000000000000000000000000000008152600401610f7c906126f0565b60405180910390fd5b80600460006101000a81548173ffffffffffffffffffffffffffffffffffffffff021916908373ffffffffffffffffffffffffffffffffffffffff16021790555050565b600181565b600260009054906101000a900473ffffffffffffffffffffffffffffffffffffffff1673ffffffffffffffffffffffffffffffffffffffff163373ffffffffffffffffffffffffffffffffffffffff161461105e576040517f08c379a000000000000000000000000000000000000000000000000000000000815260040161105590612650565b60405180910390fd5b80600260006101000a81548173ffffffffffffffffffffffffffffffffffffffff021916908373ffffffffffffffffffffffffffffffffffffffff16021790555050565b60008060009054906101000a900473ffffffffffffffffffffffffffffffffffffffff16905090565b60006110f360016110e5858561197890919063ffffffff16565b61194c90919063ffffffff16565b905092915050565b6006602052816000526040600020602052806000526040600020600091509150508060000154908060010154905082565b60035481565b600160009054906101000a900473ffffffffffffffffffffffffffffffffffffffff1681565b600260009054906101000a900473ffffffffffffffffffffffffffffffffffffffff1681565b611186611944565b73ffffffffffffffffffffffffffffffffffffffff166111a46110a2565b73ffffffffffffffffffffffffffffffffffffffff16146111fa576040517f08c379a00000000000000000000000000000000000000000000000000000000081526004016111f190612690565b60405180910390fd5b6127108261ffff161115611243576040517f08c379a000000000000000000000000000000000000000000000000000000000815260040161123a90612670565b60405180910390fd5b801561125257611251610c36565b5b61129e836112906005878154811061126d5761126c612a25565b5b90600052602060002090600502016001015460075461197890919063ffffffff16565b611c3690919063ffffffff16565b60078190555082600585815481106112b9576112b8612a25565b5b90600052602060002090600502016001018190555081600585815481106112e3576112e2612a25565b5b906000526020600020906005020160040160006101000a81548161ffff021916908361ffff16021790555050505050565b60006005838154811061132a57611329612a25565b5b9060005260206000209060050201905060006006600085815260200190815260200160002060003373ffffffffffffffffffffffffffffffffffffffff1673ffffffffffffffffffffffffffffffffffffffff1681526020019081526020016000209050611397846107ea565b6000816000015411156114065760006113ee82600101546113e064e8d4a510006113d28760030154876000015461194c90919063ffffffff16565b61196290919063ffffffff16565b61197890919063ffffffff16565b9050600081111561140457611403338261198e565b5b505b6000831115611589576114603330858560000160009054906101000a900473ffffffffffffffffffffffffffffffffffffffff1673ffffffffffffffffffffffffffffffffffffffff16611d10909392919063ffffffff16565b60008260040160009054906101000a900461ffff1661ffff1611156115685760006114be6127106114b08560040160009054906101000a900461ffff1661ffff168761194c90919063ffffffff16565b61196290919063ffffffff16565b9050611531600460009054906101000a900473ffffffffffffffffffffffffffffffffffffffff16828560000160009054906101000a900473ffffffffffffffffffffffffffffffffffffffff1673ffffffffffffffffffffffffffffffffffffffff16611bb09092919063ffffffff16565b61155a8161154c868560000154611c3690919063ffffffff16565b61197890919063ffffffff16565b826000018190555050611588565b61157f838260000154611c3690919063ffffffff16565b81600001819055505b5b6115bb64e8d4a510006115ad8460030154846000015461194c90919063ffffffff16565b61196290919063ffffffff16565b8160010181905550833373ffffffffffffffffffffffffffffffffffffffff167f90890809c654f11d6e72a28fa60149770a0d11ec6c92319d6ceb2bb0a4ea1a158560405161160a9190612710565b60405180910390a350505050565b611620611944565b73ffffffffffffffffffffffffffffffffffffffff1661163e6110a2565b73ffffffffffffffffffffffffffffffffffffffff1614611694576040517f08c379a000000000000000000000000000000000000000000000000000000000815260040161168b90612690565b60405180910390fd5b600073ffffffffffffffffffffffffffffffffffffffff168173ffffffffffffffffffffffffffffffffffffffff161415611704576040517f08c379a00000000000000000000000000000000000000000000000000000000081526004016116fb90612610565b60405180910390fd5b61170d81611c4c565b50565b6000806005848154811061172757611726612a25565b5b9060005260206000209060050201905060006006600086815260200190815260200160002060008573ffffffffffffffffffffffffffffffffffffffff1673ffffffffffffffffffffffffffffffffffffffff168152602001908152602001600020905060008260030154905060008360000160009054906101000a900473ffffffffffffffffffffffffffffffffffffffff1673ffffffffffffffffffffffffffffffffffffffff166370a08231306040518263ffffffff1660e01b81526004016117f391906124c5565b60206040518083038186803b15801561180b57600080fd5b505afa15801561181f573d6000803e3d6000fd5b505050506040513d601f19601f820116820180604052508101906118439190612120565b9050836002015443118015611859575060008114155b156118f457600061186e8560020154436110cb565b905060006118b16007546118a388600101546118956003548761194c90919063ffffffff16565b61194c90919063ffffffff16565b61196290919063ffffffff16565b90506118ef6118e0846118d264e8d4a510008561194c90919063ffffffff16565b61196290919063ffffffff16565b85611c3690919063ffffffff16565b935050505b611938836001015461192a64e8d4a5100061191c86886000015461194c90919063ffffffff16565b61196290919063ffffffff16565b61197890919063ffffffff16565b94505050505092915050565b600033905090565b6000818361195a919061280d565b905092915050565b6000818361197091906127dc565b905092915050565b600081836119869190612867565b905092915050565b6000600160009054906101000a900473ffffffffffffffffffffffffffffffffffffffff1673ffffffffffffffffffffffffffffffffffffffff166370a08231306040518263ffffffff1660e01b81526004016119eb91906124c5565b60206040518083038186803b158015611a0357600080fd5b505afa158015611a17573d6000803e3d6000fd5b505050506040513d601f19601f82011682018060405250810190611a3b9190612120565b905080821115611afa57600160009054906101000a900473ffffffffffffffffffffffffffffffffffffffff1673ffffffffffffffffffffffffffffffffffffffff1663a9059cbb84836040518363ffffffff1660e01b8152600401611aa2929190612517565b602060405180830381600087803b158015611abc57600080fd5b505af1158015611ad0573d6000803e3d6000fd5b505050506040513d601f19601f82011682018060405250810190611af491906120c6565b50611bab565b600160009054906101000a900473ffffffffffffffffffffffffffffffffffffffff1673ffffffffffffffffffffffffffffffffffffffff1663a9059cbb84846040518363ffffffff1660e01b8152600401611b57929190612517565b602060405180830381600087803b158015611b7157600080fd5b505af1158015611b85573d6000803e3d6000fd5b505050506040513d601f19601f82011682018060405250810190611ba991906120c6565b505b505050565b611c318363a9059cbb60e01b8484604051602401611bcf929190612517565b604051602081830303815290604052907bffffffffffffffffffffffffffffffffffffffffffffffffffffffff19166020820180517bffffffffffffffffffffffffffffffffffffffffffffffffffffffff8381831617835250505050611d99565b505050565b60008183611c449190612786565b905092915050565b60008060009054906101000a900473ffffffffffffffffffffffffffffffffffffffff169050816000806101000a81548173ffffffffffffffffffffffffffffffffffffffff021916908373ffffffffffffffffffffffffffffffffffffffff1602179055508173ffffffffffffffffffffffffffffffffffffffff168173ffffffffffffffffffffffffffffffffffffffff167f8be0079c531659141344cd1fd0a4f28419497f9722a3daafe3b4186f6b6457e060405160405180910390a35050565b611d93846323b872dd60e01b858585604051602401611d31939291906124e0565b604051602081830303815290604052907bffffffffffffffffffffffffffffffffffffffffffffffffffffffff19166020820180517bffffffffffffffffffffffffffffffffffffffffffffffffffffffff8381831617835250505050611d99565b50505050565b6000611dfb826040518060400160405280602081526020017f5361666542455032303a206c6f772d6c6576656c2063616c6c206661696c65648152508573ffffffffffffffffffffffffffffffffffffffff16611e609092919063ffffffff16565b9050600081511115611e5b5780806020019051810190611e1b91906120c6565b611e5a576040517f08c379a0000000000000000000000000000000000000000000000000000000008152600401611e51906125f0565b60405180910390fd5b5b505050565b6060611e6f8484600085611e78565b90509392505050565b606082471015611ebd576040517f08c379a0000000000000000000000000000000000000000000000000000000008152600401611eb490612630565b60405180910390fd5b611ec685611f8c565b611f05576040517f08c379a0000000000000000000000000000000000000000000000000000000008152600401611efc906126b0565b60405180910390fd5b6000808673ffffffffffffffffffffffffffffffffffffffff168587604051611f2e91906124ae565b60006040518083038185875af1925050503d8060008114611f6b576040519150601f19603f3d011682016040523d82523d6000602084013e611f70565b606091505b5091509150611f80828286611f9f565b92505050949350505050565b600080823b905060008111915050919050565b60608315611faf57829050611fff565b600083511115611fc25782518084602001fd5b816040517f08c379a0000000000000000000000000000000000000000000000000000000008152600401611ff691906125ae565b60405180910390fd5b9392505050565b60008135905061201581612cc2565b92915050565b60008135905061202a81612cd9565b92915050565b60008151905061203f81612cd9565b92915050565b60008135905061205481612cf0565b92915050565b60008135905061206981612d07565b92915050565b60008135905061207e81612d1e565b92915050565b60008151905061209381612d1e565b92915050565b6000602082840312156120af576120ae612a54565b5b60006120bd84828501612006565b91505092915050565b6000602082840312156120dc576120db612a54565b5b60006120ea84828501612030565b91505092915050565b60006020828403121561210957612108612a54565b5b60006121178482850161206f565b91505092915050565b60006020828403121561213657612135612a54565b5b600061214484828501612084565b91505092915050565b6000806040838503121561216457612163612a54565b5b60006121728582860161206f565b925050602061218385828601612006565b9150509250929050565b600080600080608085870312156121a7576121a6612a54565b5b60006121b58782880161206f565b94505060206121c687828801612045565b93505060406121d78782880161205a565b92505060606121e88782880161201b565b91505092959194509250565b6000806040838503121561220b5761220a612a54565b5b60006122198582860161206f565b925050602061222a8582860161206f565b9150509250929050565b6000806000806080858703121561224e5761224d612a54565b5b600061225c8782880161206f565b945050602061226d8782880161206f565b935050604061227e8782880161205a565b925050606061228f8782880161201b565b91505092959194509250565b6122a48161289b565b82525050565b60006122b582612754565b6122bf818561276a565b93506122cf81856020860161294b565b80840191505092915050565b6122e481612903565b82525050565b6122f381612927565b82525050565b60006123048261275f565b61230e8185612775565b935061231e81856020860161294b565b61232781612a59565b840191505092915050565b600061233f602583612775565b915061234a82612a6a565b604082019050919050565b6000612362602a83612775565b915061236d82612ab9565b604082019050919050565b6000612385602683612775565b915061239082612b08565b604082019050919050565b60006123a8602683612775565b91506123b382612b57565b604082019050919050565b60006123cb600983612775565b91506123d682612ba6565b602082019050919050565b60006123ee602583612775565b91506123f982612bcf565b604082019050919050565b6000612411602083612775565b915061241c82612c1e565b602082019050919050565b6000612434601d83612775565b915061243f82612c47565b602082019050919050565b6000612457601283612775565b915061246282612c70565b602082019050919050565b600061247a601883612775565b915061248582612c99565b602082019050919050565b612499816128cb565b82525050565b6124a8816128f9565b82525050565b60006124ba82846122aa565b915081905092915050565b60006020820190506124da600083018461229b565b92915050565b60006060820190506124f5600083018661229b565b612502602083018561229b565b61250f604083018461249f565b949350505050565b600060408201905061252c600083018561229b565b612539602083018461249f565b9392505050565b600060208201905061255560008301846122db565b92915050565b600060a08201905061257060008301886122ea565b61257d602083018761249f565b61258a604083018661249f565b612597606083018561249f565b6125a46080830184612490565b9695505050505050565b600060208201905081810360008301526125c881846122f9565b905092915050565b600060208201905081810360008301526125e981612332565b9050919050565b6000602082019050818103600083015261260981612355565b9050919050565b6000602082019050818103600083015261262981612378565b9050919050565b600060208201905081810360008301526126498161239b565b9050919050565b60006020820190508181036000830152612669816123be565b9050919050565b60006020820190508181036000830152612689816123e1565b9050919050565b600060208201905081810360008301526126a981612404565b9050919050565b600060208201905081810360008301526126c981612427565b9050919050565b600060208201905081810360008301526126e98161244a565b9050919050565b600060208201905081810360008301526127098161246d565b9050919050565b6000602082019050612725600083018461249f565b92915050565b6000604082019050612740600083018561249f565b61274d602083018461249f565b9392505050565b600081519050919050565b600081519050919050565b600081905092915050565b600082825260208201905092915050565b6000612791826128f9565b915061279c836128f9565b9250827fffffffffffffffffffffffffffffffffffffffffffffffffffffffffffffffff038211156127d1576127d06129c7565b5b828201905092915050565b60006127e7826128f9565b91506127f2836128f9565b925082612802576128016129f6565b5b828204905092915050565b6000612818826128f9565b9150612823836128f9565b9250817fffffffffffffffffffffffffffffffffffffffffffffffffffffffffffffffff048311821515161561285c5761285b6129c7565b5b828202905092915050565b6000612872826128f9565b915061287d836128f9565b9250828210156128905761288f6129c7565b5b828203905092915050565b60006128a6826128d9565b9050919050565b60008115159050919050565b60006128c48261289b565b9050919050565b600061ffff82169050919050565b600073ffffffffffffffffffffffffffffffffffffffff82169050919050565b6000819050919050565b600061290e82612915565b9050919050565b6000612920826128d9565b9050919050565b600061293282612939565b9050919050565b6000612944826128d9565b9050919050565b60005b8381101561296957808201518184015260208101905061294e565b83811115612978576000848401525b50505050565b6000612989826128f9565b91507fffffffffffffffffffffffffffffffffffffffffffffffffffffffffffffffff8214156129bc576129bb6129c7565b5b600182019050919050565b7f4e487b7100000000000000000000000000000000000000000000000000000000600052601160045260246000fd5b7f4e487b7100000000000000000000000000000000000000000000000000000000600052601260045260246000fd5b7f4e487b7100000000000000000000000000000000000000000000000000000000600052603260045260246000fd5b600080fd5b6000601f19601f8301169050919050565b7f6164643a20696e76616c6964206465706f73697420666565206261736973207060008201527f6f696e7473000000000000000000000000000000000000000000000000000000602082015250565b7f5361666542455032303a204245503230206f7065726174696f6e20646964206e60008201527f6f74207375636365656400000000000000000000000000000000000000000000602082015250565b7f4f776e61626c653a206e6577206f776e657220697320746865207a65726f206160008201527f6464726573730000000000000000000000000000000000000000000000000000602082015250565b7f416464726573733a20696e73756666696369656e742062616c616e636520666f60008201527f722063616c6c0000000000000000000000000000000000000000000000000000602082015250565b7f6465763a207775743f0000000000000000000000000000000000000000000000600082015250565b7f7365743a20696e76616c6964206465706f73697420666565206261736973207060008201527f6f696e7473000000000000000000000000000000000000000000000000000000602082015250565b7f4f776e61626c653a2063616c6c6572206973206e6f7420746865206f776e6572600082015250565b7f416464726573733a2063616c6c20746f206e6f6e2d636f6e7472616374000000600082015250565b7f77697468647261773a206e6f7420676f6f640000000000000000000000000000600082015250565b7f736574466565416464726573733a20464f5242494444454e0000000000000000600082015250565b612ccb8161289b565b8114612cd657600080fd5b50565b612ce2816128ad565b8114612ced57600080fd5b50565b612cf9816128b9565b8114612d0457600080fd5b50565b612d10816128cb565b8114612d1b57600080fd5b50565b612d27816128f9565b8114612d3257600080fd5b5056fea264697066735822122067c8b24971e2ff7b2223e9980bacf3bbafe0c9bf230b56c1e9b99f928302ab5364736f6c63430008060033",
  "linkReferences": {},
  "deployedLinkReferences": {}
}