{
  "_format": "hh-sol-artifact-1",
  "contractName": "Lottery",
  "sourceName": "contracts/lottery/Lottery.sol",
  "abi": [
    {
      "inputs": [],
      "stateMutability": "nonpayable",
      "type": "constructor"
    },
    {
      "anonymous": false,
      "inputs": [
        {
          "indexed": true,
          "internalType": "address",
          "name": "user",
          "type": "address"
        },
        {
          "indexed": false,
          "internalType": "uint256",
          "name": "tokenId",
          "type": "uint256"
        }
      ],
      "name": "Buy",
      "type": "event"
    },
    {
      "anonymous": false,
      "inputs": [
        {
          "indexed": true,
          "internalType": "address",
          "name": "user",
          "type": "address"
        },
        {
          "indexed": false,
          "internalType": "uint256",
          "name": "tokenid",
          "type": "uint256"
        },
        {
          "indexed": false,
          "internalType": "uint256",
          "name": "amount",
          "type": "uint256"
        }
      ],
      "name": "Claim",
      "type": "event"
    },
    {
      "anonymous": false,
      "inputs": [
        {
          "indexed": true,
          "internalType": "address",
          "name": "user",
          "type": "address"
        },
        {
          "indexed": false,
          "internalType": "uint256",
          "name": "amount",
          "type": "uint256"
        }
      ],
      "name": "DevWithdraw",
      "type": "event"
    },
    {
      "anonymous": false,
      "inputs": [
        {
          "indexed": true,
          "internalType": "uint256",
          "name": "issueIndex",
          "type": "uint256"
        },
        {
          "indexed": false,
          "internalType": "uint8[4]",
          "name": "winningNumbers",
          "type": "uint8[4]"
        }
      ],
      "name": "Drawing",
      "type": "event"
    },
    {
      "anonymous": false,
      "inputs": [
        {
          "indexed": true,
          "internalType": "address",
          "name": "user",
          "type": "address"
        },
        {
          "indexed": false,
          "internalType": "uint256",
          "name": "amount",
          "type": "uint256"
        }
      ],
      "name": "MultiBuy",
      "type": "event"
    },
    {
      "anonymous": false,
      "inputs": [
        {
          "indexed": true,
          "internalType": "address",
          "name": "user",
          "type": "address"
        },
        {
          "indexed": false,
          "internalType": "uint256",
          "name": "amount",
          "type": "uint256"
        }
      ],
      "name": "MultiClaim",
      "type": "event"
    },
    {
      "anonymous": false,
      "inputs": [
        {
          "indexed": true,
          "internalType": "address",
          "name": "previousOwner",
          "type": "address"
        },
        {
          "indexed": true,
          "internalType": "address",
          "name": "newOwner",
          "type": "address"
        }
      ],
      "name": "OwnershipTransferred",
      "type": "event"
    },
    {
      "anonymous": false,
      "inputs": [
        {
          "indexed": true,
          "internalType": "uint256",
          "name": "issueIndex",
          "type": "uint256"
        }
      ],
      "name": "Reset",
      "type": "event"
    },
    {
      "anonymous": false,
      "inputs": [
        {
          "indexed": true,
          "internalType": "address",
          "name": "user",
          "type": "address"
        },
        {
          "indexed": true,
          "internalType": "address",
          "name": "admin",
          "type": "address"
        }
      ],
      "name": "SetAdmin",
      "type": "event"
    },
    {
      "anonymous": false,
      "inputs": [
        {
          "indexed": true,
          "internalType": "address",
          "name": "user",
          "type": "address"
        },
        {
          "indexed": false,
          "internalType": "uint8",
          "name": "allocation1",
          "type": "uint8"
        },
        {
          "indexed": false,
          "internalType": "uint8",
          "name": "allocation2",
          "type": "uint8"
        },
        {
          "indexed": false,
          "internalType": "uint8",
          "name": "allocation3",
          "type": "uint8"
        }
      ],
      "name": "SetAllocation",
      "type": "event"
    },
    {
      "anonymous": false,
      "inputs": [
        {
          "indexed": true,
          "internalType": "address",
          "name": "user",
          "type": "address"
        },
        {
          "indexed": false,
          "internalType": "uint256",
          "name": "number",
          "type": "uint256"
        }
      ],
      "name": "SetMaxNumber",
      "type": "event"
    },
    {
      "anonymous": false,
      "inputs": [
        {
          "indexed": true,
          "internalType": "address",
          "name": "user",
          "type": "address"
        },
        {
          "indexed": false,
          "internalType": "uint256",
          "name": "price",
          "type": "uint256"
        }
      ],
      "name": "SetMinPrice",
      "type": "event"
    },
    {
      "inputs": [],
      "name": "adminAddress",
      "outputs": [
        {
          "internalType": "address",
          "name": "",
          "type": "address"
        }
      ],
      "stateMutability": "view",
      "type": "function"
    },
    {
      "inputs": [
        {
          "internalType": "uint256",
          "name": "_amount",
          "type": "uint256"
        }
      ],
      "name": "adminWithdraw",
      "outputs": [],
      "stateMutability": "nonpayable",
      "type": "function"
    },
    {
      "inputs": [
        {
          "internalType": "uint256",
          "name": "",
          "type": "uint256"
        }
      ],
      "name": "allocation",
      "outputs": [
        {
          "internalType": "uint8",
          "name": "",
          "type": "uint8"
        }
      ],
      "stateMutability": "view",
      "type": "function"
    },
    {
      "inputs": [
        {
          "internalType": "uint256",
          "name": "_price",
          "type": "uint256"
        },
        {
          "internalType": "uint8[4]",
          "name": "_numbers",
          "type": "uint8[4]"
        }
      ],
      "name": "buy",
      "outputs": [],
      "stateMutability": "nonpayable",
      "type": "function"
    },
    {
      "inputs": [
        {
          "internalType": "uint256",
          "name": "_tokenId",
          "type": "uint256"
        }
      ],
      "name": "claimReward",
      "outputs": [],
      "stateMutability": "nonpayable",
      "type": "function"
    },
    {
      "inputs": [],
      "name": "drawed",
      "outputs": [
        {
          "internalType": "bool",
          "name": "",
          "type": "bool"
        }
      ],
      "stateMutability": "view",
      "type": "function"
    },
    {
      "inputs": [
        {
          "internalType": "uint256",
          "name": "_externalRandomNumber",
          "type": "uint256"
        }
      ],
      "name": "drawing",
      "outputs": [],
      "stateMutability": "nonpayable",
      "type": "function"
    },
    {
      "inputs": [],
      "name": "drawingPhase",
      "outputs": [
        {
          "internalType": "bool",
          "name": "",
          "type": "bool"
        }
      ],
      "stateMutability": "view",
      "type": "function"
    },
    {
      "inputs": [],
      "name": "egg",
      "outputs": [
        {
          "internalType": "contract IBEP20",
          "name": "",
          "type": "address"
        }
      ],
      "stateMutability": "view",
      "type": "function"
    },
    {
      "inputs": [],
      "name": "enterDrawingPhase",
      "outputs": [],
      "stateMutability": "nonpayable",
      "type": "function"
    },
    {
      "inputs": [
        {
          "internalType": "uint8[4]",
          "name": "number",
          "type": "uint8[4]"
        }
      ],
      "name": "generateCombinations",
      "outputs": [
        {
          "internalType": "uint32[11]",
          "name": "",
          "type": "uint32[11]"
        }
      ],
      "stateMutability": "pure",
      "type": "function"
    },
    {
      "inputs": [
        {
          "internalType": "uint256",
          "name": "_issueIndex",
          "type": "uint256"
        },
        {
          "internalType": "uint256",
          "name": "_matchingNumber",
          "type": "uint256"
        }
      ],
      "name": "getMatchingRewardAmount",
      "outputs": [
        {
          "internalType": "uint256",
          "name": "",
          "type": "uint256"
        }
      ],
      "stateMutability": "view",
      "type": "function"
    },
    {
      "inputs": [
        {
          "internalType": "uint256",
          "name": "_tokenId",
          "type": "uint256"
        }
      ],
      "name": "getRewardView",
      "outputs": [
        {
          "internalType": "uint256",
          "name": "",
          "type": "uint256"
        }
      ],
      "stateMutability": "view",
      "type": "function"
    },
    {
      "inputs": [
        {
          "internalType": "uint256",
          "name": "_issueIndex",
          "type": "uint256"
        }
      ],
      "name": "getTotalRewards",
      "outputs": [
        {
          "internalType": "uint256",
          "name": "",
          "type": "uint256"
        }
      ],
      "stateMutability": "view",
      "type": "function"
    },
    {
      "inputs": [
        {
          "internalType": "uint256",
          "name": "",
          "type": "uint256"
        },
        {
          "internalType": "uint256",
          "name": "",
          "type": "uint256"
        }
      ],
      "name": "historyAmount",
      "outputs": [
        {
          "internalType": "uint256",
          "name": "",
          "type": "uint256"
        }
      ],
      "stateMutability": "view",
      "type": "function"
    },
    {
      "inputs": [
        {
          "internalType": "uint256",
          "name": "",
          "type": "uint256"
        },
        {
          "internalType": "uint256",
          "name": "",
          "type": "uint256"
        }
      ],
      "name": "historyNumbers",
      "outputs": [
        {
          "internalType": "uint8",
          "name": "",
          "type": "uint8"
        }
      ],
      "stateMutability": "view",
      "type": "function"
    },
    {
      "inputs": [
        {
          "internalType": "contract IBEP20",
          "name": "_egg",
          "type": "address"
        },
        {
          "internalType": "contract LotteryNFT",
          "name": "_lottery",
          "type": "address"
        },
        {
          "internalType": "uint256",
          "name": "_minPrice",
          "type": "uint256"
        },
        {
          "internalType": "uint8",
          "name": "_maxNumber",
          "type": "uint8"
        },
        {
          "internalType": "address",
          "name": "_adminAddress",
          "type": "address"
        }
      ],
      "name": "initialize",
      "outputs": [],
      "stateMutability": "nonpayable",
      "type": "function"
    },
    {
      "inputs": [],
      "name": "issueIndex",
      "outputs": [
        {
          "internalType": "uint256",
          "name": "",
          "type": "uint256"
        }
      ],
      "stateMutability": "view",
      "type": "function"
    },
    {
      "inputs": [],
      "name": "lastTimestamp",
      "outputs": [
        {
          "internalType": "uint256",
          "name": "",
          "type": "uint256"
        }
      ],
      "stateMutability": "view",
      "type": "function"
    },
    {
      "inputs": [
        {
          "internalType": "uint256",
          "name": "",
          "type": "uint256"
        },
        {
          "internalType": "uint256",
          "name": "",
          "type": "uint256"
        }
      ],
      "name": "lotteryInfo",
      "outputs": [
        {
          "internalType": "uint256",
          "name": "",
          "type": "uint256"
        }
      ],
      "stateMutability": "view",
      "type": "function"
    },
    {
      "inputs": [],
      "name": "lotteryNFT",
      "outputs": [
        {
          "internalType": "contract LotteryNFT",
          "name": "",
          "type": "address"
        }
      ],
      "stateMutability": "view",
      "type": "function"
    },
    {
      "inputs": [],
      "name": "maxNumber",
      "outputs": [
        {
          "internalType": "uint8",
          "name": "",
          "type": "uint8"
        }
      ],
      "stateMutability": "view",
      "type": "function"
    },
    {
      "inputs": [],
      "name": "minPrice",
      "outputs": [
        {
          "internalType": "uint256",
          "name": "",
          "type": "uint256"
        }
      ],
      "stateMutability": "view",
      "type": "function"
    },
    {
      "inputs": [
        {
          "internalType": "uint256",
          "name": "_price",
          "type": "uint256"
        },
        {
          "internalType": "uint8[4][]",
          "name": "_numbers",
          "type": "uint8[4][]"
        }
      ],
      "name": "multiBuy",
      "outputs": [],
      "stateMutability": "nonpayable",
      "type": "function"
    },
    {
      "inputs": [
        {
          "internalType": "uint256[]",
          "name": "_tickets",
          "type": "uint256[]"
        }
      ],
      "name": "multiClaim",
      "outputs": [],
      "stateMutability": "nonpayable",
      "type": "function"
    },
    {
      "inputs": [],
      "name": "owner",
      "outputs": [
        {
          "internalType": "address",
          "name": "",
          "type": "address"
        }
      ],
      "stateMutability": "view",
      "type": "function"
    },
    {
      "inputs": [],
      "name": "renounceOwnership",
      "outputs": [],
      "stateMutability": "nonpayable",
      "type": "function"
    },
    {
      "inputs": [],
      "name": "reset",
      "outputs": [],
      "stateMutability": "nonpayable",
      "type": "function"
    },
    {
      "inputs": [
        {
          "internalType": "address",
          "name": "_adminAddress",
          "type": "address"
        }
      ],
      "name": "setAdmin",
      "outputs": [],
      "stateMutability": "nonpayable",
      "type": "function"
    },
    {
      "inputs": [
        {
          "internalType": "uint8",
          "name": "_allcation1",
          "type": "uint8"
        },
        {
          "internalType": "uint8",
          "name": "_allcation2",
          "type": "uint8"
        },
        {
          "internalType": "uint8",
          "name": "_allcation3",
          "type": "uint8"
        }
      ],
      "name": "setAllocation",
      "outputs": [],
      "stateMutability": "nonpayable",
      "type": "function"
    },
    {
      "inputs": [
        {
          "internalType": "uint8",
          "name": "_maxNumber",
          "type": "uint8"
        }
      ],
      "name": "setMaxNumber",
      "outputs": [],
      "stateMutability": "nonpayable",
      "type": "function"
    },
    {
      "inputs": [
        {
          "internalType": "uint256",
          "name": "_price",
          "type": "uint256"
        }
      ],
      "name": "setMinPrice",
      "outputs": [],
      "stateMutability": "nonpayable",
      "type": "function"
    },
    {
      "inputs": [],
      "name": "totalAddresses",
      "outputs": [
        {
          "internalType": "uint256",
          "name": "",
          "type": "uint256"
        }
      ],
      "stateMutability": "view",
      "type": "function"
    },
    {
      "inputs": [],
      "name": "totalAmount",
      "outputs": [
        {
          "internalType": "uint256",
          "name": "",
          "type": "uint256"
        }
      ],
      "stateMutability": "view",
      "type": "function"
    },
    {
      "inputs": [
        {
          "internalType": "address",
          "name": "newOwner",
          "type": "address"
        }
      ],
      "name": "transferOwnership",
      "outputs": [],
      "stateMutability": "nonpayable",
      "type": "function"
    },
    {
      "inputs": [
        {
          "internalType": "uint256",
          "name": "",
          "type": "uint256"
        },
        {
          "internalType": "uint64",
          "name": "",
          "type": "uint64"
        }
      ],
      "name": "userBuyAmountSum",
      "outputs": [
        {
          "internalType": "uint256",
          "name": "",
          "type": "uint256"
        }
      ],
      "stateMutability": "view",
      "type": "function"
    },
    {
      "inputs": [
        {
          "internalType": "address",
          "name": "",
          "type": "address"
        },
        {
          "internalType": "uint256",
          "name": "",
          "type": "uint256"
        }
      ],
      "name": "userInfo",
      "outputs": [
        {
          "internalType": "uint256",
          "name": "",
          "type": "uint256"
        }
      ],
      "stateMutability": "view",
      "type": "function"
    },
    {
      "inputs": [
        {
          "internalType": "uint256",
          "name": "",
          "type": "uint256"
        }
      ],
      "name": "winningNumbers",
      "outputs": [
        {
          "internalType": "uint8",
          "name": "",
          "type": "uint8"
        }
      ],
      "stateMutability": "view",
      "type": "function"
    }
  ],
  "bytecode": "0x60806040526000606f55600060705560006071556040518060800160405280600060ff168152602001600060ff168152602001600060ff168152602001600060ff168152506075906004620000569291906200006b565b503480156200006457600080fd5b506200012b565b826004601f01602090048101928215620000f95791602002820160005b83821115620000c857835183826101000a81548160ff021916908360ff160217905550926020019260010160208160000104928301926001030262000088565b8015620000f75782816101000a81549060ff0219169055600101602081600001049283019260010302620000c8565b505b5090506200010891906200010c565b5090565b5b80821115620001275760008160009055506001016200010d565b5090565b616b97806200013b6000396000f3fe608060405234801561001057600080fd5b50600436106102325760003560e01c8063704b6c0211610130578063cfad5277116100b8578063e13454161161007c578063e134541614610689578063e45be8eb146106a7578063e8adfbc7146106c5578063f2fde38b146106e3578063fc6f9468146106ff57610232565b8063cfad5277146105e5578063d1f7dbcf14610603578063d411b0fa14610633578063d826f88f14610663578063dc41825b1461066d57610232565b80638da5cb5b116100ff5780638da5cb5b14610541578063a42206c91461055f578063ae169a501461057b578063c06abfc714610597578063c39f49c0146105b557610232565b8063704b6c02146104cf578063715018a6146104eb5780637c5b4a37146104f5578063850bad941461051157610232565b8063438209f5116101be57806359bcbd681161018257806359bcbd68146104195780635c17623a146104495780635ea8cd12146104655780636575243f146104815780636a28f828146104b157610232565b8063438209f51461034f5780634e45f0951461036d5780634ed73d281461039d578063552164ee146103b957806356933719146103e957610232565b806321ce919d1161020557806321ce919d146102995780632bdff851146102c95780632f506b20146102e5578063324a5562146103155780633a4f69991461033157610232565b806314c20d571461023757806319d8ac61146102535780631a39d8ef146102715780631ff688661461028f575b600080fd5b610251600480360381019061024c9190614876565b61071d565b005b61025b6108aa565b6040516102689190615bd5565b60405180910390f35b6102796108b0565b6040516102869190615bd5565b60405180910390f35b6102976108b6565b005b6102b360048036038101906102ae9190614635565b6109ab565b6040516102c09190615bd5565b60405180910390f35b6102e360048036038101906102de919061481a565b6109dc565b005b6102ff60048036038101906102fa91906148f6565b610b66565b60405161030c9190615bd5565b60405180910390f35b61032f600480360381019061032a9190614936565b610b8b565b005b610339610c87565b6040516103469190615c34565b60405180910390f35b610357610c9a565b6040516103649190615846565b60405180910390f35b610387600480360381019061038291906147c0565b610cad565b6040516103949190615c34565b60405180910390f35b6103b760048036038101906103b29190614675565b610cd7565b005b6103d360048036038101906103ce91906147c0565b611069565b6040516103e09190615bd5565b60405180910390f35b61040360048036038101906103fe91906146be565b61110e565b604051610410919061580f565b60405180910390f35b610433600480360381019061042e91906148b6565b6113e1565b6040516104409190615c34565b60405180910390f35b610463600480360381019061045e9190614963565b61141a565b005b61047f600480360381019061047a91906147c0565b61153f565b005b61049b600480360381019061049691906148b6565b611627565b6040516104a89190615bd5565b60405180910390f35b6104b9611658565b6040516104c69190615bd5565b60405180910390f35b6104e960048036038101906104e491906145db565b61165e565b005b6104f36117b2565b005b61050f600480360381019061050a91906147c0565b61183a565b005b61052b600480360381019061052691906147c0565b611968565b6040516105389190615c34565b60405180910390f35b610549611992565b604051610556919061572d565b60405180910390f35b610579600480360381019061057491906147c0565b6119bc565b005b610595600480360381019061059091906147c0565b611dbd565b005b61059f6120c2565b6040516105ac91906158dd565b60405180910390f35b6105cf60048036038101906105ca91906148b6565b6120e8565b6040516105dc9190615bd5565b60405180910390f35b6105ed612119565b6040516105fa9190615bd5565b60405180910390f35b61061d600480360381019061061891906148b6565b61211f565b60405161062a9190615bd5565b60405180910390f35b61064d600480360381019061064891906147c0565b6121b6565b60405161065a9190615bd5565b60405180910390f35b61066b6125ec565b005b61068760048036038101906106829190614745565b612914565b005b610691612b58565b60405161069e9190615846565b60405180910390f35b6106af612b90565b6040516106bc9190615bd5565b60405180910390f35b6106cd612b96565b6040516106da91906158f8565b60405180910390f35b6106fd60048036038101906106f891906145db565b612bbc565b005b610707612cb4565b604051610714919061572d565b60405180910390f35b610725612b58565b15610765576040517f08c379a000000000000000000000000000000000000000000000000000000000815260040161075c90615af5565b60405180910390fd5b607460009054906101000a900460ff16156107b5576040517f08c379a00000000000000000000000000000000000000000000000000000000081526004016107ac90615a95565b60405180910390fd5b6069548210156107fa576040517f08c379a00000000000000000000000000000000000000000000000000000000081526004016107f190615ad5565b60405180910390fd5b60006108068383612cda565b9050610857333085606660009054906101000a900473ffffffffffffffffffffffffffffffffffffffff1673ffffffffffffffffffffffffffffffffffffffff16613038909392919063ffffffff16565b3373ffffffffffffffffffffffffffffffffffffffff167fe3d4187f6ca4248660cc0ac8b8056515bac4a8132be2eca31d6d0cc170722a7e8260405161089d9190615bd5565b60405180910390a2505050565b60725481565b60715481565b606860009054906101000a900473ffffffffffffffffffffffffffffffffffffffff1673ffffffffffffffffffffffffffffffffffffffff163373ffffffffffffffffffffffffffffffffffffffff1614610946576040517f08c379a000000000000000000000000000000000000000000000000000000000815260040161093d90615b35565b60405180910390fd5b61094e612b58565b1561098e576040517f08c379a000000000000000000000000000000000000000000000000000000000815260040161098590615bb5565b60405180910390fd5b6001607460006101000a81548160ff021916908315150217905550565b606e60205281600052604060002081815481106109c757600080fd5b90600052602060002001600091509150505481565b6109e4612b58565b15610a24576040517f08c379a0000000000000000000000000000000000000000000000000000000008152600401610a1b90615af5565b60405180910390fd5b606954821015610a69576040517f08c379a0000000000000000000000000000000000000000000000000000000008152600401610a6090615ad5565b60405180910390fd5b6000805b8251811015610ac357610a9a84848381518110610a8d57610a8c6164a8565b5b6020026020010151612cda565b50610aae84836130c190919063ffffffff16565b91508080610abb90616401565b915050610a6d565b50610b13333083606660009054906101000a900473ffffffffffffffffffffffffffffffffffffffff1673ffffffffffffffffffffffffffffffffffffffff16613038909392919063ffffffff16565b3373ffffffffffffffffffffffffffffffffffffffff167f96c35ad1cc1743f26cb87980c38042de8082358ec6d171a7986d6e11dddfe85782604051610b599190615bd5565b60405180910390a2505050565b606d602052816000526040600020602052806000526040600020600091509150505481565b606860009054906101000a900473ffffffffffffffffffffffffffffffffffffffff1673ffffffffffffffffffffffffffffffffffffffff163373ffffffffffffffffffffffffffffffffffffffff1614610c1b576040517f08c379a0000000000000000000000000000000000000000000000000000000008152600401610c1290615b35565b60405180910390fd5b80606860146101000a81548160ff021916908360ff1602179055503373ffffffffffffffffffffffffffffffffffffffff167f506d53b52bc18bc1700b98da33af73e7e3ac7eab9dc8ccdc73f311b91e17443f82604051610c7c9190615c19565b60405180910390a250565b606860149054906101000a900460ff1681565b607460009054906101000a900460ff1681565b60738160048110610cbd57600080fd5b60209182820401919006915054906101000a900460ff1681565b6000805b8251811015610f7557606760009054906101000a900473ffffffffffffffffffffffffffffffffffffffff1673ffffffffffffffffffffffffffffffffffffffff16636352211e848381518110610d3557610d346164a8565b5b60200260200101516040518263ffffffff1660e01b8152600401610d599190615bd5565b60206040518083038186803b158015610d7157600080fd5b505afa158015610d85573d6000803e3d6000fd5b505050506040513d601f19601f82011682018060405250810190610da99190614608565b73ffffffffffffffffffffffffffffffffffffffff163373ffffffffffffffffffffffffffffffffffffffff1614610e16576040517f08c379a0000000000000000000000000000000000000000000000000000000008152600401610e0d90615a35565b60405180910390fd5b606760009054906101000a900473ffffffffffffffffffffffffffffffffffffffff1673ffffffffffffffffffffffffffffffffffffffff166336dbd2f9848381518110610e6757610e666164a8565b5b60200260200101516040518263ffffffff1660e01b8152600401610e8b9190615bd5565b60206040518083038186803b158015610ea357600080fd5b505afa158015610eb7573d6000803e3d6000fd5b505050506040513d601f19601f82011682018060405250810190610edb9190614718565b15610f1b576040517f08c379a0000000000000000000000000000000000000000000000000000000008152600401610f1290615a75565b60405180910390fd5b6000610f40848381518110610f3357610f326164a8565b5b60200260200101516121b6565b90506000811115610f6157610f5e83826130c190919063ffffffff16565b92505b508080610f6d90616401565b915050610cdb565b50606760009054906101000a900473ffffffffffffffffffffffffffffffffffffffff1673ffffffffffffffffffffffffffffffffffffffff166374310355836040518263ffffffff1660e01b8152600401610fd191906157ed565b600060405180830381600087803b158015610feb57600080fd5b505af1158015610fff573d6000803e3d6000fd5b5050505060008111156110175761101633826130d7565b5b3373ffffffffffffffffffffffffffffffffffffffff167f6606374655494f5c0e2d6f392656e9777afd9ac5f61527d1bcad50b7e918a03e8260405161105d9190615bd5565b60405180910390a25050565b6000606f548211156110b0576040517f08c379a00000000000000000000000000000000000000000000000000000000081526004016110a790615975565b60405180910390fd5b6110b8612b58565b1580156110c65750606f5482145b156110d5576071549050611109565b606c60008381526020019081526020016000206000815481106110fb576110fa6164a8565b5b906000526020600020015490505b919050565b611116614115565b60008260036004811061112c5761112b6164a8565b5b6020020151600884600260048110611147576111466164a8565b5b602002015160ff16901b601085600160048110611167576111666164a8565b5b602002015160ff16901b601886600060048110611187576111866164a8565b5b602002015160ff16901b61119b9190615e59565b6111a59190615e59565b6111af9190615e59565b60ff1690506111bc614115565b81816000600b81106111d1576111d06164a8565b5b602002019063ffffffff16908163ffffffff168152505062ffffff8216816001600b8110611202576112016164a8565b5b602002019063ffffffff16908163ffffffff168152505063ff00ffff8216816002600b8110611234576112336164a8565b5b602002019063ffffffff16908163ffffffff168152505063ffff00ff8216816003600b8110611266576112656164a8565b5b602002019063ffffffff16908163ffffffff168152505063ffffff008216816004600b8110611298576112976164a8565b5b602002019063ffffffff16908163ffffffff168152505061ffff8216816005600b81106112c8576112c76164a8565b5b602002019063ffffffff16908163ffffffff168152505062ff00ff8216816006600b81106112f9576112f86164a8565b5b602002019063ffffffff16908163ffffffff168152505062ffff008216816007600b811061132a576113296164a8565b5b602002019063ffffffff16908163ffffffff168152505063ff0000ff8216816008600b811061135c5761135b6164a8565b5b602002019063ffffffff16908163ffffffff168152505063ff00ff008216816009600b811061138e5761138d6164a8565b5b602002019063ffffffff16908163ffffffff168152505063ffff0000821681600a600b81106113c0576113bf6164a8565b5b602002019063ffffffff16908163ffffffff16815250508092505050919050565b606a60205281600052604060002081600481106113fd57600080fd5b60209182820401919006915091509054906101000a900460ff1681565b606860009054906101000a900473ffffffffffffffffffffffffffffffffffffffff1673ffffffffffffffffffffffffffffffffffffffff163373ffffffffffffffffffffffffffffffffffffffff16146114aa576040517f08c379a00000000000000000000000000000000000000000000000000000000081526004016114a190615b35565b60405180910390fd5b60405180606001604052808460ff1660ff1681526020018360ff1660ff1681526020018260ff1660ff1681525060659060036114e7929190614138565b503373ffffffffffffffffffffffffffffffffffffffff167f084866ac1c2208396290fe35a38f78993aa38fa5f458ad832d768e4ac6d18fa384848460405161153293929190615c4f565b60405180910390a2505050565b606860009054906101000a900473ffffffffffffffffffffffffffffffffffffffff1673ffffffffffffffffffffffffffffffffffffffff163373ffffffffffffffffffffffffffffffffffffffff16146115cf576040517f08c379a00000000000000000000000000000000000000000000000000000000081526004016115c690615b35565b60405180910390fd5b806069819055503373ffffffffffffffffffffffffffffffffffffffff167f84cb1bb9f2cf0bbe5de6714c4b085e5ace133558133f8ea973b7b3177996ce818260405161161c9190615bd5565b60405180910390a250565b606b602052816000526040600020818154811061164357600080fd5b90600052602060002001600091509150505481565b606f5481565b6116666132f9565b73ffffffffffffffffffffffffffffffffffffffff16611684611992565b73ffffffffffffffffffffffffffffffffffffffff16146116da576040517f08c379a00000000000000000000000000000000000000000000000000000000081526004016116d190615b15565b60405180910390fd5b600073ffffffffffffffffffffffffffffffffffffffff168173ffffffffffffffffffffffffffffffffffffffff16141561171457600080fd5b80606860006101000a81548173ffffffffffffffffffffffffffffffffffffffff021916908373ffffffffffffffffffffffffffffffffffffffff1602179055508073ffffffffffffffffffffffffffffffffffffffff163373ffffffffffffffffffffffffffffffffffffffff167f848ac24ab84501710d6631faab117b66b79aba7ec6f7778cf3bcff428c1a4efc60405160405180910390a350565b6117ba6132f9565b73ffffffffffffffffffffffffffffffffffffffff166117d8611992565b73ffffffffffffffffffffffffffffffffffffffff161461182e576040517f08c379a000000000000000000000000000000000000000000000000000000000815260040161182590615b15565b60405180910390fd5b6118386000613301565b565b606860009054906101000a900473ffffffffffffffffffffffffffffffffffffffff1673ffffffffffffffffffffffffffffffffffffffff163373ffffffffffffffffffffffffffffffffffffffff16146118ca576040517f08c379a00000000000000000000000000000000000000000000000000000000081526004016118c190615b35565b60405180910390fd5b6119173382606660009054906101000a900473ffffffffffffffffffffffffffffffffffffffff1673ffffffffffffffffffffffffffffffffffffffff166133c79092919063ffffffff16565b3373ffffffffffffffffffffffffffffffffffffffff167f050d1c64cc22ce461b9bc14f6b73852566da02b03c155242bc63169d1fec42aa8260405161195d9190615bd5565b60405180910390a250565b6065816003811061197857600080fd5b60209182820401919006915054906101000a900460ff1681565b6000603360009054906101000a900473ffffffffffffffffffffffffffffffffffffffff16905090565b606860009054906101000a900473ffffffffffffffffffffffffffffffffffffffff1673ffffffffffffffffffffffffffffffffffffffff163373ffffffffffffffffffffffffffffffffffffffff1614611a4c576040517f08c379a0000000000000000000000000000000000000000000000000000000008152600401611a4390615b35565b60405180910390fd5b611a54612b58565b15611a94576040517f08c379a0000000000000000000000000000000000000000000000000000000008152600401611a8b90615935565b60405180910390fd5b607460009054906101000a900460ff16611ae3576040517f08c379a0000000000000000000000000000000000000000000000000000000008152600401611ada90615a55565b60405180910390fd5b6000806000606860149054906101000a900460ff1690506000600143611b099190615f1b565b40905060005b600a811015611b3757611b23606f54611069565b508080611b2f90616401565b915050611b0f565b5060005a9050816070548288604051602001611b569493929190615898565b6040516020818303038152906040528051906020012094508460001c93506001838506019350836073600060048110611b9257611b916164a8565b5b602091828204019190066101000a81548160ff021916908360ff160217905550816071548288604051602001611bcb9493929190615898565b6040516020818303038152906040528051906020012094508460001c93506001838506019350836073600160048110611c0757611c066164a8565b5b602091828204019190066101000a81548160ff021916908360ff160217905550816072548288604051602001611c409493929190615898565b6040516020818303038152906040528051906020012094508460001c93506001838506019350836073600260048110611c7c57611c7b6164a8565b5b602091828204019190066101000a81548160ff021916908360ff160217905550818187604051602001611cb193929190615861565b6040516020818303038152906040528051906020012094508460001c93506001838506019350836073600360048110611ced57611cec6164a8565b5b602091828204019190066101000a81548160ff021916908360ff1602179055506073606a6000606f548152602001908152602001600020906004611d329291906141d2565b50611d3b61344d565b606c6000606f548152602001908152602001600020906004611d5e92919061421d565b506000607460006101000a81548160ff021916908315150217905550606f547fa13e935b188993737b3009d62bd916dcbe9e82d8236d75981eeadf26a1460d3d6073604051611dad919061582b565b60405180910390a2505050505050565b606760009054906101000a900473ffffffffffffffffffffffffffffffffffffffff1673ffffffffffffffffffffffffffffffffffffffff16636352211e826040518263ffffffff1660e01b8152600401611e189190615bd5565b60206040518083038186803b158015611e3057600080fd5b505afa158015611e44573d6000803e3d6000fd5b505050506040513d601f19601f82011682018060405250810190611e689190614608565b73ffffffffffffffffffffffffffffffffffffffff163373ffffffffffffffffffffffffffffffffffffffff1614611ed5576040517f08c379a0000000000000000000000000000000000000000000000000000000008152600401611ecc90615a35565b60405180910390fd5b606760009054906101000a900473ffffffffffffffffffffffffffffffffffffffff1673ffffffffffffffffffffffffffffffffffffffff166336dbd2f9826040518263ffffffff1660e01b8152600401611f309190615bd5565b60206040518083038186803b158015611f4857600080fd5b505afa158015611f5c573d6000803e3d6000fd5b505050506040513d601f19601f82011682018060405250810190611f809190614718565b15611fc0576040517f08c379a0000000000000000000000000000000000000000000000000000000008152600401611fb790615a75565b60405180910390fd5b6000611fcb826121b6565b9050606760009054906101000a900473ffffffffffffffffffffffffffffffffffffffff1673ffffffffffffffffffffffffffffffffffffffff1663ae169a50836040518263ffffffff1660e01b81526004016120289190615bd5565b600060405180830381600087803b15801561204257600080fd5b505af1158015612056573d6000803e3d6000fd5b50505050600081111561206e5761206d33826130d7565b5b3373ffffffffffffffffffffffffffffffffffffffff167f34fcbac0073d7c3d388e51312faf357774904998eeb8fca628b9e6f65ee1cbf783836040516120b6929190615bf0565b60405180910390a25050565b606660009054906101000a900473ffffffffffffffffffffffffffffffffffffffff1681565b606c602052816000526040600020818154811061210457600080fd5b90600052602060002001600091509150505481565b60705481565b600060028210158015612133575060048211155b612172576040517f08c379a0000000000000000000000000000000000000000000000000000000008152600401612169906159f5565b60405180910390fd5b606c60008481526020019081526020016000208260056121929190615f1b565b815481106121a3576121a26164a8565b5b9060005260206000200154905092915050565b600080606760009054906101000a900473ffffffffffffffffffffffffffffffffffffffff1673ffffffffffffffffffffffffffffffffffffffff16631bf1e00f846040518263ffffffff1660e01b81526004016122149190615bd5565b60206040518083038186803b15801561222c57600080fd5b505afa158015612240573d6000803e3d6000fd5b505050506040513d601f19601f8201168201806040525081019061226491906147ed565b90506000606760009054906101000a900473ffffffffffffffffffffffffffffffffffffffff1673ffffffffffffffffffffffffffffffffffffffff16635f8e26a7856040518263ffffffff1660e01b81526004016122c39190615bd5565b60806040518083038186803b1580156122db57600080fd5b505afa1580156122ef573d6000803e3d6000fd5b505050506040513d601f19601f8201168201806040525081019061231391906146eb565b90506000606a6000848152602001908152602001600020600480602002604051908101604052809291908260048015612387576020028201916000905b82829054906101000a900460ff1660ff16815260200190600101906020826000010492830192600103820291508084116123505790505b505050505090506000816000600481106123a4576123a36164a8565b5b602002015160ff1614156123ed576040517f08c379a00000000000000000000000000000000000000000000000000000000081526004016123e490615955565b60405180910390fd5b6000805b60048110156124595783816004811061240d5761240c6164a8565b5b602002015160ff16838260048110612428576124276164a8565b5b602002015160ff161415612446576001826124439190615e03565b91505b808061245190616401565b9150506123f1565b50600060018211156125c8576000606760009054906101000a900473ffffffffffffffffffffffffffffffffffffffff1673ffffffffffffffffffffffffffffffffffffffff1663f7a0c0ca896040518263ffffffff1660e01b81526004016124c29190615bd5565b60206040518083038186803b1580156124da57600080fd5b505afa1580156124ee573d6000803e3d6000fd5b505050506040513d601f19601f8201168201806040525081019061251291906147ed565b9050600061257c606461256e606587600461252d9190615f1b565b6003811061253e5761253d6164a8565b5b602091828204019190069054906101000a900460ff1660ff166125608b611069565b61397a90919063ffffffff16565b61399090919063ffffffff16565b90506125c361258b888661211f565b6125b5836125a764e8d4a510008761397a90919063ffffffff16565b61397a90919063ffffffff16565b61399090919063ffffffff16565b925050505b6125e064e8d4a510008261399090919063ffffffff16565b95505050505050919050565b606860009054906101000a900473ffffffffffffffffffffffffffffffffffffffff1673ffffffffffffffffffffffffffffffffffffffff163373ffffffffffffffffffffffffffffffffffffffff161461267c576040517f08c379a000000000000000000000000000000000000000000000000000000000815260040161267390615b35565b60405180910390fd5b612684612b58565b6126c3576040517f08c379a00000000000000000000000000000000000000000000000000000000081526004016126ba90615b75565b60405180910390fd5b4260728190555060006070819055506000607181905550600060736000600481106126f1576126f06164a8565b5b602091828204019190066101000a81548160ff021916908360ff16021790555060006073600160048110612728576127276164a8565b5b602091828204019190066101000a81548160ff021916908360ff1602179055506000607360026004811061275f5761275e6164a8565b5b602091828204019190066101000a81548160ff021916908360ff16021790555060006073600360048110612796576127956164a8565b5b602091828204019190066101000a81548160ff021916908360ff1602179055506000607460006101000a81548160ff0219169083151502179055506001606f546127e09190615e03565b606f8190555060006128016001606f546127fa9190615f1b565b600461211f565b14156128e357600061287260646128646065600060038110612826576128256164a8565b5b602091828204019190069054906101000a900460ff1660ff166128566001606f546128519190615f1b565b611069565b61397a90919063ffffffff16565b61399090919063ffffffff16565b90506128e18160756004806020026040519081016040528092919082600480156128d7576020028201916000905b82829054906101000a900460ff1660ff16815260200190600101906020826000010492830192600103820291508084116128a05790505b50505050506139a6565b505b606f547f01c3cbb0d62726ab09d163873ebf9aed99dd8dc08e57bc938f458132fd178cf660405160405180910390a2565b600060019054906101000a900460ff168061293a575060008054906101000a900460ff16155b612979576040517f08c379a000000000000000000000000000000000000000000000000000000000815260040161297090615ab5565b60405180910390fd5b60008060019054906101000a900460ff1615905080156129c9576001600060016101000a81548160ff02191690831515021790555060016000806101000a81548160ff0219169083151502179055505b600073ffffffffffffffffffffffffffffffffffffffff168273ffffffffffffffffffffffffffffffffffffffff161415612a0357600080fd5b85606660006101000a81548173ffffffffffffffffffffffffffffffffffffffff021916908373ffffffffffffffffffffffffffffffffffffffff16021790555084606760006101000a81548173ffffffffffffffffffffffffffffffffffffffff021916908373ffffffffffffffffffffffffffffffffffffffff1602179055508360698190555082606860146101000a81548160ff021916908360ff16021790555081606860006101000a81548173ffffffffffffffffffffffffffffffffffffffff021916908373ffffffffffffffffffffffffffffffffffffffff160217905550426072819055506040518060600160405280603c60ff168152602001601460ff168152602001600a60ff168152506065906003612b26929190614138565b50612b2f613be7565b8015612b505760008060016101000a81548160ff0219169083151502179055505b505050505050565b6000806073600060048110612b7057612b6f6164a8565b5b602091828204019190069054906101000a900460ff1660ff161415905090565b60695481565b606760009054906101000a900473ffffffffffffffffffffffffffffffffffffffff1681565b612bc46132f9565b73ffffffffffffffffffffffffffffffffffffffff16612be2611992565b73ffffffffffffffffffffffffffffffffffffffff1614612c38576040517f08c379a0000000000000000000000000000000000000000000000000000000008152600401612c2f90615b15565b60405180910390fd5b600073ffffffffffffffffffffffffffffffffffffffff168173ffffffffffffffffffffffffffffffffffffffff161415612ca8576040517f08c379a0000000000000000000000000000000000000000000000000000000008152600401612c9f906159b5565b60405180910390fd5b612cb181613301565b50565b606860009054906101000a900473ffffffffffffffffffffffffffffffffffffffff1681565b600080600090505b6004811015612d6d57606860149054906101000a900460ff1660ff16838260048110612d1157612d106164a8565b5b602002015160ff161115612d5a576040517f08c379a0000000000000000000000000000000000000000000000000000000008152600401612d5190615b95565b60405180910390fd5b8080612d6590616401565b915050612ce2565b506000606760009054906101000a900473ffffffffffffffffffffffffffffffffffffffff1673ffffffffffffffffffffffffffffffffffffffff166337391c00338587606f546040518563ffffffff1660e01b8152600401612dd3949392919061577f565b602060405180830381600087803b158015612ded57600080fd5b505af1158015612e01573d6000803e3d6000fd5b505050506040513d601f19601f82011682018060405250810190612e2591906147ed565b9050606b6000606f5481526020019081526020016000208190806001815401808255809150506001900390600052602060002001600090919091909150556000606e60003373ffffffffffffffffffffffffffffffffffffffff1673ffffffffffffffffffffffffffffffffffffffff168152602001908152602001600020805490501415612ec4576001607054612ebd9190615e03565b6070819055505b606e60003373ffffffffffffffffffffffffffffffffffffffff1673ffffffffffffffffffffffffffffffffffffffff168152602001908152602001600020819080600181540180825580915050600190039060005260206000200160009091909190915055612f3f846071546130c190919063ffffffff16565b607181905550426072819055506000612f578461110e565b905060005b600b60ff1681101561302c57612fc886606d6000606f54815260200190815260200160002060008585600b8110612f9657612f956164a8565b5b602002015163ffffffff1667ffffffffffffffff168152602001908152602001600020546130c190919063ffffffff16565b606d6000606f54815260200190815260200160002060008484600b8110612ff257612ff16164a8565b5b602002015163ffffffff1667ffffffffffffffff16815260200190815260200160002081905550808061302490616401565b915050612f5c565b50819250505092915050565b6130bb846323b872dd60e01b85858560405160240161305993929190615748565b604051602081830303815290604052907bffffffffffffffffffffffffffffffffffffffffffffffffffffffff19166020820180517bffffffffffffffffffffffffffffffffffffffffffffffffffffffff8381831617835250505050613cd0565b50505050565b600081836130cf9190615e03565b905092915050565b6000606660009054906101000a900473ffffffffffffffffffffffffffffffffffffffff1673ffffffffffffffffffffffffffffffffffffffff166370a08231306040518263ffffffff1660e01b8152600401613134919061572d565b60206040518083038186803b15801561314c57600080fd5b505afa158015613160573d6000803e3d6000fd5b505050506040513d601f19601f8201168201806040525081019061318491906147ed565b90508082111561324357606660009054906101000a900473ffffffffffffffffffffffffffffffffffffffff1673ffffffffffffffffffffffffffffffffffffffff1663a9059cbb84836040518363ffffffff1660e01b81526004016131eb9291906157c4565b602060405180830381600087803b15801561320557600080fd5b505af1158015613219573d6000803e3d6000fd5b505050506040513d601f19601f8201168201806040525081019061323d9190614718565b506132f4565b606660009054906101000a900473ffffffffffffffffffffffffffffffffffffffff1673ffffffffffffffffffffffffffffffffffffffff1663a9059cbb84846040518363ffffffff1660e01b81526004016132a09291906157c4565b602060405180830381600087803b1580156132ba57600080fd5b505af11580156132ce573d6000803e3d6000fd5b505050506040513d601f19601f820116820180604052508101906132f29190614718565b505b505050565b600033905090565b6000603360009054906101000a900473ffffffffffffffffffffffffffffffffffffffff16905081603360006101000a81548173ffffffffffffffffffffffffffffffffffffffff021916908373ffffffffffffffffffffffffffffffffffffffff1602179055508173ffffffffffffffffffffffffffffffffffffffff168173ffffffffffffffffffffffffffffffffffffffff167f8be0079c531659141344cd1fd0a4f28419497f9722a3daafe3b4186f6b6457e060405160405180910390a35050565b6134488363a9059cbb60e01b84846040516024016133e69291906157c4565b604051602081830303815290604052907bffffffffffffffffffffffffffffffffffffffffffffffffffffffff19166020820180517bffffffffffffffffffffffffffffffffffffffffffffffffffffffff8381831617835250505050613cd0565b505050565b61345561426a565b60006134c360736004806020026040519081016040528092919082600480156134b9576020028201916000905b82829054906101000a900460ff1660ff16815260200190600101906020826000010492830192600103820291508084116134825790505b505050505061110e565b90506000606d6000606f5481526020019081526020016000206000836000600b81106134f2576134f16164a8565b5b602002015163ffffffff1667ffffffffffffffff1681526020019081526020016000205490506000606d6000606f5481526020019081526020016000206000846001600b8110613545576135446164a8565b5b602002015163ffffffff1667ffffffffffffffff1681526020019081526020016000205490506135cc606d6000606f5481526020019081526020016000206000856002600b8110613599576135986164a8565b5b602002015163ffffffff1667ffffffffffffffff16815260200190815260200160002054826130c190919063ffffffff16565b905061362f606d6000606f5481526020019081526020016000206000856003600b81106135fc576135fb6164a8565b5b602002015163ffffffff1667ffffffffffffffff16815260200190815260200160002054826130c190919063ffffffff16565b9050613692606d6000606f5481526020019081526020016000206000856004600b811061365f5761365e6164a8565b5b602002015163ffffffff1667ffffffffffffffff16815260200190815260200160002054826130c190919063ffffffff16565b90506136ba6136ab60048461397a90919063ffffffff16565b82613d9790919063ffffffff16565b90506000606d6000606f5481526020019081526020016000206000856005600b81106136e9576136e86164a8565b5b602002015163ffffffff1667ffffffffffffffff168152602001908152602001600020549050613770606d6000606f5481526020019081526020016000206000866006600b811061373d5761373c6164a8565b5b602002015163ffffffff1667ffffffffffffffff16815260200190815260200160002054826130c190919063ffffffff16565b90506137d3606d6000606f5481526020019081526020016000206000866007600b81106137a05761379f6164a8565b5b602002015163ffffffff1667ffffffffffffffff16815260200190815260200160002054826130c190919063ffffffff16565b9050613836606d6000606f5481526020019081526020016000206000866008600b8110613803576138026164a8565b5b602002015163ffffffff1667ffffffffffffffff16815260200190815260200160002054826130c190919063ffffffff16565b9050613899606d6000606f5481526020019081526020016000206000866009600b8110613866576138656164a8565b5b602002015163ffffffff1667ffffffffffffffff16815260200190815260200160002054826130c190919063ffffffff16565b90506138fc606d6000606f548152602001908152602001600020600086600a600b81106138c9576138c86164a8565b5b602002015163ffffffff1667ffffffffffffffff16815260200190815260200160002054826130c190919063ffffffff16565b905061392461391560038461397a90919063ffffffff16565b82613d9790919063ffffffff16565b905061394c61393d60068561397a90919063ffffffff16565b82613d9790919063ffffffff16565b9050604051806080016040528060715481526020018481526020018381526020018281525094505050505090565b600081836139889190615ec1565b905092915050565b6000818361399e9190615e90565b905092915050565b6139ae612b58565b156139ee576040517f08c379a00000000000000000000000000000000000000000000000000000000081526004016139e590615af5565b60405180910390fd5b60005b6004811015613a7c57606860149054906101000a900460ff1660ff16828260048110613a2057613a1f6164a8565b5b602002015160ff161115613a69576040517f08c379a0000000000000000000000000000000000000000000000000000000008152600401613a60906159d5565b60405180910390fd5b8080613a7490616401565b9150506139f1565b506000606760009054906101000a900473ffffffffffffffffffffffffffffffffffffffff1673ffffffffffffffffffffffffffffffffffffffff166337391c00308486606f546040518563ffffffff1660e01b8152600401613ae2949392919061577f565b602060405180830381600087803b158015613afc57600080fd5b505af1158015613b10573d6000803e3d6000fd5b505050506040513d601f19601f82011682018060405250810190613b3491906147ed565b9050606b6000606f548152602001908152602001600020819080600181540180825580915050600190039060005260206000200160009091909190915055613b87836071546130c190919063ffffffff16565b607181905550426072819055503073ffffffffffffffffffffffffffffffffffffffff167fe3d4187f6ca4248660cc0ac8b8056515bac4a8132be2eca31d6d0cc170722a7e82604051613bda9190615bd5565b60405180910390a2505050565b600060019054906101000a900460ff1680613c0d575060008054906101000a900460ff16155b613c4c576040517f08c379a0000000000000000000000000000000000000000000000000000000008152600401613c4390615ab5565b60405180910390fd5b60008060019054906101000a900460ff161590508015613c9c576001600060016101000a81548160ff02191690831515021790555060016000806101000a81548160ff0219169083151502179055505b613ca4613dad565b613cac613e86565b8015613ccd5760008060016101000a81548160ff0219169083151502179055505b50565b6000613d32826040518060400160405280602081526020017f5361666542455032303a206c6f772d6c6576656c2063616c6c206661696c65648152508573ffffffffffffffffffffffffffffffffffffffff16613f6f9092919063ffffffff16565b9050600081511115613d925780806020019051810190613d529190614718565b613d91576040517f08c379a0000000000000000000000000000000000000000000000000000000008152600401613d8890615995565b60405180910390fd5b5b505050565b60008183613da59190615f1b565b905092915050565b600060019054906101000a900460ff1680613dd3575060008054906101000a900460ff16155b613e12576040517f08c379a0000000000000000000000000000000000000000000000000000000008152600401613e0990615ab5565b60405180910390fd5b60008060019054906101000a900460ff161590508015613e62576001600060016101000a81548160ff02191690831515021790555060016000806101000a81548160ff0219169083151502179055505b8015613e835760008060016101000a81548160ff0219169083151502179055505b50565b600060019054906101000a900460ff1680613eac575060008054906101000a900460ff16155b613eeb576040517f08c379a0000000000000000000000000000000000000000000000000000000008152600401613ee290615ab5565b60405180910390fd5b60008060019054906101000a900460ff161590508015613f3b576001600060016101000a81548160ff02191690831515021790555060016000806101000a81548160ff0219169083151502179055505b613f4b613f466132f9565b613301565b8015613f6c5760008060016101000a81548160ff0219169083151502179055505b50565b6060613f7e8484600085613f87565b90509392505050565b606082471015613fcc576040517f08c379a0000000000000000000000000000000000000000000000000000000008152600401613fc390615a15565b60405180910390fd5b613fd58561409b565b614014576040517f08c379a000000000000000000000000000000000000000000000000000000000815260040161400b90615b55565b60405180910390fd5b6000808673ffffffffffffffffffffffffffffffffffffffff16858760405161403d9190615716565b60006040518083038185875af1925050503d806000811461407a576040519150601f19603f3d011682016040523d82523d6000602084013e61407f565b606091505b509150915061408f8282866140ae565b92505050949350505050565b600080823b905060008111915050919050565b606083156140be5782905061410e565b6000835111156140d15782518084602001fd5b816040517f08c379a00000000000000000000000000000000000000000000000000000000081526004016141059190615913565b60405180910390fd5b9392505050565b604051806101600160405280600b90602082028036833780820191505090505090565b826003601f016020900481019282156141c15791602002820160005b8382111561419257835183826101000a81548160ff021916908360ff1602179055509260200192600101602081600001049283019260010302614154565b80156141bf5782816101000a81549060ff0219169055600101602081600001049283019260010302614192565b505b5090506141ce919061428c565b5090565b826004601f0160209004810192821561420c5791601f016020900482015b8281111561420b5782548255916001019190600101906141f0565b5b509050614219919061428c565b5090565b828054828255906000526020600020908101928215614259579160200282015b8281111561425857825182559160200191906001019061423d565b5b509050614266919061428c565b5090565b6040518060800160405280600490602082028036833780820191505090505090565b5b808211156142a557600081600090555060010161428d565b5090565b60006142bc6142b784615cab565b615c86565b905080838252602082019050828560808602820111156142df576142de61650b565b5b60005b8581101561430f57816142f588826144dd565b8452602084019350608083019250506001810190506142e2565b5050509392505050565b600061432c61432784615cd7565b615c86565b9050808382526020820190508285602086028201111561434f5761434e61650b565b5b60005b8581101561437f57816143658882614572565b845260208401935060208301925050600181019050614352565b5050509392505050565b600061439c61439784615d03565b615c86565b905080828560208602820111156143b6576143b561650b565b5b60005b858110156143e657816143cc88826145b1565b8452602084019350602083019250506001810190506143b9565b5050509392505050565b60006144036143fe84615d03565b615c86565b9050808285602086028201111561441d5761441c61650b565b5b60005b8581101561444d578161443388826145c6565b845260208401935060208301925050600181019050614420565b5050509392505050565b60008135905061446681616ac0565b92915050565b60008151905061447b81616ac0565b92915050565b600082601f83011261449657614495616506565b5b81356144a68482602086016142a9565b91505092915050565b600082601f8301126144c4576144c3616506565b5b81356144d4848260208601614319565b91505092915050565b600082601f8301126144f2576144f1616506565b5b60046144ff848285614389565b91505092915050565b600082601f83011261451d5761451c616506565b5b600461452a8482856143f0565b91505092915050565b60008151905061454281616ad7565b92915050565b60008135905061455781616aee565b92915050565b60008135905061456c81616b05565b92915050565b60008135905061458181616b1c565b92915050565b60008151905061459681616b1c565b92915050565b6000813590506145ab81616b33565b92915050565b6000813590506145c081616b4a565b92915050565b6000815190506145d581616b4a565b92915050565b6000602082840312156145f1576145f0616515565b5b60006145ff84828501614457565b91505092915050565b60006020828403121561461e5761461d616515565b5b600061462c8482850161446c565b91505092915050565b6000806040838503121561464c5761464b616515565b5b600061465a85828601614457565b925050602061466b85828601614572565b9150509250929050565b60006020828403121561468b5761468a616515565b5b600082013567ffffffffffffffff8111156146a9576146a8616510565b5b6146b5848285016144af565b91505092915050565b6000608082840312156146d4576146d3616515565b5b60006146e2848285016144dd565b91505092915050565b60006080828403121561470157614700616515565b5b600061470f84828501614508565b91505092915050565b60006020828403121561472e5761472d616515565b5b600061473c84828501614533565b91505092915050565b600080600080600060a0868803121561476157614760616515565b5b600061476f88828901614548565b95505060206147808882890161455d565b945050604061479188828901614572565b93505060606147a2888289016145b1565b92505060806147b388828901614457565b9150509295509295909350565b6000602082840312156147d6576147d5616515565b5b60006147e484828501614572565b91505092915050565b60006020828403121561480357614802616515565b5b600061481184828501614587565b91505092915050565b6000806040838503121561483157614830616515565b5b600061483f85828601614572565b925050602083013567ffffffffffffffff8111156148605761485f616510565b5b61486c85828601614481565b9150509250929050565b60008060a0838503121561488d5761488c616515565b5b600061489b85828601614572565b92505060206148ac858286016144dd565b9150509250929050565b600080604083850312156148cd576148cc616515565b5b60006148db85828601614572565b92505060206148ec85828601614572565b9150509250929050565b6000806040838503121561490d5761490c616515565b5b600061491b85828601614572565b925050602061492c8582860161459c565b9150509250929050565b60006020828403121561494c5761494b616515565b5b600061495a848285016145b1565b91505092915050565b60008060006060848603121561497c5761497b616515565b5b600061498a868287016145b1565b935050602061499b868287016145b1565b92505060406149ac868287016145b1565b9150509250925092565b60006149c283836156bc565b60208301905092915050565b60006149da83836156da565b60208301905092915050565b60006149f283836156f8565b60208301905092915050565b614a0781615f5c565b82525050565b6000614a1882615d57565b614a228185615dc0565b9350614a2d83615d29565b8060005b83811015614a5e578151614a4588826149b6565b9750614a5083615d99565b925050600181019050614a31565b5085935050505092915050565b614a7481615d62565b614a7e8184615dd1565b9250614a8982615d39565b8060005b83811015614aba578151614aa187826149ce565b9650614aac83615da6565b925050600181019050614a8d565b505050505050565b614acb81615d6d565b614ad58184615ddc565b9250614ae082615d43565b8060005b83811015614b11578151614af887826149e6565b9650614b0383615db3565b925050600181019050614ae4565b505050505050565b614b2281615d78565b614b2c8184615ddc565b925082614b3883615d4d565b60008015614e64575b83600160200382011015614e63578154614b6387614b5e83616090565b6156f8565b602087019650614b7b87614b76836161ae565b6156f8565b602087019650614b9387614b8e836162cc565b6156f8565b602087019650614bab87614ba68361631a565b6156f8565b602087019650614bc387614bbe83616334565b6156f8565b602087019650614bdb87614bd68361634e565b6156f8565b602087019650614bf387614bee83616368565b6156f8565b602087019650614c0b87614c0683616382565b6156f8565b602087019650614c2387614c1e8361639c565b6156f8565b602087019650614c3b87614c36836163b6565b6156f8565b602087019650614c5387614c4e836160aa565b6156f8565b602087019650614c6b87614c66836160c4565b6156f8565b602087019650614c8387614c7e836160de565b6156f8565b602087019650614c9b87614c96836160f8565b6156f8565b602087019650614cb387614cae83616112565b6156f8565b602087019650614ccb87614cc68361612c565b6156f8565b602087019650614ce387614cde83616146565b6156f8565b602087019650614cfb87614cf683616160565b6156f8565b602087019650614d1387614d0e8361617a565b6156f8565b602087019650614d2b87614d2683616194565b6156f8565b602087019650614d4387614d3e836161c8565b6156f8565b602087019650614d5b87614d56836161e2565b6156f8565b602087019650614d7387614d6e836161fc565b6156f8565b602087019650614d8b87614d8683616216565b6156f8565b602087019650614da387614d9e83616230565b6156f8565b602087019650614dbb87614db68361624a565b6156f8565b602087019650614dd387614dce83616264565b6156f8565b602087019650614deb87614de68361627e565b6156f8565b602087019650614e0387614dfe83616298565b6156f8565b602087019650614e1b87614e16836162b2565b6156f8565b602087019650614e3387614e2e836162e6565b6156f8565b602087019650614e4b87614e4683616300565b6156f8565b60208701965060018301925050602081019050614b41565b5b60011561532f578154600115614e9357614e8687614e8183616090565b6156f8565b6020870196506001820191505b600115614eb957614eac87614ea7836161ae565b6156f8565b6020870196506001820191505b600115614edf57614ed287614ecd836162cc565b6156f8565b6020870196506001820191505b600115614f0557614ef887614ef38361631a565b6156f8565b6020870196506001820191505b600015614f2b57614f1e87614f1983616334565b6156f8565b6020870196506001820191505b600015614f5157614f4487614f3f8361634e565b6156f8565b6020870196506001820191505b600015614f7757614f6a87614f6583616368565b6156f8565b6020870196506001820191505b600015614f9d57614f9087614f8b83616382565b6156f8565b6020870196506001820191505b600015614fc357614fb687614fb18361639c565b6156f8565b6020870196506001820191505b600015614fe957614fdc87614fd7836163b6565b6156f8565b6020870196506001820191505b60001561500f5761500287614ffd836160aa565b6156f8565b6020870196506001820191505b6000156150355761502887615023836160c4565b6156f8565b6020870196506001820191505b60001561505b5761504e87615049836160de565b6156f8565b6020870196506001820191505b600015615081576150748761506f836160f8565b6156f8565b6020870196506001820191505b6000156150a75761509a8761509583616112565b6156f8565b6020870196506001820191505b6000156150cd576150c0876150bb8361612c565b6156f8565b6020870196506001820191505b6000156150f3576150e6876150e183616146565b6156f8565b6020870196506001820191505b6000156151195761510c8761510783616160565b6156f8565b6020870196506001820191505b60001561513f576151328761512d8361617a565b6156f8565b6020870196506001820191505b600015615165576151588761515383616194565b6156f8565b6020870196506001820191505b60001561518b5761517e87615179836161c8565b6156f8565b6020870196506001820191505b6000156151b1576151a48761519f836161e2565b6156f8565b6020870196506001820191505b6000156151d7576151ca876151c5836161fc565b6156f8565b6020870196506001820191505b6000156151fd576151f0876151eb83616216565b6156f8565b6020870196506001820191505b600015615223576152168761521183616230565b6156f8565b6020870196506001820191505b6000156152495761523c876152378361624a565b6156f8565b6020870196506001820191505b60001561526f576152628761525d83616264565b6156f8565b6020870196506001820191505b60001561529557615288876152838361627e565b6156f8565b6020870196506001820191505b6000156152bb576152ae876152a983616298565b6156f8565b6020870196506001820191505b6000156152e1576152d4876152cf836162b2565b6156f8565b6020870196506001820191505b600015615307576152fa876152f5836162e6565b6156f8565b6020870196506001820191505b60001561532d576153208761531b83616300565b6156f8565b6020870196506001820191505b505b505050505050565b61534081615f6e565b82525050565b61534f81615f7a565b82525050565b600061536082615d83565b61536a8185615de7565b935061537a81856020860161605d565b80840191505092915050565b61538f81616003565b82525050565b61539e81616027565b82525050565b60006153af82615d8e565b6153b98185615df2565b93506153c981856020860161605d565b6153d28161651a565b840191505092915050565b60006153ea600683615df2565b91506153f5826166cb565b602082019050919050565b600061540d600a83615df2565b9150615418826166f4565b602082019050919050565b6000615430601983615df2565b915061543b8261671d565b602082019050919050565b6000615453602a83615df2565b915061545e82616746565b604082019050919050565b6000615476602683615df2565b915061548182616795565b604082019050919050565b6000615499601283615df2565b91506154a4826167e4565b602082019050919050565b60006154bc602083615df2565b91506154c78261680d565b602082019050919050565b60006154df602683615df2565b91506154ea82616836565b604082019050919050565b6000615502600e83615df2565b915061550d82616885565b602082019050919050565b6000615525601983615df2565b9150615530826168ae565b602082019050919050565b6000615548600783615df2565b9150615553826168d7565b602082019050919050565b600061556b601883615df2565b915061557682616900565b602082019050919050565b600061558e602e83615df2565b915061559982616929565b604082019050919050565b60006155b1601983615df2565b91506155bc82616978565b602082019050919050565b60006155d4601783615df2565b91506155df826169a1565b602082019050919050565b60006155f7602083615df2565b9150615602826169ca565b602082019050919050565b600061561a600b83615df2565b9150615625826169f3565b602082019050919050565b600061563d601d83615df2565b915061564882616a1c565b602082019050919050565b6000615660600783615df2565b915061566b82616a45565b602082019050919050565b6000615683600a83615df2565b915061568e82616a6e565b602082019050919050565b60006156a6600683615df2565b91506156b182616a97565b602082019050919050565b6156c581615fc8565b82525050565b6156d481615fc8565b82525050565b6156e381615fd2565b82525050565b6156f28161604b565b82525050565b61570181615ff6565b82525050565b61571081615ff6565b82525050565b60006157228284615355565b915081905092915050565b600060208201905061574260008301846149fe565b92915050565b600060608201905061575d60008301866149fe565b61576a60208301856149fe565b61577760408301846156cb565b949350505050565b600060e08201905061579460008301876149fe565b6157a16020830186614ac2565b6157ae60a08301856156cb565b6157bb60c08301846156cb565b95945050505050565b60006040820190506157d960008301856149fe565b6157e660208301846156cb565b9392505050565b600060208201905081810360008301526158078184614a0d565b905092915050565b6000610160820190506158256000830184614a6b565b92915050565b60006080820190506158406000830184614b19565b92915050565b600060208201905061585b6000830184615337565b92915050565b60006060820190506158766000830186615346565b61588360208301856156cb565b61589060408301846156cb565b949350505050565b60006080820190506158ad6000830187615346565b6158ba60208301866156cb565b6158c760408301856156cb565b6158d460608301846156cb565b95945050505050565b60006020820190506158f26000830184615386565b92915050565b600060208201905061590d6000830184615395565b92915050565b6000602082019050818103600083015261592d81846153a4565b905092915050565b6000602082019050818103600083015261594e816153dd565b9050919050565b6000602082019050818103600083015261596e81615400565b9050919050565b6000602082019050818103600083015261598e81615423565b9050919050565b600060208201905081810360008301526159ae81615446565b9050919050565b600060208201905081810360008301526159ce81615469565b9050919050565b600060208201905081810360008301526159ee8161548c565b9050919050565b60006020820190508181036000830152615a0e816154af565b9050919050565b60006020820190508181036000830152615a2e816154d2565b9050919050565b60006020820190508181036000830152615a4e816154f5565b9050919050565b60006020820190508181036000830152615a6e81615518565b9050919050565b60006020820190508181036000830152615a8e8161553b565b9050919050565b60006020820190508181036000830152615aae8161555e565b9050919050565b60006020820190508181036000830152615ace81615581565b9050919050565b60006020820190508181036000830152615aee816155a4565b9050919050565b60006020820190508181036000830152615b0e816155c7565b9050919050565b60006020820190508181036000830152615b2e816155ea565b9050919050565b60006020820190508181036000830152615b4e8161560d565b9050919050565b60006020820190508181036000830152615b6e81615630565b9050919050565b60006020820190508181036000830152615b8e81615653565b9050919050565b60006020820190508181036000830152615bae81615676565b9050919050565b60006020820190508181036000830152615bce81615699565b9050919050565b6000602082019050615bea60008301846156cb565b92915050565b6000604082019050615c0560008301856156cb565b615c1260208301846156cb565b9392505050565b6000602082019050615c2e60008301846156e9565b92915050565b6000602082019050615c496000830184615707565b92915050565b6000606082019050615c646000830186615707565b615c716020830185615707565b615c7e6040830184615707565b949350505050565b6000615c90615ca1565b9050615c9c82826163d0565b919050565b6000604051905090565b600067ffffffffffffffff821115615cc657615cc56164d7565b5b602082029050602081019050919050565b600067ffffffffffffffff821115615cf257615cf16164d7565b5b602082029050602081019050919050565b600067ffffffffffffffff821115615d1e57615d1d6164d7565b5b602082029050919050565b6000819050602082019050919050565b6000819050919050565b6000819050919050565b6000819050919050565b600081519050919050565b6000600b9050919050565b600060049050919050565b600060049050919050565b600081519050919050565b600081519050919050565b6000602082019050919050565b6000602082019050919050565b6000602082019050919050565b600082825260208201905092915050565b600081905092915050565b600081905092915050565b600081905092915050565b600082825260208201905092915050565b6000615e0e82615fc8565b9150615e1983615fc8565b9250827fffffffffffffffffffffffffffffffffffffffffffffffffffffffffffffffff03821115615e4e57615e4d61644a565b5b828201905092915050565b6000615e6482615ff6565b9150615e6f83615ff6565b92508260ff03821115615e8557615e8461644a565b5b828201905092915050565b6000615e9b82615fc8565b9150615ea683615fc8565b925082615eb657615eb5616479565b5b828204905092915050565b6000615ecc82615fc8565b9150615ed783615fc8565b9250817fffffffffffffffffffffffffffffffffffffffffffffffffffffffffffffffff0483118215151615615f1057615f0f61644a565b5b828202905092915050565b6000615f2682615fc8565b9150615f3183615fc8565b925082821015615f4457615f4361644a565b5b828203905092915050565b600060ff82169050919050565b6000615f6782615fa8565b9050919050565b60008115159050919050565b6000819050919050565b6000615f8f82615f5c565b9050919050565b6000615fa182615f5c565b9050919050565b600073ffffffffffffffffffffffffffffffffffffffff82169050919050565b6000819050919050565b600063ffffffff82169050919050565b600067ffffffffffffffff82169050919050565b600060ff82169050919050565b600061600e82616015565b9050919050565b600061602082615fa8565b9050919050565b600061603282616039565b9050919050565b600061604482615fa8565b9050919050565b600061605682615ff6565b9050919050565b60005b8381101561607b578082015181840152602081019050616060565b8381111561608a576000848401525b50505050565b60006160a361609e8361652b565b615f4f565b9050919050565b60006160bd6160b883616697565b615f4f565b9050919050565b60006160d76160d2836166a4565b615f4f565b9050919050565b60006160f16160ec836166be565b615f4f565b9050919050565b600061610b61610683616538565b615f4f565b9050919050565b600061612561612083616545565b615f4f565b9050919050565b600061613f61613a83616552565b615f4f565b9050919050565b60006161596161548361655f565b615f4f565b9050919050565b600061617361616e8361656c565b615f4f565b9050919050565b600061618d61618883616579565b615f4f565b9050919050565b60006161a76161a283616586565b615f4f565b9050919050565b60006161c16161bc836166b1565b615f4f565b9050919050565b60006161db6161d683616593565b615f4f565b9050919050565b60006161f56161f0836165a0565b615f4f565b9050919050565b600061620f61620a836165ba565b615f4f565b9050919050565b6000616229616224836165c7565b615f4f565b9050919050565b600061624361623e836165d4565b615f4f565b9050919050565b600061625d616258836165e1565b615f4f565b9050919050565b6000616277616272836165ee565b615f4f565b9050919050565b600061629161628c836165fb565b615f4f565b9050919050565b60006162ab6162a683616608565b615f4f565b9050919050565b60006162c56162c083616615565b615f4f565b9050919050565b60006162df6162da836165ad565b615f4f565b9050919050565b60006162f96162f483616622565b615f4f565b9050919050565b600061631361630e8361662f565b615f4f565b9050919050565b600061632d6163288361663c565b615f4f565b9050919050565b600061634761634283616649565b615f4f565b9050919050565b600061636161635c83616656565b615f4f565b9050919050565b600061637b61637683616663565b615f4f565b9050919050565b600061639561639083616670565b615f4f565b9050919050565b60006163af6163aa8361667d565b615f4f565b9050919050565b60006163c96163c48361668a565b615f4f565b9050919050565b6163d98261651a565b810181811067ffffffffffffffff821117156163f8576163f76164d7565b5b80604052505050565b600061640c82615fc8565b91507fffffffffffffffffffffffffffffffffffffffffffffffffffffffffffffffff82141561643f5761643e61644a565b5b600182019050919050565b7f4e487b7100000000000000000000000000000000000000000000000000000000600052601160045260246000fd5b7f4e487b7100000000000000000000000000000000000000000000000000000000600052601260045260246000fd5b7f4e487b7100000000000000000000000000000000000000000000000000000000600052603260045260246000fd5b7f4e487b7100000000000000000000000000000000000000000000000000000000600052604160045260246000fd5b600080fd5b600080fd5b600080fd5b600080fd5b6000601f19601f8301169050919050565b60008160001c9050919050565b60008160681c9050919050565b60008160701c9050919050565b60008160781c9050919050565b60008160801c9050919050565b60008160881c9050919050565b60008160901c9050919050565b60008160981c9050919050565b60008160a01c9050919050565b60008160a81c9050919050565b60008160101c9050919050565b60008160b01c9050919050565b60008160b81c9050919050565b60008160c01c9050919050565b60008160c81c9050919050565b60008160d01c9050919050565b60008160d81c9050919050565b60008160e01c9050919050565b60008160e81c9050919050565b60008160f01c9050919050565b60008160f81c9050919050565b60008160181c9050919050565b60008160201c9050919050565b60008160281c9050919050565b60008160301c9050919050565b60008160381c9050919050565b60008160401c9050919050565b60008160481c9050919050565b60008160501c9050919050565b60008160581c9050919050565b60008160081c9050919050565b60008160601c9050919050565b7f72657365743f0000000000000000000000000000000000000000000000000000600082015250565b7f6e6f742064726177656400000000000000000000000000000000000000000000600082015250565b7f5f6973737565496e646578203c3d206973737565496e64657800000000000000600082015250565b7f5361666542455032303a204245503230206f7065726174696f6e20646964206e60008201527f6f74207375636365656400000000000000000000000000000000000000000000602082015250565b7f4f776e61626c653a206e6577206f776e657220697320746865207a65726f206160008201527f6464726573730000000000000000000000000000000000000000000000000000602082015250565b7f65786365656420746865206d6178696d756d0000000000000000000000000000600082015250565b7f6765744d61746368696e67526577617264416d6f756e743a20494e56414c4944600082015250565b7f416464726573733a20696e73756666696369656e742062616c616e636520666f60008201527f722063616c6c0000000000000000000000000000000000000000000000000000602082015250565b7f6e6f742066726f6d206f776e6572000000000000000000000000000000000000600082015250565b7f656e7465722064726177696e6720706861736520666972737400000000000000600082015250565b7f636c61696d656400000000000000000000000000000000000000000000000000600082015250565b7f64726177696e672c2063616e206e6f7420627579206e6f770000000000000000600082015250565b7f496e697469616c697a61626c653a20636f6e747261637420697320616c72656160008201527f647920696e697469616c697a6564000000000000000000000000000000000000602082015250565b7f7072696365206d7573742061626f7665206d696e507269636500000000000000600082015250565b7f6472617765642c2063616e206e6f7420627579206e6f77000000000000000000600082015250565b7f4f776e61626c653a2063616c6c6572206973206e6f7420746865206f776e6572600082015250565b7f61646d696e3a207775743f000000000000000000000000000000000000000000600082015250565b7f416464726573733a2063616c6c20746f206e6f6e2d636f6e7472616374000000600082015250565b7f6472617765643f00000000000000000000000000000000000000000000000000600082015250565b7f626164206e756d62657200000000000000000000000000000000000000000000600082015250565b7f6472617765640000000000000000000000000000000000000000000000000000600082015250565b616ac981615f5c565b8114616ad457600080fd5b50565b616ae081615f6e565b8114616aeb57600080fd5b50565b616af781615f84565b8114616b0257600080fd5b50565b616b0e81615f96565b8114616b1957600080fd5b50565b616b2581615fc8565b8114616b3057600080fd5b50565b616b3c81615fe2565b8114616b4757600080fd5b50565b616b5381615ff6565b8114616b5e57600080fd5b5056fea26469706673582212201bb707d32dad78c6317760a06504776fbcaf6668e9e3e7bbfa39511185f3583b64736f6c63430008060033",
  "linkReferences": {},
  "deployedLinkReferences": {}
}