{
  "_format": "hh-sol-artifact-1",
  "contractName": "LotteryNFT",
  "sourceName": "contracts/lottery/LotteryNFT.sol",
  "abi": [
    {
      "inputs": [],
      "stateMutability": "nonpayable",
      "type": "constructor"
    },
    {
      "anonymous": false,
      "inputs": [
        {
          "indexed": true,
          "internalType": "address",
          "name": "owner",
          "type": "address"
        },
        {
          "indexed": true,
          "internalType": "address",
          "name": "approved",
          "type": "address"
        },
        {
          "indexed": true,
          "internalType": "uint256",
          "name": "tokenId",
          "type": "uint256"
        }
      ],
      "name": "Approval",
      "type": "event"
    },
    {
      "anonymous": false,
      "inputs": [
        {
          "indexed": true,
          "internalType": "address",
          "name": "owner",
          "type": "address"
        },
        {
          "indexed": true,
          "internalType": "address",
          "name": "operator",
          "type": "address"
        },
        {
          "indexed": false,
          "internalType": "bool",
          "name": "approved",
          "type": "bool"
        }
      ],
      "name": "ApprovalForAll",
      "type": "event"
    },
    {
      "anonymous": false,
      "inputs": [
        {
          "indexed": true,
          "internalType": "address",
          "name": "previousOwner",
          "type": "address"
        },
        {
          "indexed": true,
          "internalType": "address",
          "name": "newOwner",
          "type": "address"
        }
      ],
      "name": "OwnershipTransferred",
      "type": "event"
    },
    {
      "anonymous": false,
      "inputs": [
        {
          "indexed": true,
          "internalType": "address",
          "name": "from",
          "type": "address"
        },
        {
          "indexed": true,
          "internalType": "address",
          "name": "to",
          "type": "address"
        },
        {
          "indexed": true,
          "internalType": "uint256",
          "name": "tokenId",
          "type": "uint256"
        }
      ],
      "name": "Transfer",
      "type": "event"
    },
    {
      "inputs": [
        {
          "internalType": "address",
          "name": "to",
          "type": "address"
        },
        {
          "internalType": "uint256",
          "name": "tokenId",
          "type": "uint256"
        }
      ],
      "name": "approve",
      "outputs": [],
      "stateMutability": "nonpayable",
      "type": "function"
    },
    {
      "inputs": [
        {
          "internalType": "address",
          "name": "owner",
          "type": "address"
        }
      ],
      "name": "balanceOf",
      "outputs": [
        {
          "internalType": "uint256",
          "name": "",
          "type": "uint256"
        }
      ],
      "stateMutability": "view",
      "type": "function"
    },
    {
      "inputs": [
        {
          "internalType": "uint256",
          "name": "tokenId",
          "type": "uint256"
        }
      ],
      "name": "burn",
      "outputs": [],
      "stateMutability": "nonpayable",
      "type": "function"
    },
    {
      "inputs": [
        {
          "internalType": "uint256",
          "name": "",
          "type": "uint256"
        }
      ],
      "name": "claimInfo",
      "outputs": [
        {
          "internalType": "bool",
          "name": "",
          "type": "bool"
        }
      ],
      "stateMutability": "view",
      "type": "function"
    },
    {
      "inputs": [
        {
          "internalType": "uint256",
          "name": "tokenId",
          "type": "uint256"
        }
      ],
      "name": "claimReward",
      "outputs": [],
      "stateMutability": "nonpayable",
      "type": "function"
    },
    {
      "inputs": [
        {
          "internalType": "uint256",
          "name": "tokenId",
          "type": "uint256"
        }
      ],
      "name": "getApproved",
      "outputs": [
        {
          "internalType": "address",
          "name": "",
          "type": "address"
        }
      ],
      "stateMutability": "view",
      "type": "function"
    },
    {
      "inputs": [
        {
          "internalType": "uint256",
          "name": "tokenId",
          "type": "uint256"
        }
      ],
      "name": "getClaimStatus",
      "outputs": [
        {
          "internalType": "bool",
          "name": "",
          "type": "bool"
        }
      ],
      "stateMutability": "view",
      "type": "function"
    },
    {
      "inputs": [
        {
          "internalType": "uint256",
          "name": "tokenId",
          "type": "uint256"
        }
      ],
      "name": "getLotteryAmount",
      "outputs": [
        {
          "internalType": "uint256",
          "name": "",
          "type": "uint256"
        }
      ],
      "stateMutability": "view",
      "type": "function"
    },
    {
      "inputs": [
        {
          "internalType": "uint256",
          "name": "tokenId",
          "type": "uint256"
        }
      ],
      "name": "getLotteryIssueIndex",
      "outputs": [
        {
          "internalType": "uint256",
          "name": "",
          "type": "uint256"
        }
      ],
      "stateMutability": "view",
      "type": "function"
    },
    {
      "inputs": [
        {
          "internalType": "uint256",
          "name": "tokenId",
          "type": "uint256"
        }
      ],
      "name": "getLotteryNumbers",
      "outputs": [
        {
          "internalType": "uint8[4]",
          "name": "",
          "type": "uint8[4]"
        }
      ],
      "stateMutability": "view",
      "type": "function"
    },
    {
      "inputs": [
        {
          "internalType": "address",
          "name": "owner",
          "type": "address"
        },
        {
          "internalType": "address",
          "name": "operator",
          "type": "address"
        }
      ],
      "name": "isApprovedForAll",
      "outputs": [
        {
          "internalType": "bool",
          "name": "",
          "type": "bool"
        }
      ],
      "stateMutability": "view",
      "type": "function"
    },
    {
      "inputs": [
        {
          "internalType": "uint256",
          "name": "",
          "type": "uint256"
        }
      ],
      "name": "issueIndex",
      "outputs": [
        {
          "internalType": "uint256",
          "name": "",
          "type": "uint256"
        }
      ],
      "stateMutability": "view",
      "type": "function"
    },
    {
      "inputs": [
        {
          "internalType": "uint256",
          "name": "",
          "type": "uint256"
        }
      ],
      "name": "lotteryAmount",
      "outputs": [
        {
          "internalType": "uint256",
          "name": "",
          "type": "uint256"
        }
      ],
      "stateMutability": "view",
      "type": "function"
    },
    {
      "inputs": [
        {
          "internalType": "uint256",
          "name": "",
          "type": "uint256"
        },
        {
          "internalType": "uint256",
          "name": "",
          "type": "uint256"
        }
      ],
      "name": "lotteryInfo",
      "outputs": [
        {
          "internalType": "uint8",
          "name": "",
          "type": "uint8"
        }
      ],
      "stateMutability": "view",
      "type": "function"
    },
    {
      "inputs": [
        {
          "internalType": "uint256[]",
          "name": "tokenIds",
          "type": "uint256[]"
        }
      ],
      "name": "multiClaimReward",
      "outputs": [],
      "stateMutability": "nonpayable",
      "type": "function"
    },
    {
      "inputs": [],
      "name": "name",
      "outputs": [
        {
          "internalType": "string",
          "name": "",
          "type": "string"
        }
      ],
      "stateMutability": "view",
      "type": "function"
    },
    {
      "inputs": [
        {
          "internalType": "address",
          "name": "player",
          "type": "address"
        },
        {
          "internalType": "uint8[4]",
          "name": "_lotteryNumbers",
          "type": "uint8[4]"
        },
        {
          "internalType": "uint256",
          "name": "_amount",
          "type": "uint256"
        },
        {
          "internalType": "uint256",
          "name": "_issueIndex",
          "type": "uint256"
        }
      ],
      "name": "newLotteryItem",
      "outputs": [
        {
          "internalType": "uint256",
          "name": "",
          "type": "uint256"
        }
      ],
      "stateMutability": "nonpayable",
      "type": "function"
    },
    {
      "inputs": [],
      "name": "owner",
      "outputs": [
        {
          "internalType": "address",
          "name": "",
          "type": "address"
        }
      ],
      "stateMutability": "view",
      "type": "function"
    },
    {
      "inputs": [
        {
          "internalType": "uint256",
          "name": "tokenId",
          "type": "uint256"
        }
      ],
      "name": "ownerOf",
      "outputs": [
        {
          "internalType": "address",
          "name": "",
          "type": "address"
        }
      ],
      "stateMutability": "view",
      "type": "function"
    },
    {
      "inputs": [],
      "name": "renounceOwnership",
      "outputs": [],
      "stateMutability": "nonpayable",
      "type": "function"
    },
    {
      "inputs": [
        {
          "internalType": "address",
          "name": "from",
          "type": "address"
        },
        {
          "internalType": "address",
          "name": "to",
          "type": "address"
        },
        {
          "internalType": "uint256",
          "name": "tokenId",
          "type": "uint256"
        }
      ],
      "name": "safeTransferFrom",
      "outputs": [],
      "stateMutability": "nonpayable",
      "type": "function"
    },
    {
      "inputs": [
        {
          "internalType": "address",
          "name": "from",
          "type": "address"
        },
        {
          "internalType": "address",
          "name": "to",
          "type": "address"
        },
        {
          "internalType": "uint256",
          "name": "tokenId",
          "type": "uint256"
        },
        {
          "internalType": "bytes",
          "name": "_data",
          "type": "bytes"
        }
      ],
      "name": "safeTransferFrom",
      "outputs": [],
      "stateMutability": "nonpayable",
      "type": "function"
    },
    {
      "inputs": [
        {
          "internalType": "address",
          "name": "operator",
          "type": "address"
        },
        {
          "internalType": "bool",
          "name": "approved",
          "type": "bool"
        }
      ],
      "name": "setApprovalForAll",
      "outputs": [],
      "stateMutability": "nonpayable",
      "type": "function"
    },
    {
      "inputs": [
        {
          "internalType": "bytes4",
          "name": "interfaceId",
          "type": "bytes4"
        }
      ],
      "name": "supportsInterface",
      "outputs": [
        {
          "internalType": "bool",
          "name": "",
          "type": "bool"
        }
      ],
      "stateMutability": "view",
      "type": "function"
    },
    {
      "inputs": [],
      "name": "symbol",
      "outputs": [
        {
          "internalType": "string",
          "name": "",
          "type": "string"
        }
      ],
      "stateMutability": "view",
      "type": "function"
    },
    {
      "inputs": [
        {
          "internalType": "uint256",
          "name": "tokenId",
          "type": "uint256"
        }
      ],
      "name": "tokenURI",
      "outputs": [
        {
          "internalType": "string",
          "name": "",
          "type": "string"
        }
      ],
      "stateMutability": "view",
      "type": "function"
    },
    {
      "inputs": [
        {
          "internalType": "address",
          "name": "from",
          "type": "address"
        },
        {
          "internalType": "address",
          "name": "to",
          "type": "address"
        },
        {
          "internalType": "uint256",
          "name": "tokenId",
          "type": "uint256"
        }
      ],
      "name": "transferFrom",
      "outputs": [],
      "stateMutability": "nonpayable",
      "type": "function"
    },
    {
      "inputs": [
        {
          "internalType": "address",
          "name": "newOwner",
          "type": "address"
        }
      ],
      "name": "transferOwnership",
      "outputs": [],
      "stateMutability": "nonpayable",
      "type": "function"
    }
  ],
  "bytecode": "0x60806040523480156200001157600080fd5b506040518060400160405280601a81526020017f476f6c64656e476f6f7365204c6f7474657279205469636b65740000000000008152506040518060400160405280600381526020017f474c540000000000000000000000000000000000000000000000000000000000815250816000908051906020019062000096929190620001a6565b508060019080519060200190620000af929190620001a6565b505050620000d2620000c6620000d860201b60201c565b620000e060201b60201c565b620002bb565b600033905090565b6000600660009054906101000a900473ffffffffffffffffffffffffffffffffffffffff16905081600660006101000a81548173ffffffffffffffffffffffffffffffffffffffff021916908373ffffffffffffffffffffffffffffffffffffffff1602179055508173ffffffffffffffffffffffffffffffffffffffff168173ffffffffffffffffffffffffffffffffffffffff167f8be0079c531659141344cd1fd0a4f28419497f9722a3daafe3b4186f6b6457e060405160405180910390a35050565b828054620001b49062000256565b90600052602060002090601f016020900481019282620001d8576000855562000224565b82601f10620001f357805160ff191683800117855562000224565b8280016001018555821562000224579182015b828111156200022357825182559160200191906001019062000206565b5b50905062000233919062000237565b5090565b5b808211156200025257600081600090555060010162000238565b5090565b600060028204905060018216806200026f57607f821691505b602082108114156200028657620002856200028c565b5b50919050565b7f4e487b7100000000000000000000000000000000000000000000000000000000600052602260045260246000fd5b61375380620002cb6000396000f3fe608060405234801561001057600080fd5b50600436106101c45760003560e01c80636575243f116100f9578063ae169a5011610097578063c87b56dd11610071578063c87b56dd1461054d578063e985e9c51461057d578063f2fde38b146105ad578063f7a0c0ca146105c9576101c4565b8063ae169a50146104e5578063b88d4fde14610501578063c13f690b1461051d576101c4565b806374310355116100d357806374310355146104715780638da5cb5b1461048d57806395d89b41146104ab578063a22cb465146104c9576101c4565b80636575243f1461040757806370a0823114610437578063715018a614610467576101c4565b806336dbd2f91161016657806342966c681161014057806342966c681461035b5780635c362233146103775780635f8e26a7146103a75780636352211e146103d7576101c4565b806336dbd2f9146102df57806337391c001461030f57806342842e0e1461033f576101c4565b806308c76625116101a257806308c7662514610247578063095ea7b3146102775780631bf1e00f1461029357806323b872dd146102c3576101c4565b806301ffc9a7146101c957806306fdde03146101f9578063081812fc14610217575b600080fd5b6101e360048036038101906101de919061265d565b6105f9565b6040516101f09190612b57565b60405180910390f35b6102016106db565b60405161020e9190612b72565b60405180910390f35b610231600480360381019061022c91906126b7565b61076d565b60405161023e9190612ad5565b60405180910390f35b610261600480360381019061025c91906126b7565b6107f2565b60405161026e9190612d94565b60405180910390f35b610291600480360381019061028c91906125d4565b61080a565b005b6102ad60048036038101906102a891906126b7565b610922565b6040516102ba9190612d94565b60405180910390f35b6102dd60048036038101906102d89190612457565b61093f565b005b6102f960048036038101906102f491906126b7565b61099f565b6040516103069190612b57565b60405180910390f35b6103296004803603810190610324919061252d565b6109c9565b6040516103369190612d94565b60405180910390f35b61035960048036038101906103549190612457565b610ac8565b005b610375600480360381019061037091906126b7565b610ae8565b005b610391600480360381019061038c91906126b7565b610b70565b60405161039e9190612b57565b60405180910390f35b6103c160048036038101906103bc91906126b7565b610b90565b6040516103ce9190612b3c565b60405180910390f35b6103f160048036038101906103ec91906126b7565b610c14565b6040516103fe9190612ad5565b60405180910390f35b610421600480360381019061041c91906126e4565b610cc6565b60405161042e9190612daf565b60405180910390f35b610451600480360381019061044c91906123ea565b610cff565b60405161045e9190612d94565b60405180910390f35b61046f610db7565b005b61048b60048036038101906104869190612614565b610e3f565b005b610495610f24565b6040516104a29190612ad5565b60405180910390f35b6104b3610f4e565b6040516104c09190612b72565b60405180910390f35b6104e360048036038101906104de9190612594565b610fe0565b005b6104ff60048036038101906104fa91906126b7565b611161565b005b61051b600480360381019061051691906124aa565b61120c565b005b610537600480360381019061053291906126b7565b61126e565b6040516105449190612d94565b60405180910390f35b610567600480360381019061056291906126b7565b611286565b6040516105749190612b72565b60405180910390f35b61059760048036038101906105929190612417565b61132d565b6040516105a49190612b57565b60405180910390f35b6105c760048036038101906105c291906123ea565b6113c1565b005b6105e360048036038101906105de91906126b7565b6114b9565b6040516105f09190612d94565b60405180910390f35b60007f80ac58cd000000000000000000000000000000000000000000000000000000007bffffffffffffffffffffffffffffffffffffffffffffffffffffffff1916827bffffffffffffffffffffffffffffffffffffffffffffffffffffffff191614806106c457507f5b5e139f000000000000000000000000000000000000000000000000000000007bffffffffffffffffffffffffffffffffffffffffffffffffffffffff1916827bffffffffffffffffffffffffffffffffffffffffffffffffffffffff1916145b806106d457506106d3826114d6565b5b9050919050565b6060600080546106ea90613060565b80601f016020809104026020016040519081016040528092919081815260200182805461071690613060565b80156107635780601f1061073857610100808354040283529160200191610763565b820191906000526020600020905b81548152906001019060200180831161074657829003601f168201915b5050505050905090565b600061077882611540565b6107b7576040517f08c379a00000000000000000000000000000000000000000000000000000000081526004016107ae90612cd4565b60405180910390fd5b6004600083815260200190815260200160002060009054906101000a900473ffffffffffffffffffffffffffffffffffffffff169050919050565b600a6020528060005260406000206000915090505481565b600061081582610c14565b90508073ffffffffffffffffffffffffffffffffffffffff168373ffffffffffffffffffffffffffffffffffffffff161415610886576040517f08c379a000000000000000000000000000000000000000000000000000000000815260040161087d90612d54565b60405180910390fd5b8073ffffffffffffffffffffffffffffffffffffffff166108a56115ac565b73ffffffffffffffffffffffffffffffffffffffff1614806108d457506108d3816108ce6115ac565b61132d565b5b610913576040517f08c379a000000000000000000000000000000000000000000000000000000000815260040161090a90612c54565b60405180910390fd5b61091d83836115b4565b505050565b6000600a6000838152602001908152602001600020549050919050565b61095061094a6115ac565b8261166d565b61098f576040517f08c379a000000000000000000000000000000000000000000000000000000000815260040161098690612d74565b60405180910390fd5b61099a83838361174b565b505050565b6000600b600083815260200190815260200160002060009054906101000a900460ff169050919050565b60006109d36115ac565b73ffffffffffffffffffffffffffffffffffffffff166109f1610f24565b73ffffffffffffffffffffffffffffffffffffffff1614610a47576040517f08c379a0000000000000000000000000000000000000000000000000000000008152600401610a3e90612cf4565b60405180910390fd5b610a5160076119a7565b6000610a5d60076119bd565b9050610a6986826119cb565b8460086000838152602001908152602001600020906004610a8b9291906120f3565b5083600960008381526020019081526020016000208190555082600a60008381526020019081526020016000208190555080915050949350505050565b610ae38383836040518060200160405280600081525061120c565b505050565b610af06115ac565b73ffffffffffffffffffffffffffffffffffffffff16610b0e610f24565b73ffffffffffffffffffffffffffffffffffffffff1614610b64576040517f08c379a0000000000000000000000000000000000000000000000000000000008152600401610b5b90612cf4565b60405180910390fd5b610b6d81611b99565b50565b600b6020528060005260406000206000915054906101000a900460ff1681565b610b9861218d565b60086000838152602001908152602001600020600480602002604051908101604052809291908260048015610c08576020028201916000905b82829054906101000a900460ff1660ff1681526020019060010190602082600001049283019260010382029150808411610bd15790505b50505050509050919050565b6000806002600084815260200190815260200160002060009054906101000a900473ffffffffffffffffffffffffffffffffffffffff169050600073ffffffffffffffffffffffffffffffffffffffff168173ffffffffffffffffffffffffffffffffffffffff161415610cbd576040517f08c379a0000000000000000000000000000000000000000000000000000000008152600401610cb490612c94565b60405180910390fd5b80915050919050565b60086020528160005260406000208160048110610ce257600080fd5b60209182820401919006915091509054906101000a900460ff1681565b60008073ffffffffffffffffffffffffffffffffffffffff168273ffffffffffffffffffffffffffffffffffffffff161415610d70576040517f08c379a0000000000000000000000000000000000000000000000000000000008152600401610d6790612c74565b60405180910390fd5b600360008373ffffffffffffffffffffffffffffffffffffffff1673ffffffffffffffffffffffffffffffffffffffff168152602001908152602001600020549050919050565b610dbf6115ac565b73ffffffffffffffffffffffffffffffffffffffff16610ddd610f24565b73ffffffffffffffffffffffffffffffffffffffff1614610e33576040517f08c379a0000000000000000000000000000000000000000000000000000000008152600401610e2a90612cf4565b60405180910390fd5b610e3d6000611caa565b565b610e476115ac565b73ffffffffffffffffffffffffffffffffffffffff16610e65610f24565b73ffffffffffffffffffffffffffffffffffffffff1614610ebb576040517f08c379a0000000000000000000000000000000000000000000000000000000008152600401610eb290612cf4565b60405180910390fd5b60005b8151811015610f20576001600b6000848481518110610ee057610edf6131ca565b5b6020026020010151815260200190815260200160002060006101000a81548160ff0219169083151502179055508080610f18906130c3565b915050610ebe565b5050565b6000600660009054906101000a900473ffffffffffffffffffffffffffffffffffffffff16905090565b606060018054610f5d90613060565b80601f0160208091040260200160405190810160405280929190818152602001828054610f8990613060565b8015610fd65780601f10610fab57610100808354040283529160200191610fd6565b820191906000526020600020905b815481529060010190602001808311610fb957829003601f168201915b5050505050905090565b610fe86115ac565b73ffffffffffffffffffffffffffffffffffffffff168273ffffffffffffffffffffffffffffffffffffffff161415611056576040517f08c379a000000000000000000000000000000000000000000000000000000000815260040161104d90612c14565b60405180910390fd5b80600560006110636115ac565b73ffffffffffffffffffffffffffffffffffffffff1673ffffffffffffffffffffffffffffffffffffffff16815260200190815260200160002060008473ffffffffffffffffffffffffffffffffffffffff1673ffffffffffffffffffffffffffffffffffffffff16815260200190815260200160002060006101000a81548160ff0219169083151502179055508173ffffffffffffffffffffffffffffffffffffffff166111106115ac565b73ffffffffffffffffffffffffffffffffffffffff167f17307eab39ab6107e8899845ad3d59bd9653f200f220920489ca2b5937696c31836040516111559190612b57565b60405180910390a35050565b6111696115ac565b73ffffffffffffffffffffffffffffffffffffffff16611187610f24565b73ffffffffffffffffffffffffffffffffffffffff16146111dd576040517f08c379a00000000000000000000000000000000000000000000000000000000081526004016111d490612cf4565b60405180910390fd5b6001600b600083815260200190815260200160002060006101000a81548160ff02191690831515021790555050565b61121d6112176115ac565b8361166d565b61125c576040517f08c379a000000000000000000000000000000000000000000000000000000000815260040161125390612d74565b60405180910390fd5b61126884848484611d70565b50505050565b60096020528060005260406000206000915090505481565b606061129182611540565b6112d0576040517f08c379a00000000000000000000000000000000000000000000000000000000081526004016112c790612d34565b60405180910390fd5b60006112da611dcc565b905060008151116112fa5760405180602001604052806000815250611325565b8061130484611de3565b604051602001611315929190612ab1565b6040516020818303038152906040525b915050919050565b6000600560008473ffffffffffffffffffffffffffffffffffffffff1673ffffffffffffffffffffffffffffffffffffffff16815260200190815260200160002060008373ffffffffffffffffffffffffffffffffffffffff1673ffffffffffffffffffffffffffffffffffffffff16815260200190815260200160002060009054906101000a900460ff16905092915050565b6113c96115ac565b73ffffffffffffffffffffffffffffffffffffffff166113e7610f24565b73ffffffffffffffffffffffffffffffffffffffff161461143d576040517f08c379a000000000000000000000000000000000000000000000000000000000815260040161143490612cf4565b60405180910390fd5b600073ffffffffffffffffffffffffffffffffffffffff168173ffffffffffffffffffffffffffffffffffffffff1614156114ad576040517f08c379a00000000000000000000000000000000000000000000000000000000081526004016114a490612bb4565b60405180910390fd5b6114b681611caa565b50565b600060096000838152602001908152602001600020549050919050565b60007f01ffc9a7000000000000000000000000000000000000000000000000000000007bffffffffffffffffffffffffffffffffffffffffffffffffffffffff1916827bffffffffffffffffffffffffffffffffffffffffffffffffffffffff1916149050919050565b60008073ffffffffffffffffffffffffffffffffffffffff166002600084815260200190815260200160002060009054906101000a900473ffffffffffffffffffffffffffffffffffffffff1673ffffffffffffffffffffffffffffffffffffffff1614159050919050565b600033905090565b816004600083815260200190815260200160002060006101000a81548173ffffffffffffffffffffffffffffffffffffffff021916908373ffffffffffffffffffffffffffffffffffffffff160217905550808273ffffffffffffffffffffffffffffffffffffffff1661162783610c14565b73ffffffffffffffffffffffffffffffffffffffff167f8c5be1e5ebec7d5bd14f71427d1e84f3dd0314c0f7b2291e5b200ac8c7c3b92560405160405180910390a45050565b600061167882611540565b6116b7576040517f08c379a00000000000000000000000000000000000000000000000000000000081526004016116ae90612c34565b60405180910390fd5b60006116c283610c14565b90508073ffffffffffffffffffffffffffffffffffffffff168473ffffffffffffffffffffffffffffffffffffffff16148061173157508373ffffffffffffffffffffffffffffffffffffffff166117198461076d565b73ffffffffffffffffffffffffffffffffffffffff16145b806117425750611741818561132d565b5b91505092915050565b8273ffffffffffffffffffffffffffffffffffffffff1661176b82610c14565b73ffffffffffffffffffffffffffffffffffffffff16146117c1576040517f08c379a00000000000000000000000000000000000000000000000000000000081526004016117b890612d14565b60405180910390fd5b600073ffffffffffffffffffffffffffffffffffffffff168273ffffffffffffffffffffffffffffffffffffffff161415611831576040517f08c379a000000000000000000000000000000000000000000000000000000000815260040161182890612bf4565b60405180910390fd5b61183c838383611f44565b6118476000826115b4565b6001600360008573ffffffffffffffffffffffffffffffffffffffff1673ffffffffffffffffffffffffffffffffffffffff16815260200190815260200160002060008282546118979190612f69565b925050819055506001600360008473ffffffffffffffffffffffffffffffffffffffff1673ffffffffffffffffffffffffffffffffffffffff16815260200190815260200160002060008282546118ee9190612ee2565b92505081905550816002600083815260200190815260200160002060006101000a81548173ffffffffffffffffffffffffffffffffffffffff021916908373ffffffffffffffffffffffffffffffffffffffff160217905550808273ffffffffffffffffffffffffffffffffffffffff168473ffffffffffffffffffffffffffffffffffffffff167fddf252ad1be2c89b69c2b068fc378daa952ba7f163c4a11628f55a4df523b3ef60405160405180910390a4505050565b6001816000016000828254019250508190555050565b600081600001549050919050565b600073ffffffffffffffffffffffffffffffffffffffff168273ffffffffffffffffffffffffffffffffffffffff161415611a3b576040517f08c379a0000000000000000000000000000000000000000000000000000000008152600401611a3290612cb4565b60405180910390fd5b611a4481611540565b15611a84576040517f08c379a0000000000000000000000000000000000000000000000000000000008152600401611a7b90612bd4565b60405180910390fd5b611a9060008383611f44565b6001600360008473ffffffffffffffffffffffffffffffffffffffff1673ffffffffffffffffffffffffffffffffffffffff1681526020019081526020016000206000828254611ae09190612ee2565b92505081905550816002600083815260200190815260200160002060006101000a81548173ffffffffffffffffffffffffffffffffffffffff021916908373ffffffffffffffffffffffffffffffffffffffff160217905550808273ffffffffffffffffffffffffffffffffffffffff16600073ffffffffffffffffffffffffffffffffffffffff167fddf252ad1be2c89b69c2b068fc378daa952ba7f163c4a11628f55a4df523b3ef60405160405180910390a45050565b6000611ba482610c14565b9050611bb281600084611f44565b611bbd6000836115b4565b6001600360008373ffffffffffffffffffffffffffffffffffffffff1673ffffffffffffffffffffffffffffffffffffffff1681526020019081526020016000206000828254611c0d9190612f69565b925050819055506002600083815260200190815260200160002060006101000a81549073ffffffffffffffffffffffffffffffffffffffff021916905581600073ffffffffffffffffffffffffffffffffffffffff168273ffffffffffffffffffffffffffffffffffffffff167fddf252ad1be2c89b69c2b068fc378daa952ba7f163c4a11628f55a4df523b3ef60405160405180910390a45050565b6000600660009054906101000a900473ffffffffffffffffffffffffffffffffffffffff16905081600660006101000a81548173ffffffffffffffffffffffffffffffffffffffff021916908373ffffffffffffffffffffffffffffffffffffffff1602179055508173ffffffffffffffffffffffffffffffffffffffff168173ffffffffffffffffffffffffffffffffffffffff167f8be0079c531659141344cd1fd0a4f28419497f9722a3daafe3b4186f6b6457e060405160405180910390a35050565b611d7b84848461174b565b611d8784848484611f49565b611dc6576040517f08c379a0000000000000000000000000000000000000000000000000000000008152600401611dbd90612b94565b60405180910390fd5b50505050565b606060405180602001604052806000815250905090565b60606000821415611e2b576040518060400160405280600181526020017f30000000000000000000000000000000000000000000000000000000000000008152509050611f3f565b600082905060005b60008214611e5d578080611e46906130c3565b915050600a82611e569190612f38565b9150611e33565b60008167ffffffffffffffff811115611e7957611e786131f9565b5b6040519080825280601f01601f191660200182016040528015611eab5781602001600182028036833780820191505090505b5090505b60008514611f3857600182611ec49190612f69565b9150600a85611ed3919061310c565b6030611edf9190612ee2565b60f81b818381518110611ef557611ef46131ca565b5b60200101907effffffffffffffffffffffffffffffffffffffffffffffffffffffffffffff1916908160001a905350600a85611f319190612f38565b9450611eaf565b8093505050505b919050565b505050565b6000611f6a8473ffffffffffffffffffffffffffffffffffffffff166120e0565b156120d3578373ffffffffffffffffffffffffffffffffffffffff1663150b7a02611f936115ac565b8786866040518563ffffffff1660e01b8152600401611fb59493929190612af0565b602060405180830381600087803b158015611fcf57600080fd5b505af192505050801561200057506040513d601f19601f82011682018060405250810190611ffd919061268a565b60015b612083573d8060008114612030576040519150601f19603f3d011682016040523d82523d6000602084013e612035565b606091505b5060008151141561207b576040517f08c379a000000000000000000000000000000000000000000000000000000000815260040161207290612b94565b60405180910390fd5b805181602001fd5b63150b7a0260e01b7bffffffffffffffffffffffffffffffffffffffffffffffffffffffff1916817bffffffffffffffffffffffffffffffffffffffffffffffffffffffff1916149150506120d8565b600190505b949350505050565b600080823b905060008111915050919050565b826004601f0160209004810192821561217c5791602002820160005b8382111561214d57835183826101000a81548160ff021916908360ff160217905550926020019260010160208160000104928301926001030261210f565b801561217a5782816101000a81549060ff021916905560010160208160000104928301926001030261214d565b505b50905061218991906121af565b5090565b6040518060800160405280600490602082028036833780820191505090505090565b5b808211156121c85760008160009055506001016121b0565b5090565b60006121df6121da84612def565b612dca565b905080838252602082019050828560208602820111156122025761220161322d565b5b60005b85811015612232578161221888826123c0565b845260208401935060208301925050600181019050612205565b5050509392505050565b600061224f61224a84612e1b565b612dca565b905080828560208602820111156122695761226861322d565b5b60005b85811015612299578161227f88826123d5565b84526020840193506020830192505060018101905061226c565b5050509392505050565b60006122b66122b184612e41565b612dca565b9050828152602081018484840111156122d2576122d1613232565b5b6122dd84828561301e565b509392505050565b6000813590506122f4816136aa565b92915050565b600082601f83011261230f5761230e613228565b5b813561231f8482602086016121cc565b91505092915050565b600082601f83011261233d5761233c613228565b5b600461234a84828561223c565b91505092915050565b600081359050612362816136c1565b92915050565b600081359050612377816136d8565b92915050565b60008151905061238c816136d8565b92915050565b600082601f8301126123a7576123a6613228565b5b81356123b78482602086016122a3565b91505092915050565b6000813590506123cf816136ef565b92915050565b6000813590506123e481613706565b92915050565b600060208284031215612400576123ff61323c565b5b600061240e848285016122e5565b91505092915050565b6000806040838503121561242e5761242d61323c565b5b600061243c858286016122e5565b925050602061244d858286016122e5565b9150509250929050565b6000806000606084860312156124705761246f61323c565b5b600061247e868287016122e5565b935050602061248f868287016122e5565b92505060406124a0868287016123c0565b9150509250925092565b600080600080608085870312156124c4576124c361323c565b5b60006124d2878288016122e5565b94505060206124e3878288016122e5565b93505060406124f4878288016123c0565b925050606085013567ffffffffffffffff81111561251557612514613237565b5b61252187828801612392565b91505092959194509250565b60008060008060e085870312156125475761254661323c565b5b6000612555878288016122e5565b945050602061256687828801612328565b93505060a0612577878288016123c0565b92505060c0612588878288016123c0565b91505092959194509250565b600080604083850312156125ab576125aa61323c565b5b60006125b9858286016122e5565b92505060206125ca85828601612353565b9150509250929050565b600080604083850312156125eb576125ea61323c565b5b60006125f9858286016122e5565b925050602061260a858286016123c0565b9150509250929050565b60006020828403121561262a5761262961323c565b5b600082013567ffffffffffffffff81111561264857612647613237565b5b612654848285016122fa565b91505092915050565b6000602082840312156126735761267261323c565b5b600061268184828501612368565b91505092915050565b6000602082840312156126a05761269f61323c565b5b60006126ae8482850161237d565b91505092915050565b6000602082840312156126cd576126cc61323c565b5b60006126db848285016123c0565b91505092915050565b600080604083850312156126fb576126fa61323c565b5b6000612709858286016123c0565b925050602061271a858286016123c0565b9150509250929050565b60006127308383612a93565b60208301905092915050565b61274581612f9d565b82525050565b61275481612e7c565b61275e8184612eaa565b925061276982612e72565b8060005b8381101561279a5781516127818782612724565b965061278c83612e9d565b92505060018101905061276d565b505050505050565b6127ab81612faf565b82525050565b60006127bc82612e87565b6127c68185612eb5565b93506127d681856020860161302d565b6127df81613241565b840191505092915050565b60006127f582612e92565b6127ff8185612ec6565b935061280f81856020860161302d565b61281881613241565b840191505092915050565b600061282e82612e92565b6128388185612ed7565b935061284881856020860161302d565b80840191505092915050565b6000612861603283612ec6565b915061286c82613252565b604082019050919050565b6000612884602683612ec6565b915061288f826132a1565b604082019050919050565b60006128a7601c83612ec6565b91506128b2826132f0565b602082019050919050565b60006128ca602483612ec6565b91506128d582613319565b604082019050919050565b60006128ed601983612ec6565b91506128f882613368565b602082019050919050565b6000612910602c83612ec6565b915061291b82613391565b604082019050919050565b6000612933603883612ec6565b915061293e826133e0565b604082019050919050565b6000612956602a83612ec6565b91506129618261342f565b604082019050919050565b6000612979602983612ec6565b91506129848261347e565b604082019050919050565b600061299c602083612ec6565b91506129a7826134cd565b602082019050919050565b60006129bf602c83612ec6565b91506129ca826134f6565b604082019050919050565b60006129e2602083612ec6565b91506129ed82613545565b602082019050919050565b6000612a05602983612ec6565b9150612a108261356e565b604082019050919050565b6000612a28602f83612ec6565b9150612a33826135bd565b604082019050919050565b6000612a4b602183612ec6565b9150612a568261360c565b604082019050919050565b6000612a6e603183612ec6565b9150612a798261365b565b604082019050919050565b612a8d81613007565b82525050565b612a9c81613011565b82525050565b612aab81613011565b82525050565b6000612abd8285612823565b9150612ac98284612823565b91508190509392505050565b6000602082019050612aea600083018461273c565b92915050565b6000608082019050612b05600083018761273c565b612b12602083018661273c565b612b1f6040830185612a84565b8181036060830152612b3181846127b1565b905095945050505050565b6000608082019050612b51600083018461274b565b92915050565b6000602082019050612b6c60008301846127a2565b92915050565b60006020820190508181036000830152612b8c81846127ea565b905092915050565b60006020820190508181036000830152612bad81612854565b9050919050565b60006020820190508181036000830152612bcd81612877565b9050919050565b60006020820190508181036000830152612bed8161289a565b9050919050565b60006020820190508181036000830152612c0d816128bd565b9050919050565b60006020820190508181036000830152612c2d816128e0565b9050919050565b60006020820190508181036000830152612c4d81612903565b9050919050565b60006020820190508181036000830152612c6d81612926565b9050919050565b60006020820190508181036000830152612c8d81612949565b9050919050565b60006020820190508181036000830152612cad8161296c565b9050919050565b60006020820190508181036000830152612ccd8161298f565b9050919050565b60006020820190508181036000830152612ced816129b2565b9050919050565b60006020820190508181036000830152612d0d816129d5565b9050919050565b60006020820190508181036000830152612d2d816129f8565b9050919050565b60006020820190508181036000830152612d4d81612a1b565b9050919050565b60006020820190508181036000830152612d6d81612a3e565b9050919050565b60006020820190508181036000830152612d8d81612a61565b9050919050565b6000602082019050612da96000830184612a84565b92915050565b6000602082019050612dc46000830184612aa2565b92915050565b6000612dd4612de5565b9050612de08282613092565b919050565b6000604051905090565b600067ffffffffffffffff821115612e0a57612e096131f9565b5b602082029050602081019050919050565b600067ffffffffffffffff821115612e3657612e356131f9565b5b602082029050919050565b600067ffffffffffffffff821115612e5c57612e5b6131f9565b5b612e6582613241565b9050602081019050919050565b6000819050919050565b600060049050919050565b600081519050919050565b600081519050919050565b6000602082019050919050565b600081905092915050565b600082825260208201905092915050565b600082825260208201905092915050565b600081905092915050565b6000612eed82613007565b9150612ef883613007565b9250827fffffffffffffffffffffffffffffffffffffffffffffffffffffffffffffffff03821115612f2d57612f2c61313d565b5b828201905092915050565b6000612f4382613007565b9150612f4e83613007565b925082612f5e57612f5d61316c565b5b828204905092915050565b6000612f7482613007565b9150612f7f83613007565b925082821015612f9257612f9161313d565b5b828203905092915050565b6000612fa882612fe7565b9050919050565b60008115159050919050565b60007fffffffff0000000000000000000000000000000000000000000000000000000082169050919050565b600073ffffffffffffffffffffffffffffffffffffffff82169050919050565b6000819050919050565b600060ff82169050919050565b82818337600083830152505050565b60005b8381101561304b578082015181840152602081019050613030565b8381111561305a576000848401525b50505050565b6000600282049050600182168061307857607f821691505b6020821081141561308c5761308b61319b565b5b50919050565b61309b82613241565b810181811067ffffffffffffffff821117156130ba576130b96131f9565b5b80604052505050565b60006130ce82613007565b91507fffffffffffffffffffffffffffffffffffffffffffffffffffffffffffffffff8214156131015761310061313d565b5b600182019050919050565b600061311782613007565b915061312283613007565b9250826131325761313161316c565b5b828206905092915050565b7f4e487b7100000000000000000000000000000000000000000000000000000000600052601160045260246000fd5b7f4e487b7100000000000000000000000000000000000000000000000000000000600052601260045260246000fd5b7f4e487b7100000000000000000000000000000000000000000000000000000000600052602260045260246000fd5b7f4e487b7100000000000000000000000000000000000000000000000000000000600052603260045260246000fd5b7f4e487b7100000000000000000000000000000000000000000000000000000000600052604160045260246000fd5b600080fd5b600080fd5b600080fd5b600080fd5b600080fd5b6000601f19601f8301169050919050565b7f4552433732313a207472616e7366657220746f206e6f6e20455243373231526560008201527f63656976657220696d706c656d656e7465720000000000000000000000000000602082015250565b7f4f776e61626c653a206e6577206f776e657220697320746865207a65726f206160008201527f6464726573730000000000000000000000000000000000000000000000000000602082015250565b7f4552433732313a20746f6b656e20616c7265616479206d696e74656400000000600082015250565b7f4552433732313a207472616e7366657220746f20746865207a65726f2061646460008201527f7265737300000000000000000000000000000000000000000000000000000000602082015250565b7f4552433732313a20617070726f766520746f2063616c6c657200000000000000600082015250565b7f4552433732313a206f70657261746f7220717565727920666f72206e6f6e657860008201527f697374656e7420746f6b656e0000000000000000000000000000000000000000602082015250565b7f4552433732313a20617070726f76652063616c6c6572206973206e6f74206f7760008201527f6e6572206e6f7220617070726f76656420666f7220616c6c0000000000000000602082015250565b7f4552433732313a2062616c616e636520717565727920666f7220746865207a6560008201527f726f206164647265737300000000000000000000000000000000000000000000602082015250565b7f4552433732313a206f776e657220717565727920666f72206e6f6e657869737460008201527f656e7420746f6b656e0000000000000000000000000000000000000000000000602082015250565b7f4552433732313a206d696e7420746f20746865207a65726f2061646472657373600082015250565b7f4552433732313a20617070726f76656420717565727920666f72206e6f6e657860008201527f697374656e7420746f6b656e0000000000000000000000000000000000000000602082015250565b7f4f776e61626c653a2063616c6c6572206973206e6f7420746865206f776e6572600082015250565b7f4552433732313a207472616e73666572206f6620746f6b656e2074686174206960008201527f73206e6f74206f776e0000000000000000000000000000000000000000000000602082015250565b7f4552433732314d657461646174613a2055524920717565727920666f72206e6f60008201527f6e6578697374656e7420746f6b656e0000000000000000000000000000000000602082015250565b7f4552433732313a20617070726f76616c20746f2063757272656e74206f776e6560008201527f7200000000000000000000000000000000000000000000000000000000000000602082015250565b7f4552433732313a207472616e736665722063616c6c6572206973206e6f74206f60008201527f776e6572206e6f7220617070726f766564000000000000000000000000000000602082015250565b6136b381612f9d565b81146136be57600080fd5b50565b6136ca81612faf565b81146136d557600080fd5b50565b6136e181612fbb565b81146136ec57600080fd5b50565b6136f881613007565b811461370357600080fd5b50565b61370f81613011565b811461371a57600080fd5b5056fea2646970667358221220f10c3f9b32035c3ada995ebfa2d8573f2c6472c56680a412242ae023ae242e1c64736f6c63430008060033",
  "linkReferences": {},
  "deployedLinkReferences": {}
}