{
  "_format": "hh-sol-artifact-1",
  "contractName": "MockBEP20",
  "sourceName": "contracts/libs/MockBEP20.sol",
  "abi": [
    {
      "inputs": [
        {
          "internalType": "string",
          "name": "name",
          "type": "string"
        },
        {
          "internalType": "string",
          "name": "symbol",
          "type": "string"
        },
        {
          "internalType": "uint256",
          "name": "supply",
          "type": "uint256"
        }
      ],
      "stateMutability": "nonpayable",
      "type": "constructor"
    },
    {
      "anonymous": false,
      "inputs": [
        {
          "indexed": true,
          "internalType": "address",
          "name": "owner",
          "type": "address"
        },
        {
          "indexed": true,
          "internalType": "address",
          "name": "spender",
          "type": "address"
        },
        {
          "indexed": false,
          "internalType": "uint256",
          "name": "value",
          "type": "uint256"
        }
      ],
      "name": "Approval",
      "type": "event"
    },
    {
      "anonymous": false,
      "inputs": [
        {
          "indexed": true,
          "internalType": "address",
          "name": "previousOwner",
          "type": "address"
        },
        {
          "indexed": true,
          "internalType": "address",
          "name": "newOwner",
          "type": "address"
        }
      ],
      "name": "OwnershipTransferred",
      "type": "event"
    },
    {
      "anonymous": false,
      "inputs": [
        {
          "indexed": true,
          "internalType": "address",
          "name": "from",
          "type": "address"
        },
        {
          "indexed": true,
          "internalType": "address",
          "name": "to",
          "type": "address"
        },
        {
          "indexed": false,
          "internalType": "uint256",
          "name": "value",
          "type": "uint256"
        }
      ],
      "name": "Transfer",
      "type": "event"
    },
    {
      "inputs": [
        {
          "internalType": "address",
          "name": "owner",
          "type": "address"
        },
        {
          "internalType": "address",
          "name": "spender",
          "type": "address"
        }
      ],
      "name": "allowance",
      "outputs": [
        {
          "internalType": "uint256",
          "name": "",
          "type": "uint256"
        }
      ],
      "stateMutability": "view",
      "type": "function"
    },
    {
      "inputs": [
        {
          "internalType": "address",
          "name": "spender",
          "type": "address"
        },
        {
          "internalType": "uint256",
          "name": "amount",
          "type": "uint256"
        }
      ],
      "name": "approve",
      "outputs": [
        {
          "internalType": "bool",
          "name": "",
          "type": "bool"
        }
      ],
      "stateMutability": "nonpayable",
      "type": "function"
    },
    {
      "inputs": [
        {
          "internalType": "address",
          "name": "account",
          "type": "address"
        }
      ],
      "name": "balanceOf",
      "outputs": [
        {
          "internalType": "uint256",
          "name": "",
          "type": "uint256"
        }
      ],
      "stateMutability": "view",
      "type": "function"
    },
    {
      "inputs": [],
      "name": "decimals",
      "outputs": [
        {
          "internalType": "uint8",
          "name": "",
          "type": "uint8"
        }
      ],
      "stateMutability": "view",
      "type": "function"
    },
    {
      "inputs": [
        {
          "internalType": "address",
          "name": "spender",
          "type": "address"
        },
        {
          "internalType": "uint256",
          "name": "subtractedValue",
          "type": "uint256"
        }
      ],
      "name": "decreaseAllowance",
      "outputs": [
        {
          "internalType": "bool",
          "name": "",
          "type": "bool"
        }
      ],
      "stateMutability": "nonpayable",
      "type": "function"
    },
    {
      "inputs": [],
      "name": "getOwner",
      "outputs": [
        {
          "internalType": "address",
          "name": "",
          "type": "address"
        }
      ],
      "stateMutability": "view",
      "type": "function"
    },
    {
      "inputs": [
        {
          "internalType": "address",
          "name": "spender",
          "type": "address"
        },
        {
          "internalType": "uint256",
          "name": "addedValue",
          "type": "uint256"
        }
      ],
      "name": "increaseAllowance",
      "outputs": [
        {
          "internalType": "bool",
          "name": "",
          "type": "bool"
        }
      ],
      "stateMutability": "nonpayable",
      "type": "function"
    },
    {
      "inputs": [
        {
          "internalType": "uint256",
          "name": "amount",
          "type": "uint256"
        }
      ],
      "name": "mint",
      "outputs": [
        {
          "internalType": "bool",
          "name": "",
          "type": "bool"
        }
      ],
      "stateMutability": "nonpayable",
      "type": "function"
    },
    {
      "inputs": [],
      "name": "name",
      "outputs": [
        {
          "internalType": "string",
          "name": "",
          "type": "string"
        }
      ],
      "stateMutability": "view",
      "type": "function"
    },
    {
      "inputs": [],
      "name": "owner",
      "outputs": [
        {
          "internalType": "address",
          "name": "",
          "type": "address"
        }
      ],
      "stateMutability": "view",
      "type": "function"
    },
    {
      "inputs": [],
      "name": "renounceOwnership",
      "outputs": [],
      "stateMutability": "nonpayable",
      "type": "function"
    },
    {
      "inputs": [],
      "name": "symbol",
      "outputs": [
        {
          "internalType": "string",
          "name": "",
          "type": "string"
        }
      ],
      "stateMutability": "view",
      "type": "function"
    },
    {
      "inputs": [],
      "name": "totalSupply",
      "outputs": [
        {
          "internalType": "uint256",
          "name": "",
          "type": "uint256"
        }
      ],
      "stateMutability": "view",
      "type": "function"
    },
    {
      "inputs": [
        {
          "internalType": "address",
          "name": "recipient",
          "type": "address"
        },
        {
          "internalType": "uint256",
          "name": "amount",
          "type": "uint256"
        }
      ],
      "name": "transfer",
      "outputs": [
        {
          "internalType": "bool",
          "name": "",
          "type": "bool"
        }
      ],
      "stateMutability": "nonpayable",
      "type": "function"
    },
    {
      "inputs": [
        {
          "internalType": "address",
          "name": "sender",
          "type": "address"
        },
        {
          "internalType": "address",
          "name": "recipient",
          "type": "address"
        },
        {
          "internalType": "uint256",
          "name": "amount",
          "type": "uint256"
        }
      ],
      "name": "transferFrom",
      "outputs": [
        {
          "internalType": "bool",
          "name": "",
          "type": "bool"
        }
      ],
      "stateMutability": "nonpayable",
      "type": "function"
    },
    {
      "inputs": [
        {
          "internalType": "address",
          "name": "newOwner",
          "type": "address"
        }
      ],
      "name": "transferOwnership",
      "outputs": [],
      "stateMutability": "nonpayable",
      "type": "function"
    }
  ],
  "bytecode": "0x60806040523480156200001157600080fd5b506040516200220f3803806200220f83398181016040528101906200003791906200048a565b8282620000596200004d620000c460201b60201c565b620000cc60201b60201c565b81600490805190602001906200007192919062000345565b5080600590805190602001906200008a92919062000345565b506012600660006101000a81548160ff021916908360ff1602179055505050620000bb33826200019060201b60201c565b50505062000809565b600033905090565b60008060009054906101000a900473ffffffffffffffffffffffffffffffffffffffff169050816000806101000a81548173ffffffffffffffffffffffffffffffffffffffff021916908373ffffffffffffffffffffffffffffffffffffffff1602179055508173ffffffffffffffffffffffffffffffffffffffff168173ffffffffffffffffffffffffffffffffffffffff167f8be0079c531659141344cd1fd0a4f28419497f9722a3daafe3b4186f6b6457e060405160405180910390a35050565b600073ffffffffffffffffffffffffffffffffffffffff168273ffffffffffffffffffffffffffffffffffffffff16141562000203576040517f08c379a0000000000000000000000000000000000000000000000000000000008152600401620001fa906200055c565b60405180910390fd5b6200021f816003546200032d60201b62000a591790919060201c565b6003819055506200027e81600160008573ffffffffffffffffffffffffffffffffffffffff1673ffffffffffffffffffffffffffffffffffffffff168152602001908152602001600020546200032d60201b62000a591790919060201c565b600160008473ffffffffffffffffffffffffffffffffffffffff1673ffffffffffffffffffffffffffffffffffffffff168152602001908152602001600020819055508173ffffffffffffffffffffffffffffffffffffffff16600073ffffffffffffffffffffffffffffffffffffffff167fddf252ad1be2c89b69c2b068fc378daa952ba7f163c4a11628f55a4df523b3ef836040516200032191906200057e565b60405180910390a35050565b600081836200033d91906200060b565b905092915050565b8280546200035390620006a8565b90600052602060002090601f016020900481019282620003775760008555620003c3565b82601f106200039257805160ff1916838001178555620003c3565b82800160010185558215620003c3579182015b82811115620003c2578251825591602001919060010190620003a5565b5b509050620003d29190620003d6565b5090565b5b80821115620003f1576000816000905550600101620003d7565b5090565b60006200040c6200040684620005c4565b6200059b565b9050828152602081018484840111156200042b576200042a620007a6565b5b6200043884828562000672565b509392505050565b600082601f830112620004585762000457620007a1565b5b81516200046a848260208601620003f5565b91505092915050565b6000815190506200048481620007ef565b92915050565b600080600060608486031215620004a657620004a5620007b0565b5b600084015167ffffffffffffffff811115620004c757620004c6620007ab565b5b620004d58682870162000440565b935050602084015167ffffffffffffffff811115620004f957620004f8620007ab565b5b620005078682870162000440565b92505060406200051a8682870162000473565b9150509250925092565b600062000533601f83620005fa565b91506200054082620007c6565b602082019050919050565b620005568162000668565b82525050565b60006020820190508181036000830152620005778162000524565b9050919050565b60006020820190506200059560008301846200054b565b92915050565b6000620005a7620005ba565b9050620005b58282620006de565b919050565b6000604051905090565b600067ffffffffffffffff821115620005e257620005e162000772565b5b620005ed82620007b5565b9050602081019050919050565b600082825260208201905092915050565b6000620006188262000668565b9150620006258362000668565b9250827fffffffffffffffffffffffffffffffffffffffffffffffffffffffffffffffff038211156200065d576200065c62000714565b5b828201905092915050565b6000819050919050565b60005b838110156200069257808201518184015260208101905062000675565b83811115620006a2576000848401525b50505050565b60006002820490506001821680620006c157607f821691505b60208210811415620006d857620006d762000743565b5b50919050565b620006e982620007b5565b810181811067ffffffffffffffff821117156200070b576200070a62000772565b5b80604052505050565b7f4e487b7100000000000000000000000000000000000000000000000000000000600052601160045260246000fd5b7f4e487b7100000000000000000000000000000000000000000000000000000000600052602260045260246000fd5b7f4e487b7100000000000000000000000000000000000000000000000000000000600052604160045260246000fd5b600080fd5b600080fd5b600080fd5b600080fd5b6000601f19601f8301169050919050565b7f42455032303a206d696e7420746f20746865207a65726f206164647265737300600082015250565b620007fa8162000668565b81146200080657600080fd5b50565b6119f680620008196000396000f3fe608060405234801561001057600080fd5b50600436106101005760003560e01c8063893d20e811610097578063a457c2d711610066578063a457c2d7146102b3578063a9059cbb146102e3578063dd62ed3e14610313578063f2fde38b1461034357610100565b8063893d20e8146102295780638da5cb5b1461024757806395d89b4114610265578063a0712d681461028357610100565b8063313ce567116100d3578063313ce567146101a157806339509351146101bf57806370a08231146101ef578063715018a61461021f57610100565b806306fdde0314610105578063095ea7b31461012357806318160ddd1461015357806323b872dd14610171575b600080fd5b61010d61035f565b60405161011a919061146a565b60405180910390f35b61013d6004803603810190610138919061125d565b6103f1565b60405161014a919061144f565b60405180910390f35b61015b61040f565b604051610168919061156c565b60405180910390f35b61018b6004803603810190610186919061120a565b610419565b604051610198919061144f565b60405180910390f35b6101a96104f2565b6040516101b69190611587565b60405180910390f35b6101d960048036038101906101d4919061125d565b610509565b6040516101e6919061144f565b60405180910390f35b6102096004803603810190610204919061119d565b6105bc565b604051610216919061156c565b60405180910390f35b610227610605565b005b61023161068d565b60405161023e9190611434565b60405180910390f35b61024f61069c565b60405161025c9190611434565b60405180910390f35b61026d6106c5565b60405161027a919061146a565b60405180910390f35b61029d6004803603810190610298919061129d565b610757565b6040516102aa919061144f565b60405180910390f35b6102cd60048036038101906102c8919061125d565b6107ef565b6040516102da919061144f565b60405180910390f35b6102fd60048036038101906102f8919061125d565b6108bc565b60405161030a919061144f565b60405180910390f35b61032d600480360381019061032891906111ca565b6108da565b60405161033a919061156c565b60405180910390f35b61035d6004803603810190610358919061119d565b610961565b005b60606004805461036e9061169c565b80601f016020809104026020016040519081016040528092919081815260200182805461039a9061169c565b80156103e75780601f106103bc576101008083540402835291602001916103e7565b820191906000526020600020905b8154815290600101906020018083116103ca57829003601f168201915b5050505050905090565b60006104056103fe610a6f565b8484610a77565b6001905092915050565b6000600354905090565b6000610426848484610c42565b6104e784610432610a6f565b6104e28560405180606001604052806028815260200161194e60289139600260008b73ffffffffffffffffffffffffffffffffffffffff1673ffffffffffffffffffffffffffffffffffffffff1681526020019081526020016000206000610498610a6f565b73ffffffffffffffffffffffffffffffffffffffff1673ffffffffffffffffffffffffffffffffffffffff16815260200190815260200160002054610ed09092919063ffffffff16565b610a77565b600190509392505050565b6000600660009054906101000a900460ff16905090565b60006105b2610516610a6f565b846105ad8560026000610527610a6f565b73ffffffffffffffffffffffffffffffffffffffff1673ffffffffffffffffffffffffffffffffffffffff16815260200190815260200160002060008973ffffffffffffffffffffffffffffffffffffffff1673ffffffffffffffffffffffffffffffffffffffff16815260200190815260200160002054610a5990919063ffffffff16565b610a77565b6001905092915050565b6000600160008373ffffffffffffffffffffffffffffffffffffffff1673ffffffffffffffffffffffffffffffffffffffff168152602001908152602001600020549050919050565b61060d610a6f565b73ffffffffffffffffffffffffffffffffffffffff1661062b61069c565b73ffffffffffffffffffffffffffffffffffffffff1614610681576040517f08c379a00000000000000000000000000000000000000000000000000000000081526004016106789061150c565b60405180910390fd5b61068b6000610f25565b565b600061069761069c565b905090565b60008060009054906101000a900473ffffffffffffffffffffffffffffffffffffffff16905090565b6060600580546106d49061169c565b80601f01602080910402602001604051908101604052809291908181526020018280546107009061169c565b801561074d5780601f106107225761010080835404028352916020019161074d565b820191906000526020600020905b81548152906001019060200180831161073057829003601f168201915b5050505050905090565b6000610761610a6f565b73ffffffffffffffffffffffffffffffffffffffff1661077f61069c565b73ffffffffffffffffffffffffffffffffffffffff16146107d5576040517f08c379a00000000000000000000000000000000000000000000000000000000081526004016107cc9061150c565b60405180910390fd5b6107e66107e0610a6f565b83610fe9565b60019050919050565b60006108b26107fc610a6f565b846108ad8560405180606001604052806025815260200161199c6025913960026000610826610a6f565b73ffffffffffffffffffffffffffffffffffffffff1673ffffffffffffffffffffffffffffffffffffffff16815260200190815260200160002060008a73ffffffffffffffffffffffffffffffffffffffff1673ffffffffffffffffffffffffffffffffffffffff16815260200190815260200160002054610ed09092919063ffffffff16565b610a77565b6001905092915050565b60006108d06108c9610a6f565b8484610c42565b6001905092915050565b6000600260008473ffffffffffffffffffffffffffffffffffffffff1673ffffffffffffffffffffffffffffffffffffffff16815260200190815260200160002060008373ffffffffffffffffffffffffffffffffffffffff1673ffffffffffffffffffffffffffffffffffffffff16815260200190815260200160002054905092915050565b610969610a6f565b73ffffffffffffffffffffffffffffffffffffffff1661098761069c565b73ffffffffffffffffffffffffffffffffffffffff16146109dd576040517f08c379a00000000000000000000000000000000000000000000000000000000081526004016109d49061150c565b60405180910390fd5b600073ffffffffffffffffffffffffffffffffffffffff168173ffffffffffffffffffffffffffffffffffffffff161415610a4d576040517f08c379a0000000000000000000000000000000000000000000000000000000008152600401610a44906114cc565b60405180910390fd5b610a5681610f25565b50565b60008183610a6791906115be565b905092915050565b600033905090565b600073ffffffffffffffffffffffffffffffffffffffff168373ffffffffffffffffffffffffffffffffffffffff161415610ae7576040517f08c379a0000000000000000000000000000000000000000000000000000000008152600401610ade906114ac565b60405180910390fd5b600073ffffffffffffffffffffffffffffffffffffffff168273ffffffffffffffffffffffffffffffffffffffff161415610b57576040517f08c379a0000000000000000000000000000000000000000000000000000000008152600401610b4e9061154c565b60405180910390fd5b80600260008573ffffffffffffffffffffffffffffffffffffffff1673ffffffffffffffffffffffffffffffffffffffff16815260200190815260200160002060008473ffffffffffffffffffffffffffffffffffffffff1673ffffffffffffffffffffffffffffffffffffffff168152602001908152602001600020819055508173ffffffffffffffffffffffffffffffffffffffff168373ffffffffffffffffffffffffffffffffffffffff167f8c5be1e5ebec7d5bd14f71427d1e84f3dd0314c0f7b2291e5b200ac8c7c3b92583604051610c35919061156c565b60405180910390a3505050565b600073ffffffffffffffffffffffffffffffffffffffff168373ffffffffffffffffffffffffffffffffffffffff161415610cb2576040517f08c379a0000000000000000000000000000000000000000000000000000000008152600401610ca99061148c565b60405180910390fd5b600073ffffffffffffffffffffffffffffffffffffffff168273ffffffffffffffffffffffffffffffffffffffff161415610d22576040517f08c379a0000000000000000000000000000000000000000000000000000000008152600401610d199061152c565b60405180910390fd5b610d8e8160405180606001604052806026815260200161197660269139600160008773ffffffffffffffffffffffffffffffffffffffff1673ffffffffffffffffffffffffffffffffffffffff16815260200190815260200160002054610ed09092919063ffffffff16565b600160008573ffffffffffffffffffffffffffffffffffffffff1673ffffffffffffffffffffffffffffffffffffffff16815260200190815260200160002081905550610e2381600160008573ffffffffffffffffffffffffffffffffffffffff1673ffffffffffffffffffffffffffffffffffffffff16815260200190815260200160002054610a5990919063ffffffff16565b600160008473ffffffffffffffffffffffffffffffffffffffff1673ffffffffffffffffffffffffffffffffffffffff168152602001908152602001600020819055508173ffffffffffffffffffffffffffffffffffffffff168373ffffffffffffffffffffffffffffffffffffffff167fddf252ad1be2c89b69c2b068fc378daa952ba7f163c4a11628f55a4df523b3ef83604051610ec3919061156c565b60405180910390a3505050565b6000838311158290610f18576040517f08c379a0000000000000000000000000000000000000000000000000000000008152600401610f0f919061146a565b60405180910390fd5b5082840390509392505050565b60008060009054906101000a900473ffffffffffffffffffffffffffffffffffffffff169050816000806101000a81548173ffffffffffffffffffffffffffffffffffffffff021916908373ffffffffffffffffffffffffffffffffffffffff1602179055508173ffffffffffffffffffffffffffffffffffffffff168173ffffffffffffffffffffffffffffffffffffffff167f8be0079c531659141344cd1fd0a4f28419497f9722a3daafe3b4186f6b6457e060405160405180910390a35050565b600073ffffffffffffffffffffffffffffffffffffffff168273ffffffffffffffffffffffffffffffffffffffff161415611059576040517f08c379a0000000000000000000000000000000000000000000000000000000008152600401611050906114ec565b60405180910390fd5b61106e81600354610a5990919063ffffffff16565b6003819055506110c681600160008573ffffffffffffffffffffffffffffffffffffffff1673ffffffffffffffffffffffffffffffffffffffff16815260200190815260200160002054610a5990919063ffffffff16565b600160008473ffffffffffffffffffffffffffffffffffffffff1673ffffffffffffffffffffffffffffffffffffffff168152602001908152602001600020819055508173ffffffffffffffffffffffffffffffffffffffff16600073ffffffffffffffffffffffffffffffffffffffff167fddf252ad1be2c89b69c2b068fc378daa952ba7f163c4a11628f55a4df523b3ef83604051611167919061156c565b60405180910390a35050565b6000813590506111828161191f565b92915050565b60008135905061119781611936565b92915050565b6000602082840312156111b3576111b261172c565b5b60006111c184828501611173565b91505092915050565b600080604083850312156111e1576111e061172c565b5b60006111ef85828601611173565b925050602061120085828601611173565b9150509250929050565b6000806000606084860312156112235761122261172c565b5b600061123186828701611173565b935050602061124286828701611173565b925050604061125386828701611188565b9150509250925092565b600080604083850312156112745761127361172c565b5b600061128285828601611173565b925050602061129385828601611188565b9150509250929050565b6000602082840312156112b3576112b261172c565b5b60006112c184828501611188565b91505092915050565b6112d381611614565b82525050565b6112e281611626565b82525050565b60006112f3826115a2565b6112fd81856115ad565b935061130d818560208601611669565b61131681611731565b840191505092915050565b600061132e6025836115ad565b915061133982611742565b604082019050919050565b60006113516024836115ad565b915061135c82611791565b604082019050919050565b60006113746026836115ad565b915061137f826117e0565b604082019050919050565b6000611397601f836115ad565b91506113a28261182f565b602082019050919050565b60006113ba6020836115ad565b91506113c582611858565b602082019050919050565b60006113dd6023836115ad565b91506113e882611881565b604082019050919050565b60006114006022836115ad565b915061140b826118d0565b604082019050919050565b61141f81611652565b82525050565b61142e8161165c565b82525050565b600060208201905061144960008301846112ca565b92915050565b600060208201905061146460008301846112d9565b92915050565b6000602082019050818103600083015261148481846112e8565b905092915050565b600060208201905081810360008301526114a581611321565b9050919050565b600060208201905081810360008301526114c581611344565b9050919050565b600060208201905081810360008301526114e581611367565b9050919050565b600060208201905081810360008301526115058161138a565b9050919050565b60006020820190508181036000830152611525816113ad565b9050919050565b60006020820190508181036000830152611545816113d0565b9050919050565b60006020820190508181036000830152611565816113f3565b9050919050565b60006020820190506115816000830184611416565b92915050565b600060208201905061159c6000830184611425565b92915050565b600081519050919050565b600082825260208201905092915050565b60006115c982611652565b91506115d483611652565b9250827fffffffffffffffffffffffffffffffffffffffffffffffffffffffffffffffff03821115611609576116086116ce565b5b828201905092915050565b600061161f82611632565b9050919050565b60008115159050919050565b600073ffffffffffffffffffffffffffffffffffffffff82169050919050565b6000819050919050565b600060ff82169050919050565b60005b8381101561168757808201518184015260208101905061166c565b83811115611696576000848401525b50505050565b600060028204905060018216806116b457607f821691505b602082108114156116c8576116c76116fd565b5b50919050565b7f4e487b7100000000000000000000000000000000000000000000000000000000600052601160045260246000fd5b7f4e487b7100000000000000000000000000000000000000000000000000000000600052602260045260246000fd5b600080fd5b6000601f19601f8301169050919050565b7f42455032303a207472616e736665722066726f6d20746865207a65726f20616460008201527f6472657373000000000000000000000000000000000000000000000000000000602082015250565b7f42455032303a20617070726f76652066726f6d20746865207a65726f2061646460008201527f7265737300000000000000000000000000000000000000000000000000000000602082015250565b7f4f776e61626c653a206e6577206f776e657220697320746865207a65726f206160008201527f6464726573730000000000000000000000000000000000000000000000000000602082015250565b7f42455032303a206d696e7420746f20746865207a65726f206164647265737300600082015250565b7f4f776e61626c653a2063616c6c6572206973206e6f7420746865206f776e6572600082015250565b7f42455032303a207472616e7366657220746f20746865207a65726f206164647260008201527f6573730000000000000000000000000000000000000000000000000000000000602082015250565b7f42455032303a20617070726f766520746f20746865207a65726f20616464726560008201527f7373000000000000000000000000000000000000000000000000000000000000602082015250565b61192881611614565b811461193357600080fd5b50565b61193f81611652565b811461194a57600080fd5b5056fe42455032303a207472616e7366657220616d6f756e74206578636565647320616c6c6f77616e636542455032303a207472616e7366657220616d6f756e7420657863656564732062616c616e636542455032303a2064656372656173656420616c6c6f77616e63652062656c6f77207a65726fa26469706673582212201d8447c336dce7e18234cf4c11499508b469691993b0ea441433b6e5519d141164736f6c63430008060033",
  "linkReferences": {},
  "deployedLinkReferences": {}
}